{
	"src/router/Router.sol": {
		"Router01": {
			"abi": [
				{
					"inputs": [],
					"stateMutability": "nonpayable",
					"type": "constructor"
				},
				{
					"anonymous": false,
					"inputs": [
						{
							"indexed": false,
							"internalType": "uint8",
							"name": "version",
							"type": "uint8"
						}
					],
					"name": "Initialized",
					"type": "event"
				},
				{
					"anonymous": false,
					"inputs": [
						{
							"indexed": true,
							"internalType": "address",
							"name": "previousOwner",
							"type": "address"
						},
						{
							"indexed": true,
							"internalType": "address",
							"name": "newOwner",
							"type": "address"
						}
					],
					"name": "OwnershipTransferred",
					"type": "event"
				},
				{
					"inputs": [
						{
							"internalType": "address payable[]",
							"name": "targets",
							"type": "address[]"
						},
						{
							"internalType": "uint256[]",
							"name": "valuation",
							"type": "uint256[]"
						},
						{
							"internalType": "uint256[]",
							"name": "nftID",
							"type": "uint256[]"
						},
						{
							"internalType": "uint256[]",
							"name": "loanDurationSeconds",
							"type": "uint256[]"
						},
						{
							"internalType": "uint256[]",
							"name": "expireAtBlock",
							"type": "uint256[]"
						},
						{
							"internalType": "uint256[]",
							"name": "borrowedWei",
							"type": "uint256[]"
						},
						{
							"internalType": "bytes[]",
							"name": "signature",
							"type": "bytes[]"
						},
						{
							"internalType": "address",
							"name": "pineWallet",
							"type": "address"
						}
					],
					"name": "batchBorrow",
					"outputs": [],
					"stateMutability": "nonpayable",
					"type": "function"
				},
				{
					"inputs": [
						{
							"internalType": "address payable[]",
							"name": "targets",
							"type": "address[]"
						},
						{
							"internalType": "uint256[]",
							"name": "valuation",
							"type": "uint256[]"
						},
						{
							"internalType": "uint256[]",
							"name": "nftID",
							"type": "uint256[]"
						},
						{
							"internalType": "uint256[]",
							"name": "loanDurationSeconds",
							"type": "uint256[]"
						},
						{
							"internalType": "uint256[]",
							"name": "expireAtBlock",
							"type": "uint256[]"
						},
						{
							"internalType": "uint256[]",
							"name": "borrowedWei",
							"type": "uint256[]"
						},
						{
							"internalType": "bytes[]",
							"name": "signature",
							"type": "bytes[]"
						},
						{
							"internalType": "address",
							"name": "pineWallet",
							"type": "address"
						}
					],
					"name": "batchBorrowETH",
					"outputs": [],
					"stateMutability": "nonpayable",
					"type": "function"
				},
				{
					"inputs": [
						{
							"internalType": "address",
							"name": "w",
							"type": "address"
						},
						{
							"internalType": "address payable",
							"name": "c",
							"type": "address"
						}
					],
					"name": "init",
					"outputs": [],
					"stateMutability": "nonpayable",
					"type": "function"
				},
				{
					"inputs": [],
					"name": "owner",
					"outputs": [
						{
							"internalType": "address",
							"name": "",
							"type": "address"
						}
					],
					"stateMutability": "view",
					"type": "function"
				},
				{
					"inputs": [],
					"name": "renounceOwnership",
					"outputs": [],
					"stateMutability": "nonpayable",
					"type": "function"
				},
				{
					"inputs": [
						{
							"internalType": "address payable",
							"name": "target",
							"type": "address"
						},
						{
							"internalType": "uint256",
							"name": "nftID",
							"type": "uint256"
						},
						{
							"internalType": "address",
							"name": "pineWallet",
							"type": "address"
						}
					],
					"name": "repayETH",
					"outputs": [],
					"stateMutability": "payable",
					"type": "function"
				},
				{
					"inputs": [
						{
							"internalType": "uint256",
							"name": "f",
							"type": "uint256"
						}
					],
					"name": "setFee",
					"outputs": [],
					"stateMutability": "nonpayable",
					"type": "function"
				},
				{
					"inputs": [
						{
							"internalType": "address",
							"name": "newOwner",
							"type": "address"
						}
					],
					"name": "transferOwnership",
					"outputs": [],
					"stateMutability": "nonpayable",
					"type": "function"
				},
				{
					"inputs": [
						{
							"internalType": "uint256",
							"name": "amount",
							"type": "uint256"
						}
					],
					"name": "withdraw",
					"outputs": [],
					"stateMutability": "nonpayable",
					"type": "function"
				},
				{
					"inputs": [
						{
							"internalType": "address",
							"name": "currency",
							"type": "address"
						},
						{
							"internalType": "uint256",
							"name": "amount",
							"type": "uint256"
						}
					],
					"name": "withdrawERC20",
					"outputs": [],
					"stateMutability": "nonpayable",
					"type": "function"
				},
				{
					"stateMutability": "payable",
					"type": "receive"
				}
			],
			"devdoc": {
				"kind": "dev",
				"methods": {
					"owner()": {
						"details": "Returns the address of the current owner."
					},
					"renounceOwnership()": {
						"details": "Leaves the contract without owner. It will not be possible to call `onlyOwner` functions anymore. Can only be called by the current owner. NOTE: Renouncing ownership will leave the contract without an owner, thereby removing any functionality that is only available to the owner."
					},
					"transferOwnership(address)": {
						"details": "Transfers ownership of the contract to a new account (`newOwner`). Can only be called by the current owner."
					}
				},
				"version": 1
			},
			"evm": {
				"assembly": "    /* \"src/router/Router.sol\":760:4748  contract Router01 is OwnableUpgradeable {... */\n  mstore(0x40, 0x80)\n    /* \"src/router/Router.sol\":876:925  constructor() {... */\n  callvalue\n  dup1\n  iszero\n  tag_1\n  jumpi\n  0x00\n  dup1\n  revert\ntag_1:\n  pop\n    /* \"src/router/Router.sol\":897:919  _disableInitializers() */\n  tag_4\n    /* \"src/router/Router.sol\":897:917  _disableInitializers */\n  tag_5\n    /* \"src/router/Router.sol\":897:919  _disableInitializers() */\n  jump\t// in\ntag_4:\n    /* \"src/router/Router.sol\":760:4748  contract Router01 is OwnableUpgradeable {... */\n  jump(tag_14)\n    /* \"lib/openzeppelin-contracts-upgradeable/contracts/proxy/utils/Initializable.sol\":6083:6369  function _disableInitializers() internal virtual {... */\ntag_5:\n    /* \"lib/openzeppelin-contracts-upgradeable/contracts/proxy/utils/Initializable.sol\":6152:6165  _initializing */\n  sload(0x00)\n  0x0100\n  swap1\n  div\n  0xff\n  and\n    /* \"lib/openzeppelin-contracts-upgradeable/contracts/proxy/utils/Initializable.sol\":6151:6165  !_initializing */\n  iszero\n    /* \"lib/openzeppelin-contracts-upgradeable/contracts/proxy/utils/Initializable.sol\":6143:6209  require(!_initializing, \"Initializable: contract is initializing\") */\n  tag_8\n  jumpi\n  mload(0x40)\n  shl(0xe5, 0x461bcd)\n  dup2\n  mstore\n    /* \"#utility.yul\":216:218   */\n  0x20\n    /* \"lib/openzeppelin-contracts-upgradeable/contracts/proxy/utils/Initializable.sol\":6143:6209  require(!_initializing, \"Initializable: contract is initializing\") */\n  0x04\n  dup3\n  add\n    /* \"#utility.yul\":198:219   */\n  mstore\n    /* \"#utility.yul\":255:257   */\n  0x27\n    /* \"#utility.yul\":235:253   */\n  0x24\n  dup3\n  add\n    /* \"#utility.yul\":228:258   */\n  mstore\n    /* \"#utility.yul\":294:328   */\n  0x496e697469616c697a61626c653a20636f6e747261637420697320696e697469\n    /* \"#utility.yul\":274:292   */\n  0x44\n  dup3\n  add\n    /* \"#utility.yul\":267:329   */\n  mstore\n  shl(0xc8, 0x616c697a696e67)\n    /* \"#utility.yul\":345:363   */\n  0x64\n  dup3\n  add\n    /* \"#utility.yul\":338:375   */\n  mstore\n    /* \"#utility.yul\":392:411   */\n  0x84\n  add\n    /* \"lib/openzeppelin-contracts-upgradeable/contracts/proxy/utils/Initializable.sol\":6143:6209  require(!_initializing, \"Initializable: contract is initializing\") */\n  mload(0x40)\n  dup1\n  swap2\n  sub\n  swap1\n  revert\ntag_8:\n    /* \"lib/openzeppelin-contracts-upgradeable/contracts/proxy/utils/Initializable.sol\":6224:6236  _initialized */\n  sload(0x00)\n    /* \"lib/openzeppelin-contracts-upgradeable/contracts/proxy/utils/Initializable.sol\":6240:6255  type(uint8).max */\n  0xff\n    /* \"lib/openzeppelin-contracts-upgradeable/contracts/proxy/utils/Initializable.sol\":6224:6236  _initialized */\n  swap1\n  dup2\n  and\n    /* \"lib/openzeppelin-contracts-upgradeable/contracts/proxy/utils/Initializable.sol\":6224:6255  _initialized != type(uint8).max */\n  eq\n    /* \"lib/openzeppelin-contracts-upgradeable/contracts/proxy/utils/Initializable.sol\":6220:6362  if (_initialized != type(uint8).max) {... */\n  tag_11\n  jumpi\n    /* \"lib/openzeppelin-contracts-upgradeable/contracts/proxy/utils/Initializable.sol\":6272:6284  _initialized */\n  0x00\n    /* \"lib/openzeppelin-contracts-upgradeable/contracts/proxy/utils/Initializable.sol\":6272:6302  _initialized = type(uint8).max */\n  dup1\n  sload\n  not(0xff)\n  and\n    /* \"lib/openzeppelin-contracts-upgradeable/contracts/proxy/utils/Initializable.sol\":6287:6302  type(uint8).max */\n  0xff\n    /* \"lib/openzeppelin-contracts-upgradeable/contracts/proxy/utils/Initializable.sol\":6272:6302  _initialized = type(uint8).max */\n  swap1\n  dup2\n  or\n  swap1\n  swap2\n  sstore\n    /* \"lib/openzeppelin-contracts-upgradeable/contracts/proxy/utils/Initializable.sol\":6322:6350  Initialized(type(uint8).max) */\n  mload(0x40)\n    /* \"#utility.yul\":564:600   */\n  swap1\n  dup2\n  mstore\n    /* \"lib/openzeppelin-contracts-upgradeable/contracts/proxy/utils/Initializable.sol\":6322:6350  Initialized(type(uint8).max) */\n  0x7f26b83ff96e1f2b6a682f133852f6798a09c465da95921460cefb3847402498\n  swap1\n    /* \"#utility.yul\":552:554   */\n  0x20\n    /* \"#utility.yul\":537:555   */\n  add\n    /* \"lib/openzeppelin-contracts-upgradeable/contracts/proxy/utils/Initializable.sol\":6322:6350  Initialized(type(uint8).max) */\n  mload(0x40)\n  dup1\n  swap2\n  sub\n  swap1\n  log1\n    /* \"lib/openzeppelin-contracts-upgradeable/contracts/proxy/utils/Initializable.sol\":6220:6362  if (_initialized != type(uint8).max) {... */\ntag_11:\n    /* \"lib/openzeppelin-contracts-upgradeable/contracts/proxy/utils/Initializable.sol\":6083:6369  function _disableInitializers() internal virtual {... */\n  jump\t// out\n    /* \"#utility.yul\":422:606   */\ntag_14:\n    /* \"src/router/Router.sol\":760:4748  contract Router01 is OwnableUpgradeable {... */\n  dataSize(sub_0)\n  dup1\n  dataOffset(sub_0)\n  0x00\n  codecopy\n  0x00\n  return\nstop\n\nsub_0: assembly {\n        /* \"src/router/Router.sol\":760:4748  contract Router01 is OwnableUpgradeable {... */\n      mstore(0x40, 0x80)\n      jumpi(tag_1, lt(calldatasize, 0x04))\n      shr(0xe0, calldataload(0x00))\n      dup1\n      0xa1db9782\n      gt\n      tag_13\n      jumpi\n      dup1\n      0xa1db9782\n      eq\n      tag_8\n      jumpi\n      dup1\n      0xa489de5b\n      eq\n      tag_9\n      jumpi\n      dup1\n      0xbcc3c255\n      eq\n      tag_10\n      jumpi\n      dup1\n      0xf09a4016\n      eq\n      tag_11\n      jumpi\n      dup1\n      0xf2fde38b\n      eq\n      tag_12\n      jumpi\n      0x00\n      dup1\n      revert\n    tag_13:\n      dup1\n      0x2e1a7d4d\n      eq\n      tag_3\n      jumpi\n      dup1\n      0x69fe0e2d\n      eq\n      tag_4\n      jumpi\n      dup1\n      0x6f359b5a\n      eq\n      tag_5\n      jumpi\n      dup1\n      0x715018a6\n      eq\n      tag_6\n      jumpi\n      dup1\n      0x8da5cb5b\n      eq\n      tag_7\n      jumpi\n      0x00\n      dup1\n      revert\n    tag_1:\n      jumpi(tag_2, calldatasize)\n      stop\n    tag_2:\n      0x00\n      dup1\n      revert\n        /* \"src/router/Router.sol\":4397:4561  function withdraw(uint256 amount) external onlyOwner {... */\n    tag_3:\n      callvalue\n      dup1\n      iszero\n      tag_16\n      jumpi\n      0x00\n      dup1\n      revert\n    tag_16:\n      pop\n      tag_17\n      tag_18\n      calldatasize\n      0x04\n      tag_19\n      jump\t// in\n    tag_18:\n      tag_20\n      jump\t// in\n    tag_17:\n      stop\n        /* \"src/router/Router.sol\":1087:1148  function setFee(uint f) public onlyOwner {... */\n    tag_4:\n      callvalue\n      dup1\n      iszero\n      tag_21\n      jumpi\n      0x00\n      dup1\n      revert\n    tag_21:\n      pop\n      tag_17\n      tag_23\n      calldatasize\n      0x04\n      tag_19\n      jump\t// in\n    tag_23:\n      tag_24\n      jump\t// in\n        /* \"src/router/Router.sol\":2249:3525  function batchBorrowETH(... */\n    tag_5:\n      callvalue\n      dup1\n      iszero\n      tag_25\n      jumpi\n      0x00\n      dup1\n      revert\n    tag_25:\n      pop\n      tag_17\n      tag_27\n      calldatasize\n      0x04\n      tag_28\n      jump\t// in\n    tag_27:\n      tag_29\n      jump\t// in\n        /* \"lib/openzeppelin-contracts-upgradeable/contracts/access/OwnableUpgradeable.sol\":2136:2239  function renounceOwnership() public virtual onlyOwner {... */\n    tag_6:\n      callvalue\n      dup1\n      iszero\n      tag_30\n      jumpi\n      0x00\n      dup1\n      revert\n    tag_30:\n      pop\n      tag_17\n      tag_32\n      jump\t// in\n        /* \"lib/openzeppelin-contracts-upgradeable/contracts/access/OwnableUpgradeable.sol\":1488:1575  function owner() public view virtual returns (address) {... */\n    tag_7:\n      callvalue\n      dup1\n      iszero\n      tag_33\n      jumpi\n      0x00\n      dup1\n      revert\n    tag_33:\n      pop\n        /* \"lib/openzeppelin-contracts-upgradeable/contracts/access/OwnableUpgradeable.sol\":1561:1567  _owner */\n      sload(0x33)\n        /* \"lib/openzeppelin-contracts-upgradeable/contracts/access/OwnableUpgradeable.sol\":1488:1575  function owner() public view virtual returns (address) {... */\n      0x40\n      dup1\n      mload\n      sub(shl(0xa0, 0x01), 0x01)\n        /* \"lib/openzeppelin-contracts-upgradeable/contracts/access/OwnableUpgradeable.sol\":1561:1567  _owner */\n      swap1\n      swap3\n      and\n        /* \"#utility.yul\":6178:6229   */\n      dup3\n      mstore\n        /* \"lib/openzeppelin-contracts-upgradeable/contracts/access/OwnableUpgradeable.sol\":1488:1575  function owner() public view virtual returns (address) {... */\n      mload\n      swap1\n      dup2\n      swap1\n      sub\n        /* \"#utility.yul\":6166:6168   */\n      0x20\n        /* \"lib/openzeppelin-contracts-upgradeable/contracts/access/OwnableUpgradeable.sol\":1488:1575  function owner() public view virtual returns (address) {... */\n      add\n      swap1\n      return\n        /* \"src/router/Router.sol\":4567:4700  function withdrawERC20(address currency, uint256 amount) external onlyOwner {... */\n    tag_8:\n      callvalue\n      dup1\n      iszero\n      tag_38\n      jumpi\n      0x00\n      dup1\n      revert\n    tag_38:\n      pop\n      tag_17\n      tag_40\n      calldatasize\n      0x04\n      tag_41\n      jump\t// in\n    tag_40:\n      tag_42\n      jump\t// in\n        /* \"src/router/Router.sol\":1154:2243  function batchBorrow(... */\n    tag_9:\n      callvalue\n      dup1\n      iszero\n      tag_43\n      jumpi\n      0x00\n      dup1\n      revert\n    tag_43:\n      pop\n      tag_17\n      tag_45\n      calldatasize\n      0x04\n      tag_28\n      jump\t// in\n    tag_45:\n      tag_46\n      jump\t// in\n        /* \"src/router/Router.sol\":3531:4202  function repayETH(address payable target, uint nftID, address pineWallet) payable public {... */\n    tag_10:\n      tag_17\n      tag_48\n      calldatasize\n      0x04\n      tag_49\n      jump\t// in\n    tag_48:\n      tag_50\n      jump\t// in\n        /* \"src/router/Router.sol\":931:1081  function init(address w, address payable c) initializer external {... */\n    tag_11:\n      callvalue\n      dup1\n      iszero\n      tag_51\n      jumpi\n      0x00\n      dup1\n      revert\n    tag_51:\n      pop\n      tag_17\n      tag_53\n      calldatasize\n      0x04\n      tag_54\n      jump\t// in\n    tag_53:\n      tag_55\n      jump\t// in\n        /* \"lib/openzeppelin-contracts-upgradeable/contracts/access/OwnableUpgradeable.sol\":2394:2595  function transferOwnership(address newOwner) public virtual onlyOwner {... */\n    tag_12:\n      callvalue\n      dup1\n      iszero\n      tag_56\n      jumpi\n      0x00\n      dup1\n      revert\n    tag_56:\n      pop\n      tag_17\n      tag_58\n      calldatasize\n      0x04\n      tag_59\n      jump\t// in\n    tag_58:\n      tag_60\n      jump\t// in\n        /* \"src/router/Router.sol\":4397:4561  function withdraw(uint256 amount) external onlyOwner {... */\n    tag_20:\n        /* \"lib/openzeppelin-contracts-upgradeable/contracts/access/OwnableUpgradeable.sol\":1374:1387  _checkOwner() */\n      tag_62\n        /* \"lib/openzeppelin-contracts-upgradeable/contracts/access/OwnableUpgradeable.sol\":1374:1385  _checkOwner */\n      tag_63\n        /* \"lib/openzeppelin-contracts-upgradeable/contracts/access/OwnableUpgradeable.sol\":1374:1387  _checkOwner() */\n      jump\t// in\n    tag_62:\n        /* \"src/router/Router.sol\":4460:4472  bool success */\n      0x00\n        /* \"src/router/Router.sol\":4478:4485  owner() */\n      tag_65\n        /* \"lib/openzeppelin-contracts-upgradeable/contracts/access/OwnableUpgradeable.sol\":1561:1567  _owner */\n      and(sub(shl(0xa0, 0x01), 0x01), sload(0x33))\n      swap1\n        /* \"lib/openzeppelin-contracts-upgradeable/contracts/access/OwnableUpgradeable.sol\":1488:1575  function owner() public view virtual returns (address) {... */\n      jump\n        /* \"src/router/Router.sol\":4478:4485  owner() */\n    tag_65:\n      sub(shl(0xa0, 0x01), 0x01)\n        /* \"src/router/Router.sol\":4478:4490  owner().call */\n      and\n        /* \"src/router/Router.sol\":4498:4504  amount */\n      dup3\n        /* \"src/router/Router.sol\":4478:4509  owner().call{value: amount}(\"\") */\n      mload(0x40)\n      0x00\n      mload(0x40)\n      dup1\n      dup4\n      sub\n      dup2\n      dup6\n      dup8\n      gas\n      call\n      swap3\n      pop\n      pop\n      pop\n      returndatasize\n      dup1\n      0x00\n      dup2\n      eq\n      tag_70\n      jumpi\n      mload(0x40)\n      swap2\n      pop\n      and(add(returndatasize, 0x3f), not(0x1f))\n      dup3\n      add\n      0x40\n      mstore\n      returndatasize\n      dup3\n      mstore\n      returndatasize\n      0x00\n      0x20\n      dup5\n      add\n      returndatacopy\n      jump(tag_69)\n    tag_70:\n      0x60\n      swap2\n      pop\n    tag_69:\n      pop\n        /* \"src/router/Router.sol\":4459:4509  (bool success, ) = owner().call{value: amount}(\"\") */\n      pop\n      swap1\n      pop\n        /* \"src/router/Router.sol\":4526:4533  success */\n      dup1\n        /* \"src/router/Router.sol\":4518:4555  require(success, \"cannot send ether\") */\n      tag_71\n      jumpi\n      mload(0x40)\n      shl(0xe5, 0x461bcd)\n      dup2\n      mstore\n      0x04\n      add\n      tag_72\n      swap1\n      tag_73\n      jump\t// in\n    tag_72:\n      mload(0x40)\n      dup1\n      swap2\n      sub\n      swap1\n      revert\n    tag_71:\n        /* \"src/router/Router.sol\":4450:4561  {... */\n      pop\n        /* \"src/router/Router.sol\":4397:4561  function withdraw(uint256 amount) external onlyOwner {... */\n      pop\n      jump\t// out\n        /* \"src/router/Router.sol\":1087:1148  function setFee(uint f) public onlyOwner {... */\n    tag_24:\n        /* \"lib/openzeppelin-contracts-upgradeable/contracts/access/OwnableUpgradeable.sol\":1374:1387  _checkOwner() */\n      tag_75\n        /* \"lib/openzeppelin-contracts-upgradeable/contracts/access/OwnableUpgradeable.sol\":1374:1385  _checkOwner */\n      tag_63\n        /* \"lib/openzeppelin-contracts-upgradeable/contracts/access/OwnableUpgradeable.sol\":1374:1387  _checkOwner() */\n      jump\t// in\n    tag_75:\n        /* \"src/router/Router.sol\":1135:1138  fee */\n      0x67\n        /* \"src/router/Router.sol\":1135:1142  fee = f */\n      sstore\n        /* \"src/router/Router.sol\":1087:1148  function setFee(uint f) public onlyOwner {... */\n      jump\t// out\n        /* \"src/router/Router.sol\":2249:3525  function batchBorrowETH(... */\n    tag_29:\n        /* \"src/router/Router.sol\":2570:2578  uint16 i */\n      0x00\n        /* \"src/router/Router.sol\":2565:3255  for (uint16 i = 0; i < targets.length; i ++) {... */\n    tag_78:\n        /* \"src/router/Router.sol\":2588:2595  targets */\n      dup9\n        /* \"src/router/Router.sol\":2588:2602  targets.length */\n      mload\n        /* \"src/router/Router.sol\":2584:2585  i */\n      dup2\n        /* \"src/router/Router.sol\":2584:2602  i < targets.length */\n      0xffff\n      and\n      lt\n        /* \"src/router/Router.sol\":2565:3255  for (uint16 i = 0; i < targets.length; i ++) {... */\n      iszero\n      tag_79\n      jumpi\n        /* \"src/router/Router.sol\":2619:2635  address currency */\n      0x00\n        /* \"src/router/Router.sol\":2661:2668  targets */\n      dup10\n        /* \"src/router/Router.sol\":2669:2670  i */\n      dup3\n        /* \"src/router/Router.sol\":2661:2671  targets[i] */\n      0xffff\n      and\n      dup2\n      mload\n      dup2\n      lt\n      tag_82\n      jumpi\n      tag_82\n      tag_83\n      jump\t// in\n    tag_82:\n      0x20\n      mul\n      0x20\n      add\n      add\n      mload\n      sub(shl(0xa0, 0x01), 0x01)\n        /* \"src/router/Router.sol\":2638:2691  NewERC721LendingPool02(targets[i])._supportedCurrency */\n      and\n      0xfd9147ae\n        /* \"src/router/Router.sol\":2638:2693  NewERC721LendingPool02(targets[i])._supportedCurrency() */\n      mload(0x40)\n      dup2\n      0xffffffff\n      and\n      0xe0\n      shl\n      dup2\n      mstore\n      0x04\n      add\n      0x20\n      mload(0x40)\n      dup1\n      dup4\n      sub\n      dup2\n      dup7\n      dup1\n      extcodesize\n      iszero\n      dup1\n      iszero\n      tag_84\n      jumpi\n      0x00\n      dup1\n      revert\n    tag_84:\n      pop\n      gas\n      staticcall\n      iszero\n      dup1\n      iszero\n      tag_86\n      jumpi\n      returndatasize\n      0x00\n      dup1\n      returndatacopy\n      revert(0x00, returndatasize)\n    tag_86:\n      pop\n      pop\n      pop\n      pop\n      mload(0x40)\n      returndatasize\n      not(0x1f)\n      0x1f\n      dup3\n      add\n      and\n      dup3\n      add\n      dup1\n      0x40\n      mstore\n      pop\n      dup2\n      add\n      swap1\n      tag_87\n      swap2\n      swap1\n      tag_88\n      jump\t// in\n    tag_87:\n        /* \"src/router/Router.sol\":2722:2730  WETHaddr */\n      sload(0x65)\n        /* \"src/router/Router.sol\":2619:2693  address currency = NewERC721LendingPool02(targets[i])._supportedCurrency() */\n      swap1\n      swap2\n      pop\n      sub(shl(0xa0, 0x01), 0x01)\n        /* \"src/router/Router.sol\":2710:2730  currency == WETHaddr */\n      dup1\n      dup4\n      and\n        /* \"src/router/Router.sol\":2722:2730  WETHaddr */\n      swap2\n      and\n        /* \"src/router/Router.sol\":2710:2730  currency == WETHaddr */\n      eq\n        /* \"src/router/Router.sol\":2702:2754  require(currency == WETHaddr, \"only works for WETH\") */\n      tag_89\n      jumpi\n      mload(0x40)\n      shl(0xe5, 0x461bcd)\n      dup2\n      mstore\n        /* \"#utility.yul\":8884:8886   */\n      0x20\n        /* \"src/router/Router.sol\":2702:2754  require(currency == WETHaddr, \"only works for WETH\") */\n      0x04\n      dup3\n      add\n        /* \"#utility.yul\":8866:8887   */\n      mstore\n        /* \"#utility.yul\":8923:8925   */\n      0x13\n        /* \"#utility.yul\":8903:8921   */\n      0x24\n      dup3\n      add\n        /* \"#utility.yul\":8896:8926   */\n      mstore\n      shl(0x6b, 0x0dedcd8f240eedee4d6e640ccdee440ae8aa89)\n        /* \"#utility.yul\":8942:8960   */\n      0x44\n      dup3\n      add\n        /* \"#utility.yul\":8935:8984   */\n      mstore\n        /* \"#utility.yul\":9001:9019   */\n      0x64\n      add\n        /* \"src/router/Router.sol\":2702:2754  require(currency == WETHaddr, \"only works for WETH\") */\n      tag_72\n        /* \"#utility.yul\":8682:9025   */\n      jump\n        /* \"src/router/Router.sol\":2702:2754  require(currency == WETHaddr, \"only works for WETH\") */\n    tag_89:\n        /* \"src/router/Router.sol\":2763:2781  address collection */\n      0x00\n        /* \"src/router/Router.sol\":2807:2814  targets */\n      dup11\n        /* \"src/router/Router.sol\":2815:2816  i */\n      dup4\n        /* \"src/router/Router.sol\":2807:2817  targets[i] */\n      0xffff\n      and\n      dup2\n      mload\n      dup2\n      lt\n      tag_93\n      jumpi\n      tag_93\n      tag_83\n      jump\t// in\n    tag_93:\n      0x20\n      mul\n      0x20\n      add\n      add\n      mload\n      sub(shl(0xa0, 0x01), 0x01)\n        /* \"src/router/Router.sol\":2784:2839  NewERC721LendingPool02(targets[i])._supportedCollection */\n      and\n      0x94bfd7b0\n        /* \"src/router/Router.sol\":2784:2841  NewERC721LendingPool02(targets[i])._supportedCollection() */\n      mload(0x40)\n      dup2\n      0xffffffff\n      and\n      0xe0\n      shl\n      dup2\n      mstore\n      0x04\n      add\n      0x20\n      mload(0x40)\n      dup1\n      dup4\n      sub\n      dup2\n      dup7\n      dup1\n      extcodesize\n      iszero\n      dup1\n      iszero\n      tag_94\n      jumpi\n      0x00\n      dup1\n      revert\n    tag_94:\n      pop\n      gas\n      staticcall\n      iszero\n      dup1\n      iszero\n      tag_96\n      jumpi\n      returndatasize\n      0x00\n      dup1\n      returndatacopy\n      revert(0x00, returndatasize)\n    tag_96:\n      pop\n      pop\n      pop\n      pop\n      mload(0x40)\n      returndatasize\n      not(0x1f)\n      0x1f\n      dup3\n      add\n      and\n      dup3\n      add\n      dup1\n      0x40\n      mstore\n      pop\n      dup2\n      add\n      swap1\n      tag_97\n      swap2\n      swap1\n      tag_88\n      jump\t// in\n    tag_97:\n        /* \"src/router/Router.sol\":2763:2841  address collection = NewERC721LendingPool02(targets[i])._supportedCollection() */\n      swap1\n      pop\n        /* \"src/router/Router.sol\":2899:2909  msg.sender */\n      caller\n      sub(shl(0xa0, 0x01), 0x01)\n        /* \"src/router/Router.sol\":2858:2909  IERC721(collection).ownerOf(nftID[i]) == msg.sender */\n      and\n        /* \"src/router/Router.sol\":2866:2876  collection */\n      dup2\n      sub(shl(0xa0, 0x01), 0x01)\n        /* \"src/router/Router.sol\":2858:2885  IERC721(collection).ownerOf */\n      and\n      0x6352211e\n        /* \"src/router/Router.sol\":2886:2891  nftID */\n      dup12\n        /* \"src/router/Router.sol\":2892:2893  i */\n      dup7\n        /* \"src/router/Router.sol\":2886:2894  nftID[i] */\n      0xffff\n      and\n      dup2\n      mload\n      dup2\n      lt\n      tag_99\n      jumpi\n      tag_99\n      tag_83\n      jump\t// in\n    tag_99:\n      0x20\n      mul\n      0x20\n      add\n      add\n      mload\n        /* \"src/router/Router.sol\":2858:2895  IERC721(collection).ownerOf(nftID[i]) */\n      mload(0x40)\n      dup3\n      0xffffffff\n      and\n      0xe0\n      shl\n      dup2\n      mstore\n      0x04\n      add\n      tag_100\n      swap2\n        /* \"#utility.yul\":9176:9201   */\n      dup2\n      mstore\n        /* \"#utility.yul\":9164:9166   */\n      0x20\n        /* \"#utility.yul\":9149:9167   */\n      add\n      swap1\n        /* \"#utility.yul\":9030:9207   */\n      jump\n        /* \"src/router/Router.sol\":2858:2895  IERC721(collection).ownerOf(nftID[i]) */\n    tag_100:\n      0x20\n      mload(0x40)\n      dup1\n      dup4\n      sub\n      dup2\n      dup7\n      dup1\n      extcodesize\n      iszero\n      dup1\n      iszero\n      tag_102\n      jumpi\n      0x00\n      dup1\n      revert\n    tag_102:\n      pop\n      gas\n      staticcall\n      iszero\n      dup1\n      iszero\n      tag_104\n      jumpi\n      returndatasize\n      0x00\n      dup1\n      returndatacopy\n      revert(0x00, returndatasize)\n    tag_104:\n      pop\n      pop\n      pop\n      pop\n      mload(0x40)\n      returndatasize\n      not(0x1f)\n      0x1f\n      dup3\n      add\n      and\n      dup3\n      add\n      dup1\n      0x40\n      mstore\n      pop\n      dup2\n      add\n      swap1\n      tag_105\n      swap2\n      swap1\n      tag_88\n      jump\t// in\n    tag_105:\n      sub(shl(0xa0, 0x01), 0x01)\n        /* \"src/router/Router.sol\":2858:2909  IERC721(collection).ownerOf(nftID[i]) == msg.sender */\n      and\n      eq\n        /* \"src/router/Router.sol\":2850:2933  require(IERC721(collection).ownerOf(nftID[i]) == msg.sender, \"User not owning NFT\") */\n      tag_106\n      jumpi\n      mload(0x40)\n      shl(0xe5, 0x461bcd)\n      dup2\n      mstore\n        /* \"#utility.yul\":9414:9416   */\n      0x20\n        /* \"src/router/Router.sol\":2850:2933  require(IERC721(collection).ownerOf(nftID[i]) == msg.sender, \"User not owning NFT\") */\n      0x04\n      dup3\n      add\n        /* \"#utility.yul\":9396:9417   */\n      mstore\n        /* \"#utility.yul\":9453:9455   */\n      0x13\n        /* \"#utility.yul\":9433:9451   */\n      0x24\n      dup3\n      add\n        /* \"#utility.yul\":9426:9456   */\n      mstore\n      shl(0x6a, 0x155cd95c881b9bdd081bdddb9a5b99c8139195)\n        /* \"#utility.yul\":9472:9490   */\n      0x44\n      dup3\n      add\n        /* \"#utility.yul\":9465:9514   */\n      mstore\n        /* \"#utility.yul\":9531:9549   */\n      0x64\n      add\n        /* \"src/router/Router.sol\":2850:2933  require(IERC721(collection).ownerOf(nftID[i]) == msg.sender, \"User not owning NFT\") */\n      tag_72\n        /* \"#utility.yul\":9212:9555   */\n      jump\n        /* \"src/router/Router.sol\":2850:2933  require(IERC721(collection).ownerOf(nftID[i]) == msg.sender, \"User not owning NFT\") */\n    tag_106:\n        /* \"src/router/Router.sol\":2950:2960  collection */\n      dup1\n      sub(shl(0xa0, 0x01), 0x01)\n        /* \"src/router/Router.sol\":2942:2979  IERC721(collection).setApprovalForAll */\n      and\n      0xa22cb465\n        /* \"src/router/Router.sol\":2980:2987  targets */\n      dup13\n        /* \"src/router/Router.sol\":2988:2989  i */\n      dup6\n        /* \"src/router/Router.sol\":2980:2990  targets[i] */\n      0xffff\n      and\n      dup2\n      mload\n      dup2\n      lt\n      tag_110\n      jumpi\n      tag_110\n      tag_83\n      jump\t// in\n    tag_110:\n      0x20\n      swap1\n      dup2\n      mul\n      swap2\n      swap1\n      swap2\n      add\n      add\n      mload\n        /* \"src/router/Router.sol\":2942:2997  IERC721(collection).setApprovalForAll(targets[i], true) */\n      mload(0x40)\n      not(sub(shl(0xe0, 0x01), 0x01))\n      0xe0\n      dup5\n      swap1\n      shl\n      and\n      dup2\n      mstore\n      sub(shl(0xa0, 0x01), 0x01)\n        /* \"#utility.yul\":9754:9786   */\n      swap1\n      swap2\n      and\n        /* \"src/router/Router.sol\":2942:2997  IERC721(collection).setApprovalForAll(targets[i], true) */\n      0x04\n      dup3\n      add\n        /* \"#utility.yul\":9736:9787   */\n      mstore\n        /* \"src/router/Router.sol\":2992:2996  true */\n      0x01\n        /* \"#utility.yul\":9803:9821   */\n      0x24\n      dup3\n      add\n        /* \"#utility.yul\":9796:9846   */\n      mstore\n        /* \"#utility.yul\":9709:9727   */\n      0x44\n      add\n        /* \"src/router/Router.sol\":2942:2997  IERC721(collection).setApprovalForAll(targets[i], true) */\n      0x00\n      mload(0x40)\n      dup1\n      dup4\n      sub\n      dup2\n      0x00\n      dup8\n      dup1\n      extcodesize\n      iszero\n      dup1\n      iszero\n      tag_113\n      jumpi\n      0x00\n      dup1\n      revert\n    tag_113:\n      pop\n      gas\n      call\n      iszero\n      dup1\n      iszero\n      tag_115\n      jumpi\n      returndatasize\n      0x00\n      dup1\n      returndatacopy\n      revert(0x00, returndatasize)\n    tag_115:\n      pop\n      pop\n      pop\n      pop\n        /* \"src/router/Router.sol\":3014:3024  collection */\n      dup1\n      sub(shl(0xa0, 0x01), 0x01)\n        /* \"src/router/Router.sol\":3006:3038  IERC721(collection).transferFrom */\n      and\n      0x23b872dd\n        /* \"src/router/Router.sol\":3039:3049  msg.sender */\n      caller\n        /* \"src/router/Router.sol\":3059:3063  this */\n      address\n        /* \"src/router/Router.sol\":3066:3071  nftID */\n      dup13\n        /* \"src/router/Router.sol\":3072:3073  i */\n      dup8\n        /* \"src/router/Router.sol\":3066:3074  nftID[i] */\n      0xffff\n      and\n      dup2\n      mload\n      dup2\n      lt\n      tag_117\n      jumpi\n      tag_117\n      tag_83\n      jump\t// in\n    tag_117:\n      0x20\n      swap1\n      dup2\n      mul\n      swap2\n      swap1\n      swap2\n      add\n      add\n      mload\n        /* \"src/router/Router.sol\":3006:3075  IERC721(collection).transferFrom(msg.sender, address(this), nftID[i]) */\n      mload(0x40)\n      not(sub(shl(0xe0, 0x01), 0x01))\n      0xe0\n      dup7\n      swap1\n      shl\n      and\n      dup2\n      mstore\n      sub(shl(0xa0, 0x01), 0x01)\n        /* \"#utility.yul\":10115:10130   */\n      swap4\n      dup5\n      and\n        /* \"src/router/Router.sol\":3006:3075  IERC721(collection).transferFrom(msg.sender, address(this), nftID[i]) */\n      0x04\n      dup3\n      add\n        /* \"#utility.yul\":10097:10131   */\n      mstore\n        /* \"#utility.yul\":10167:10182   */\n      swap3\n      swap1\n      swap2\n      and\n        /* \"#utility.yul\":10147:10165   */\n      0x24\n      dup4\n      add\n        /* \"#utility.yul\":10140:10183   */\n      mstore\n        /* \"#utility.yul\":10199:10217   */\n      0x44\n      dup3\n      add\n        /* \"#utility.yul\":10192:10226   */\n      mstore\n        /* \"#utility.yul\":10032:10050   */\n      0x64\n      add\n        /* \"src/router/Router.sol\":3006:3075  IERC721(collection).transferFrom(msg.sender, address(this), nftID[i]) */\n      0x00\n      mload(0x40)\n      dup1\n      dup4\n      sub\n      dup2\n      0x00\n      dup8\n      dup1\n      extcodesize\n      iszero\n      dup1\n      iszero\n      tag_120\n      jumpi\n      0x00\n      dup1\n      revert\n    tag_120:\n      pop\n      gas\n      call\n      iszero\n      dup1\n      iszero\n      tag_122\n      jumpi\n      returndatasize\n      0x00\n      dup1\n      returndatacopy\n      revert(0x00, returndatasize)\n    tag_122:\n      pop\n      pop\n      pop\n      pop\n        /* \"src/router/Router.sol\":3107:3114  targets */\n      dup11\n        /* \"src/router/Router.sol\":3115:3116  i */\n      dup4\n        /* \"src/router/Router.sol\":3107:3117  targets[i] */\n      0xffff\n      and\n      dup2\n      mload\n      dup2\n      lt\n      tag_124\n      jumpi\n      tag_124\n      tag_83\n      jump\t// in\n    tag_124:\n      0x20\n      mul\n      0x20\n      add\n      add\n      mload\n      sub(shl(0xa0, 0x01), 0x01)\n        /* \"src/router/Router.sol\":3084:3125  NewERC721LendingPool02(targets[i]).borrow */\n      and\n      0x78d4c57a\n        /* \"src/router/Router.sol\":3084:3247  NewERC721LendingPool02(targets[i]).borrow([valuation[i], nftID[i], loanDurationSeconds[i], expireAtBlock[i], borrowedWei[i]], signature[i], msg.sender, pineWallet) */\n      mload(0x40)\n      dup1\n      0xa0\n      add\n      0x40\n      mstore\n      dup1\n        /* \"src/router/Router.sol\":3127:3136  valuation */\n      dup14\n        /* \"src/router/Router.sol\":3137:3138  i */\n      dup8\n        /* \"src/router/Router.sol\":3127:3139  valuation[i] */\n      0xffff\n      and\n      dup2\n      mload\n      dup2\n      lt\n      tag_126\n      jumpi\n      tag_126\n      tag_83\n      jump\t// in\n    tag_126:\n      0x20\n      mul\n      0x20\n      add\n      add\n      mload\n        /* \"src/router/Router.sol\":3084:3247  NewERC721LendingPool02(targets[i]).borrow([valuation[i], nftID[i], loanDurationSeconds[i], expireAtBlock[i], borrowedWei[i]], signature[i], msg.sender, pineWallet) */\n      dup2\n      mstore\n      0x20\n      add\n        /* \"src/router/Router.sol\":3141:3146  nftID */\n      dup13\n        /* \"src/router/Router.sol\":3147:3148  i */\n      dup8\n        /* \"src/router/Router.sol\":3141:3149  nftID[i] */\n      0xffff\n      and\n      dup2\n      mload\n      dup2\n      lt\n      tag_128\n      jumpi\n      tag_128\n      tag_83\n      jump\t// in\n    tag_128:\n      0x20\n      mul\n      0x20\n      add\n      add\n      mload\n        /* \"src/router/Router.sol\":3084:3247  NewERC721LendingPool02(targets[i]).borrow([valuation[i], nftID[i], loanDurationSeconds[i], expireAtBlock[i], borrowedWei[i]], signature[i], msg.sender, pineWallet) */\n      dup2\n      mstore\n      0x20\n      add\n        /* \"src/router/Router.sol\":3151:3170  loanDurationSeconds */\n      dup12\n        /* \"src/router/Router.sol\":3171:3172  i */\n      dup8\n        /* \"src/router/Router.sol\":3151:3173  loanDurationSeconds[i] */\n      0xffff\n      and\n      dup2\n      mload\n      dup2\n      lt\n      tag_130\n      jumpi\n      tag_130\n      tag_83\n      jump\t// in\n    tag_130:\n      0x20\n      mul\n      0x20\n      add\n      add\n      mload\n        /* \"src/router/Router.sol\":3084:3247  NewERC721LendingPool02(targets[i]).borrow([valuation[i], nftID[i], loanDurationSeconds[i], expireAtBlock[i], borrowedWei[i]], signature[i], msg.sender, pineWallet) */\n      dup2\n      mstore\n      0x20\n      add\n        /* \"src/router/Router.sol\":3175:3188  expireAtBlock */\n      dup11\n        /* \"src/router/Router.sol\":3189:3190  i */\n      dup8\n        /* \"src/router/Router.sol\":3175:3191  expireAtBlock[i] */\n      0xffff\n      and\n      dup2\n      mload\n      dup2\n      lt\n      tag_132\n      jumpi\n      tag_132\n      tag_83\n      jump\t// in\n    tag_132:\n      0x20\n      mul\n      0x20\n      add\n      add\n      mload\n        /* \"src/router/Router.sol\":3084:3247  NewERC721LendingPool02(targets[i]).borrow([valuation[i], nftID[i], loanDurationSeconds[i], expireAtBlock[i], borrowedWei[i]], signature[i], msg.sender, pineWallet) */\n      dup2\n      mstore\n      0x20\n      add\n        /* \"src/router/Router.sol\":3193:3204  borrowedWei */\n      dup10\n        /* \"src/router/Router.sol\":3205:3206  i */\n      dup8\n        /* \"src/router/Router.sol\":3193:3207  borrowedWei[i] */\n      0xffff\n      and\n      dup2\n      mload\n      dup2\n      lt\n      tag_134\n      jumpi\n      tag_134\n      tag_83\n      jump\t// in\n    tag_134:\n      0x20\n      mul\n      0x20\n      add\n      add\n      mload\n        /* \"src/router/Router.sol\":3084:3247  NewERC721LendingPool02(targets[i]).borrow([valuation[i], nftID[i], loanDurationSeconds[i], expireAtBlock[i], borrowedWei[i]], signature[i], msg.sender, pineWallet) */\n      dup2\n      mstore\n      pop\n        /* \"src/router/Router.sol\":3210:3219  signature */\n      dup8\n        /* \"src/router/Router.sol\":3220:3221  i */\n      dup7\n        /* \"src/router/Router.sol\":3210:3222  signature[i] */\n      0xffff\n      and\n      dup2\n      mload\n      dup2\n      lt\n      tag_136\n      jumpi\n      tag_136\n      tag_83\n      jump\t// in\n    tag_136:\n      0x20\n      mul\n      0x20\n      add\n      add\n      mload\n        /* \"src/router/Router.sol\":3224:3234  msg.sender */\n      caller\n        /* \"src/router/Router.sol\":3236:3246  pineWallet */\n      dup9\n        /* \"src/router/Router.sol\":3084:3247  NewERC721LendingPool02(targets[i]).borrow([valuation[i], nftID[i], loanDurationSeconds[i], expireAtBlock[i], borrowedWei[i]], signature[i], msg.sender, pineWallet) */\n      mload(0x40)\n      dup6\n      0xffffffff\n      and\n      0xe0\n      shl\n      dup2\n      mstore\n      0x04\n      add\n      tag_137\n      swap5\n      swap4\n      swap3\n      swap2\n      swap1\n      tag_138\n      jump\t// in\n    tag_137:\n      0x20\n      mload(0x40)\n      dup1\n      dup4\n      sub\n      dup2\n      0x00\n      dup8\n      dup1\n      extcodesize\n      iszero\n      dup1\n      iszero\n      tag_139\n      jumpi\n      0x00\n      dup1\n      revert\n    tag_139:\n      pop\n      gas\n      call\n      iszero\n      dup1\n      iszero\n      tag_141\n      jumpi\n      returndatasize\n      0x00\n      dup1\n      returndatacopy\n      revert(0x00, returndatasize)\n    tag_141:\n      pop\n      pop\n      pop\n      pop\n      mload(0x40)\n      returndatasize\n      not(0x1f)\n      0x1f\n      dup3\n      add\n      and\n      dup3\n      add\n      dup1\n      0x40\n      mstore\n      pop\n      dup2\n      add\n      swap1\n      tag_142\n      swap2\n      swap1\n      tag_143\n      jump\t// in\n    tag_142:\n      pop\n        /* \"src/router/Router.sol\":2610:3255  {... */\n      pop\n      pop\n        /* \"src/router/Router.sol\":2604:2608  i ++ */\n      dup1\n      dup1\n      tag_144\n      swap1\n      tag_145\n      jump\t// in\n    tag_144:\n      swap2\n      pop\n      pop\n        /* \"src/router/Router.sol\":2565:3255  for (uint16 i = 0; i < targets.length; i ++) {... */\n      jump(tag_78)\n    tag_79:\n      pop\n        /* \"src/router/Router.sol\":3277:3285  WETHaddr */\n      sload(0x65)\n        /* \"src/router/Router.sol\":3297:3309  controlPlane */\n      sload(0x66)\n        /* \"src/router/Router.sol\":3311:3314  fee */\n      sload(0x67)\n        /* \"src/router/Router.sol\":3263:3315  WETH9(payable(WETHaddr)).transfer(controlPlane, fee) */\n      mload(0x40)\n      shl(0xe0, 0xa9059cbb)\n      dup2\n      mstore\n      sub(shl(0xa0, 0x01), 0x01)\n        /* \"src/router/Router.sol\":3297:3309  controlPlane */\n      swap3\n      dup4\n      and\n        /* \"src/router/Router.sol\":3263:3315  WETH9(payable(WETHaddr)).transfer(controlPlane, fee) */\n      0x04\n      dup3\n      add\n        /* \"#utility.yul\":12179:12230   */\n      mstore\n        /* \"#utility.yul\":12246:12264   */\n      0x24\n      dup2\n      add\n        /* \"#utility.yul\":12239:12273   */\n      swap2\n      swap1\n      swap2\n      mstore\n        /* \"src/router/Router.sol\":3277:3285  WETHaddr */\n      swap2\n      and\n      swap1\n        /* \"src/router/Router.sol\":3263:3296  WETH9(payable(WETHaddr)).transfer */\n      0xa9059cbb\n      swap1\n        /* \"#utility.yul\":12152:12170   */\n      0x44\n      add\n        /* \"src/router/Router.sol\":3263:3315  WETH9(payable(WETHaddr)).transfer(controlPlane, fee) */\n      0x20\n      mload(0x40)\n      dup1\n      dup4\n      sub\n      dup2\n      0x00\n      dup8\n      dup1\n      extcodesize\n      iszero\n      dup1\n      iszero\n      tag_148\n      jumpi\n      0x00\n      dup1\n      revert\n    tag_148:\n      pop\n      gas\n      call\n      iszero\n      dup1\n      iszero\n      tag_150\n      jumpi\n      returndatasize\n      0x00\n      dup1\n      returndatacopy\n      revert(0x00, returndatasize)\n    tag_150:\n      pop\n      pop\n      pop\n      pop\n      mload(0x40)\n      returndatasize\n      not(0x1f)\n      0x1f\n      dup3\n      add\n      and\n      dup3\n      add\n      dup1\n      0x40\n      mstore\n      pop\n      dup2\n      add\n      swap1\n      tag_151\n      swap2\n      swap1\n      tag_143\n      jump\t// in\n    tag_151:\n      pop\n        /* \"src/router/Router.sol\":3338:3346  WETHaddr */\n      sload(0x65)\n        /* \"src/router/Router.sol\":3358:3399  IERC20(WETHaddr).balanceOf(address(this)) */\n      mload(0x40)\n      shl(0xe0, 0x70a08231)\n      dup2\n      mstore\n        /* \"src/router/Router.sol\":3393:3397  this */\n      address\n        /* \"src/router/Router.sol\":3358:3399  IERC20(WETHaddr).balanceOf(address(this)) */\n      0x04\n      dup3\n      add\n        /* \"#utility.yul\":6178:6229   */\n      mstore\n      sub(shl(0xa0, 0x01), 0x01)\n        /* \"src/router/Router.sol\":3338:3346  WETHaddr */\n      swap1\n      swap2\n      and\n      swap1\n        /* \"src/router/Router.sol\":3324:3357  WETH9(payable(WETHaddr)).withdraw */\n      0x2e1a7d4d\n      swap1\n        /* \"src/router/Router.sol\":3338:3346  WETHaddr */\n      dup3\n      swap1\n        /* \"src/router/Router.sol\":3358:3384  IERC20(WETHaddr).balanceOf */\n      0x70a08231\n      swap1\n        /* \"#utility.yul\":6151:6169   */\n      0x24\n      add\n        /* \"src/router/Router.sol\":3358:3399  IERC20(WETHaddr).balanceOf(address(this)) */\n      0x20\n      mload(0x40)\n      dup1\n      dup4\n      sub\n      dup2\n      dup7\n      dup1\n      extcodesize\n      iszero\n      dup1\n      iszero\n      tag_153\n      jumpi\n      0x00\n      dup1\n      revert\n    tag_153:\n      pop\n      gas\n      staticcall\n      iszero\n      dup1\n      iszero\n      tag_155\n      jumpi\n      returndatasize\n      0x00\n      dup1\n      returndatacopy\n      revert(0x00, returndatasize)\n    tag_155:\n      pop\n      pop\n      pop\n      pop\n      mload(0x40)\n      returndatasize\n      not(0x1f)\n      0x1f\n      dup3\n      add\n      and\n      dup3\n      add\n      dup1\n      0x40\n      mstore\n      pop\n      dup2\n      add\n      swap1\n      tag_156\n      swap2\n      swap1\n      tag_157\n      jump\t// in\n    tag_156:\n        /* \"src/router/Router.sol\":3324:3400  WETH9(payable(WETHaddr)).withdraw(IERC20(WETHaddr).balanceOf(address(this))) */\n      mload(0x40)\n      dup3\n      0xffffffff\n      and\n      0xe0\n      shl\n      dup2\n      mstore\n      0x04\n      add\n      tag_158\n      swap2\n        /* \"#utility.yul\":9176:9201   */\n      dup2\n      mstore\n        /* \"#utility.yul\":9164:9166   */\n      0x20\n        /* \"#utility.yul\":9149:9167   */\n      add\n      swap1\n        /* \"#utility.yul\":9030:9207   */\n      jump\n        /* \"src/router/Router.sol\":3324:3400  WETH9(payable(WETHaddr)).withdraw(IERC20(WETHaddr).balanceOf(address(this))) */\n    tag_158:\n      0x00\n      mload(0x40)\n      dup1\n      dup4\n      sub\n      dup2\n      0x00\n      dup8\n      dup1\n      extcodesize\n      iszero\n      dup1\n      iszero\n      tag_159\n      jumpi\n      0x00\n      dup1\n      revert\n    tag_159:\n      pop\n      gas\n      call\n      iszero\n      dup1\n      iszero\n      tag_161\n      jumpi\n      returndatasize\n      0x00\n      dup1\n      returndatacopy\n      revert(0x00, returndatasize)\n    tag_161:\n      pop\n      pop\n        /* \"src/router/Router.sol\":3426:3475  msg.sender.call{value: address(this).balance}(\"\") */\n      mload(0x40)\n        /* \"src/router/Router.sol\":3408:3420  bool success */\n      0x00\n      swap3\n      pop\n        /* \"src/router/Router.sol\":3426:3436  msg.sender */\n      caller\n      swap2\n      pop\n        /* \"src/router/Router.sol\":3449:3470  address(this).balance */\n      selfbalance\n      swap1\n        /* \"src/router/Router.sol\":3408:3420  bool success */\n      dup4\n        /* \"src/router/Router.sol\":3426:3475  msg.sender.call{value: address(this).balance}(\"\") */\n      dup2\n        /* \"src/router/Router.sol\":3408:3420  bool success */\n      dup2\n        /* \"src/router/Router.sol\":3426:3475  msg.sender.call{value: address(this).balance}(\"\") */\n      dup2\n        /* \"src/router/Router.sol\":3449:3470  address(this).balance */\n      dup6\n        /* \"src/router/Router.sol\":3426:3436  msg.sender */\n      dup8\n        /* \"src/router/Router.sol\":3426:3475  msg.sender.call{value: address(this).balance}(\"\") */\n      gas\n      call\n      swap3\n      pop\n      pop\n      pop\n      returndatasize\n      dup1\n      0x00\n      dup2\n      eq\n      tag_165\n      jumpi\n      mload(0x40)\n      swap2\n      pop\n      and(add(returndatasize, 0x3f), not(0x1f))\n      dup3\n      add\n      0x40\n      mstore\n      returndatasize\n      dup3\n      mstore\n      returndatasize\n      0x00\n      0x20\n      dup5\n      add\n      returndatacopy\n      jump(tag_164)\n    tag_165:\n      0x60\n      swap2\n      pop\n    tag_164:\n      pop\n        /* \"src/router/Router.sol\":3407:3475  (bool success, ) = msg.sender.call{value: address(this).balance}(\"\") */\n      pop\n      swap1\n      pop\n        /* \"src/router/Router.sol\":3490:3497  success */\n      dup1\n        /* \"src/router/Router.sol\":3482:3519  require(success, \"cannot send ether\") */\n      tag_166\n      jumpi\n      mload(0x40)\n      shl(0xe5, 0x461bcd)\n      dup2\n      mstore\n      0x04\n      add\n      tag_72\n      swap1\n      tag_73\n      jump\t// in\n    tag_166:\n        /* \"src/router/Router.sol\":2558:3525  {... */\n      pop\n        /* \"src/router/Router.sol\":2249:3525  function batchBorrowETH(... */\n      pop\n      pop\n      pop\n      pop\n      pop\n      pop\n      pop\n      pop\n      jump\t// out\n        /* \"lib/openzeppelin-contracts-upgradeable/contracts/access/OwnableUpgradeable.sol\":2136:2239  function renounceOwnership() public virtual onlyOwner {... */\n    tag_32:\n        /* \"lib/openzeppelin-contracts-upgradeable/contracts/access/OwnableUpgradeable.sol\":1374:1387  _checkOwner() */\n      tag_169\n        /* \"lib/openzeppelin-contracts-upgradeable/contracts/access/OwnableUpgradeable.sol\":1374:1385  _checkOwner */\n      tag_63\n        /* \"lib/openzeppelin-contracts-upgradeable/contracts/access/OwnableUpgradeable.sol\":1374:1387  _checkOwner() */\n      jump\t// in\n    tag_169:\n        /* \"lib/openzeppelin-contracts-upgradeable/contracts/access/OwnableUpgradeable.sol\":2201:2231  _transferOwnership(address(0)) */\n      tag_171\n        /* \"lib/openzeppelin-contracts-upgradeable/contracts/access/OwnableUpgradeable.sol\":2228:2229  0 */\n      0x00\n        /* \"lib/openzeppelin-contracts-upgradeable/contracts/access/OwnableUpgradeable.sol\":2201:2219  _transferOwnership */\n      tag_172\n        /* \"lib/openzeppelin-contracts-upgradeable/contracts/access/OwnableUpgradeable.sol\":2201:2231  _transferOwnership(address(0)) */\n      jump\t// in\n    tag_171:\n        /* \"lib/openzeppelin-contracts-upgradeable/contracts/access/OwnableUpgradeable.sol\":2136:2239  function renounceOwnership() public virtual onlyOwner {... */\n      jump\t// out\n        /* \"src/router/Router.sol\":4567:4700  function withdrawERC20(address currency, uint256 amount) external onlyOwner {... */\n    tag_42:\n        /* \"lib/openzeppelin-contracts-upgradeable/contracts/access/OwnableUpgradeable.sol\":1374:1387  _checkOwner() */\n      tag_175\n        /* \"lib/openzeppelin-contracts-upgradeable/contracts/access/OwnableUpgradeable.sol\":1374:1385  _checkOwner */\n      tag_63\n        /* \"lib/openzeppelin-contracts-upgradeable/contracts/access/OwnableUpgradeable.sol\":1374:1387  _checkOwner() */\n      jump\t// in\n    tag_175:\n        /* \"src/router/Router.sol\":4659:4667  currency */\n      dup2\n      sub(shl(0xa0, 0x01), 0x01)\n        /* \"src/router/Router.sol\":4652:4677  IERC20(currency).transfer */\n      and\n      0xa9059cbb\n        /* \"src/router/Router.sol\":4678:4685  owner() */\n      tag_177\n        /* \"lib/openzeppelin-contracts-upgradeable/contracts/access/OwnableUpgradeable.sol\":1561:1567  _owner */\n      and(sub(shl(0xa0, 0x01), 0x01), sload(0x33))\n      swap1\n        /* \"lib/openzeppelin-contracts-upgradeable/contracts/access/OwnableUpgradeable.sol\":1488:1575  function owner() public view virtual returns (address) {... */\n      jump\n        /* \"src/router/Router.sol\":4678:4685  owner() */\n    tag_177:\n        /* \"src/router/Router.sol\":4652:4694  IERC20(currency).transfer(owner(), amount) */\n      mload(0x40)\n      not(sub(shl(0xe0, 0x01), 0x01))\n      0xe0\n      dup5\n      swap1\n      shl\n      and\n      dup2\n      mstore\n      sub(shl(0xa0, 0x01), 0x01)\n        /* \"#utility.yul\":12197:12229   */\n      swap1\n      swap2\n      and\n        /* \"src/router/Router.sol\":4652:4694  IERC20(currency).transfer(owner(), amount) */\n      0x04\n      dup3\n      add\n        /* \"#utility.yul\":12179:12230   */\n      mstore\n        /* \"#utility.yul\":12246:12264   */\n      0x24\n      dup2\n      add\n        /* \"#utility.yul\":12239:12273   */\n      dup5\n      swap1\n      mstore\n        /* \"#utility.yul\":12152:12170   */\n      0x44\n      add\n        /* \"src/router/Router.sol\":4652:4694  IERC20(currency).transfer(owner(), amount) */\n      0x20\n      mload(0x40)\n      dup1\n      dup4\n      sub\n      dup2\n      0x00\n      dup8\n      dup1\n      extcodesize\n      iszero\n      dup1\n      iszero\n      tag_180\n      jumpi\n      0x00\n      dup1\n      revert\n    tag_180:\n      pop\n      gas\n      call\n      iszero\n      dup1\n      iszero\n      tag_182\n      jumpi\n      returndatasize\n      0x00\n      dup1\n      returndatacopy\n      revert(0x00, returndatasize)\n    tag_182:\n      pop\n      pop\n      pop\n      pop\n      mload(0x40)\n      returndatasize\n      not(0x1f)\n      0x1f\n      dup3\n      add\n      and\n      dup3\n      add\n      dup1\n      0x40\n      mstore\n      pop\n      dup2\n      add\n      swap1\n      tag_183\n      swap2\n      swap1\n      tag_143\n      jump\t// in\n    tag_183:\n      pop\n        /* \"src/router/Router.sol\":4567:4700  function withdrawERC20(address currency, uint256 amount) external onlyOwner {... */\n      pop\n      pop\n      jump\t// out\n        /* \"src/router/Router.sol\":1154:2243  function batchBorrow(... */\n    tag_46:\n        /* \"src/router/Router.sol\":1472:1480  uint16 i */\n      0x00\n        /* \"src/router/Router.sol\":1467:2238  for (uint16 i = 0; i < targets.length; i ++) {... */\n    tag_185:\n        /* \"src/router/Router.sol\":1490:1497  targets */\n      dup9\n        /* \"src/router/Router.sol\":1490:1504  targets.length */\n      mload\n        /* \"src/router/Router.sol\":1486:1487  i */\n      dup2\n        /* \"src/router/Router.sol\":1486:1504  i < targets.length */\n      0xffff\n      and\n      lt\n        /* \"src/router/Router.sol\":1467:2238  for (uint16 i = 0; i < targets.length; i ++) {... */\n      iszero\n      tag_166\n      jumpi\n        /* \"src/router/Router.sol\":1521:1537  address currency */\n      0x00\n        /* \"src/router/Router.sol\":1563:1570  targets */\n      dup10\n        /* \"src/router/Router.sol\":1571:1572  i */\n      dup3\n        /* \"src/router/Router.sol\":1563:1573  targets[i] */\n      0xffff\n      and\n      dup2\n      mload\n      dup2\n      lt\n      tag_189\n      jumpi\n      tag_189\n      tag_83\n      jump\t// in\n    tag_189:\n      0x20\n      mul\n      0x20\n      add\n      add\n      mload\n      sub(shl(0xa0, 0x01), 0x01)\n        /* \"src/router/Router.sol\":1540:1593  NewERC721LendingPool02(targets[i])._supportedCurrency */\n      and\n      0xfd9147ae\n        /* \"src/router/Router.sol\":1540:1595  NewERC721LendingPool02(targets[i])._supportedCurrency() */\n      mload(0x40)\n      dup2\n      0xffffffff\n      and\n      0xe0\n      shl\n      dup2\n      mstore\n      0x04\n      add\n      0x20\n      mload(0x40)\n      dup1\n      dup4\n      sub\n      dup2\n      dup7\n      dup1\n      extcodesize\n      iszero\n      dup1\n      iszero\n      tag_190\n      jumpi\n      0x00\n      dup1\n      revert\n    tag_190:\n      pop\n      gas\n      staticcall\n      iszero\n      dup1\n      iszero\n      tag_192\n      jumpi\n      returndatasize\n      0x00\n      dup1\n      returndatacopy\n      revert(0x00, returndatasize)\n    tag_192:\n      pop\n      pop\n      pop\n      pop\n      mload(0x40)\n      returndatasize\n      not(0x1f)\n      0x1f\n      dup3\n      add\n      and\n      dup3\n      add\n      dup1\n      0x40\n      mstore\n      pop\n      dup2\n      add\n      swap1\n      tag_193\n      swap2\n      swap1\n      tag_88\n      jump\t// in\n    tag_193:\n        /* \"src/router/Router.sol\":1521:1595  address currency = NewERC721LendingPool02(targets[i])._supportedCurrency() */\n      swap1\n      pop\n        /* \"src/router/Router.sol\":1604:1622  address collection */\n      0x00\n        /* \"src/router/Router.sol\":1648:1655  targets */\n      dup11\n        /* \"src/router/Router.sol\":1656:1657  i */\n      dup4\n        /* \"src/router/Router.sol\":1648:1658  targets[i] */\n      0xffff\n      and\n      dup2\n      mload\n      dup2\n      lt\n      tag_195\n      jumpi\n      tag_195\n      tag_83\n      jump\t// in\n    tag_195:\n      0x20\n      mul\n      0x20\n      add\n      add\n      mload\n      sub(shl(0xa0, 0x01), 0x01)\n        /* \"src/router/Router.sol\":1625:1680  NewERC721LendingPool02(targets[i])._supportedCollection */\n      and\n      0x94bfd7b0\n        /* \"src/router/Router.sol\":1625:1682  NewERC721LendingPool02(targets[i])._supportedCollection() */\n      mload(0x40)\n      dup2\n      0xffffffff\n      and\n      0xe0\n      shl\n      dup2\n      mstore\n      0x04\n      add\n      0x20\n      mload(0x40)\n      dup1\n      dup4\n      sub\n      dup2\n      dup7\n      dup1\n      extcodesize\n      iszero\n      dup1\n      iszero\n      tag_196\n      jumpi\n      0x00\n      dup1\n      revert\n    tag_196:\n      pop\n      gas\n      staticcall\n      iszero\n      dup1\n      iszero\n      tag_198\n      jumpi\n      returndatasize\n      0x00\n      dup1\n      returndatacopy\n      revert(0x00, returndatasize)\n    tag_198:\n      pop\n      pop\n      pop\n      pop\n      mload(0x40)\n      returndatasize\n      not(0x1f)\n      0x1f\n      dup3\n      add\n      and\n      dup3\n      add\n      dup1\n      0x40\n      mstore\n      pop\n      dup2\n      add\n      swap1\n      tag_199\n      swap2\n      swap1\n      tag_88\n      jump\t// in\n    tag_199:\n        /* \"src/router/Router.sol\":1604:1682  address collection = NewERC721LendingPool02(targets[i])._supportedCollection() */\n      swap1\n      pop\n        /* \"src/router/Router.sol\":1740:1750  msg.sender */\n      caller\n      sub(shl(0xa0, 0x01), 0x01)\n        /* \"src/router/Router.sol\":1699:1750  IERC721(collection).ownerOf(nftID[i]) == msg.sender */\n      and\n        /* \"src/router/Router.sol\":1707:1717  collection */\n      dup2\n      sub(shl(0xa0, 0x01), 0x01)\n        /* \"src/router/Router.sol\":1699:1726  IERC721(collection).ownerOf */\n      and\n      0x6352211e\n        /* \"src/router/Router.sol\":1727:1732  nftID */\n      dup12\n        /* \"src/router/Router.sol\":1733:1734  i */\n      dup7\n        /* \"src/router/Router.sol\":1727:1735  nftID[i] */\n      0xffff\n      and\n      dup2\n      mload\n      dup2\n      lt\n      tag_201\n      jumpi\n      tag_201\n      tag_83\n      jump\t// in\n    tag_201:\n      0x20\n      mul\n      0x20\n      add\n      add\n      mload\n        /* \"src/router/Router.sol\":1699:1736  IERC721(collection).ownerOf(nftID[i]) */\n      mload(0x40)\n      dup3\n      0xffffffff\n      and\n      0xe0\n      shl\n      dup2\n      mstore\n      0x04\n      add\n      tag_202\n      swap2\n        /* \"#utility.yul\":9176:9201   */\n      dup2\n      mstore\n        /* \"#utility.yul\":9164:9166   */\n      0x20\n        /* \"#utility.yul\":9149:9167   */\n      add\n      swap1\n        /* \"#utility.yul\":9030:9207   */\n      jump\n        /* \"src/router/Router.sol\":1699:1736  IERC721(collection).ownerOf(nftID[i]) */\n    tag_202:\n      0x20\n      mload(0x40)\n      dup1\n      dup4\n      sub\n      dup2\n      dup7\n      dup1\n      extcodesize\n      iszero\n      dup1\n      iszero\n      tag_203\n      jumpi\n      0x00\n      dup1\n      revert\n    tag_203:\n      pop\n      gas\n      staticcall\n      iszero\n      dup1\n      iszero\n      tag_205\n      jumpi\n      returndatasize\n      0x00\n      dup1\n      returndatacopy\n      revert(0x00, returndatasize)\n    tag_205:\n      pop\n      pop\n      pop\n      pop\n      mload(0x40)\n      returndatasize\n      not(0x1f)\n      0x1f\n      dup3\n      add\n      and\n      dup3\n      add\n      dup1\n      0x40\n      mstore\n      pop\n      dup2\n      add\n      swap1\n      tag_206\n      swap2\n      swap1\n      tag_88\n      jump\t// in\n    tag_206:\n      sub(shl(0xa0, 0x01), 0x01)\n        /* \"src/router/Router.sol\":1699:1750  IERC721(collection).ownerOf(nftID[i]) == msg.sender */\n      and\n      eq\n        /* \"src/router/Router.sol\":1691:1774  require(IERC721(collection).ownerOf(nftID[i]) == msg.sender, \"User not owning NFT\") */\n      tag_207\n      jumpi\n      mload(0x40)\n      shl(0xe5, 0x461bcd)\n      dup2\n      mstore\n        /* \"#utility.yul\":9414:9416   */\n      0x20\n        /* \"src/router/Router.sol\":1691:1774  require(IERC721(collection).ownerOf(nftID[i]) == msg.sender, \"User not owning NFT\") */\n      0x04\n      dup3\n      add\n        /* \"#utility.yul\":9396:9417   */\n      mstore\n        /* \"#utility.yul\":9453:9455   */\n      0x13\n        /* \"#utility.yul\":9433:9451   */\n      0x24\n      dup3\n      add\n        /* \"#utility.yul\":9426:9456   */\n      mstore\n      shl(0x6a, 0x155cd95c881b9bdd081bdddb9a5b99c8139195)\n        /* \"#utility.yul\":9472:9490   */\n      0x44\n      dup3\n      add\n        /* \"#utility.yul\":9465:9514   */\n      mstore\n        /* \"#utility.yul\":9531:9549   */\n      0x64\n      add\n        /* \"src/router/Router.sol\":1691:1774  require(IERC721(collection).ownerOf(nftID[i]) == msg.sender, \"User not owning NFT\") */\n      tag_72\n        /* \"#utility.yul\":9212:9555   */\n      jump\n        /* \"src/router/Router.sol\":1691:1774  require(IERC721(collection).ownerOf(nftID[i]) == msg.sender, \"User not owning NFT\") */\n    tag_207:\n        /* \"src/router/Router.sol\":1791:1801  collection */\n      dup1\n      sub(shl(0xa0, 0x01), 0x01)\n        /* \"src/router/Router.sol\":1783:1820  IERC721(collection).setApprovalForAll */\n      and\n      0xa22cb465\n        /* \"src/router/Router.sol\":1821:1828  targets */\n      dup13\n        /* \"src/router/Router.sol\":1829:1830  i */\n      dup6\n        /* \"src/router/Router.sol\":1821:1831  targets[i] */\n      0xffff\n      and\n      dup2\n      mload\n      dup2\n      lt\n      tag_210\n      jumpi\n      tag_210\n      tag_83\n      jump\t// in\n    tag_210:\n      0x20\n      swap1\n      dup2\n      mul\n      swap2\n      swap1\n      swap2\n      add\n      add\n      mload\n        /* \"src/router/Router.sol\":1783:1838  IERC721(collection).setApprovalForAll(targets[i], true) */\n      mload(0x40)\n      not(sub(shl(0xe0, 0x01), 0x01))\n      0xe0\n      dup5\n      swap1\n      shl\n      and\n      dup2\n      mstore\n      sub(shl(0xa0, 0x01), 0x01)\n        /* \"#utility.yul\":9754:9786   */\n      swap1\n      swap2\n      and\n        /* \"src/router/Router.sol\":1783:1838  IERC721(collection).setApprovalForAll(targets[i], true) */\n      0x04\n      dup3\n      add\n        /* \"#utility.yul\":9736:9787   */\n      mstore\n        /* \"src/router/Router.sol\":1833:1837  true */\n      0x01\n        /* \"#utility.yul\":9803:9821   */\n      0x24\n      dup3\n      add\n        /* \"#utility.yul\":9796:9846   */\n      mstore\n        /* \"#utility.yul\":9709:9727   */\n      0x44\n      add\n        /* \"src/router/Router.sol\":1783:1838  IERC721(collection).setApprovalForAll(targets[i], true) */\n      0x00\n      mload(0x40)\n      dup1\n      dup4\n      sub\n      dup2\n      0x00\n      dup8\n      dup1\n      extcodesize\n      iszero\n      dup1\n      iszero\n      tag_212\n      jumpi\n      0x00\n      dup1\n      revert\n    tag_212:\n      pop\n      gas\n      call\n      iszero\n      dup1\n      iszero\n      tag_214\n      jumpi\n      returndatasize\n      0x00\n      dup1\n      returndatacopy\n      revert(0x00, returndatasize)\n    tag_214:\n      pop\n      pop\n      pop\n      pop\n        /* \"src/router/Router.sol\":1855:1865  collection */\n      dup1\n      sub(shl(0xa0, 0x01), 0x01)\n        /* \"src/router/Router.sol\":1847:1879  IERC721(collection).transferFrom */\n      and\n      0x23b872dd\n        /* \"src/router/Router.sol\":1880:1890  msg.sender */\n      caller\n        /* \"src/router/Router.sol\":1900:1904  this */\n      address\n        /* \"src/router/Router.sol\":1907:1912  nftID */\n      dup13\n        /* \"src/router/Router.sol\":1913:1914  i */\n      dup8\n        /* \"src/router/Router.sol\":1907:1915  nftID[i] */\n      0xffff\n      and\n      dup2\n      mload\n      dup2\n      lt\n      tag_216\n      jumpi\n      tag_216\n      tag_83\n      jump\t// in\n    tag_216:\n      0x20\n      swap1\n      dup2\n      mul\n      swap2\n      swap1\n      swap2\n      add\n      add\n      mload\n        /* \"src/router/Router.sol\":1847:1916  IERC721(collection).transferFrom(msg.sender, address(this), nftID[i]) */\n      mload(0x40)\n      not(sub(shl(0xe0, 0x01), 0x01))\n      0xe0\n      dup7\n      swap1\n      shl\n      and\n      dup2\n      mstore\n      sub(shl(0xa0, 0x01), 0x01)\n        /* \"#utility.yul\":10115:10130   */\n      swap4\n      dup5\n      and\n        /* \"src/router/Router.sol\":1847:1916  IERC721(collection).transferFrom(msg.sender, address(this), nftID[i]) */\n      0x04\n      dup3\n      add\n        /* \"#utility.yul\":10097:10131   */\n      mstore\n        /* \"#utility.yul\":10167:10182   */\n      swap3\n      swap1\n      swap2\n      and\n        /* \"#utility.yul\":10147:10165   */\n      0x24\n      dup4\n      add\n        /* \"#utility.yul\":10140:10183   */\n      mstore\n        /* \"#utility.yul\":10199:10217   */\n      0x44\n      dup3\n      add\n        /* \"#utility.yul\":10192:10226   */\n      mstore\n        /* \"#utility.yul\":10032:10050   */\n      0x64\n      add\n        /* \"src/router/Router.sol\":1847:1916  IERC721(collection).transferFrom(msg.sender, address(this), nftID[i]) */\n      0x00\n      mload(0x40)\n      dup1\n      dup4\n      sub\n      dup2\n      0x00\n      dup8\n      dup1\n      extcodesize\n      iszero\n      dup1\n      iszero\n      tag_218\n      jumpi\n      0x00\n      dup1\n      revert\n    tag_218:\n      pop\n      gas\n      call\n      iszero\n      dup1\n      iszero\n      tag_220\n      jumpi\n      returndatasize\n      0x00\n      dup1\n      returndatacopy\n      revert(0x00, returndatasize)\n    tag_220:\n      pop\n      pop\n      pop\n      pop\n        /* \"src/router/Router.sol\":1948:1955  targets */\n      dup11\n        /* \"src/router/Router.sol\":1956:1957  i */\n      dup4\n        /* \"src/router/Router.sol\":1948:1958  targets[i] */\n      0xffff\n      and\n      dup2\n      mload\n      dup2\n      lt\n      tag_222\n      jumpi\n      tag_222\n      tag_83\n      jump\t// in\n    tag_222:\n      0x20\n      mul\n      0x20\n      add\n      add\n      mload\n      sub(shl(0xa0, 0x01), 0x01)\n        /* \"src/router/Router.sol\":1925:1966  NewERC721LendingPool02(targets[i]).borrow */\n      and\n      0x78d4c57a\n        /* \"src/router/Router.sol\":1925:2088  NewERC721LendingPool02(targets[i]).borrow([valuation[i], nftID[i], loanDurationSeconds[i], expireAtBlock[i], borrowedWei[i]], signature[i], msg.sender, pineWallet) */\n      mload(0x40)\n      dup1\n      0xa0\n      add\n      0x40\n      mstore\n      dup1\n        /* \"src/router/Router.sol\":1968:1977  valuation */\n      dup14\n        /* \"src/router/Router.sol\":1978:1979  i */\n      dup8\n        /* \"src/router/Router.sol\":1968:1980  valuation[i] */\n      0xffff\n      and\n      dup2\n      mload\n      dup2\n      lt\n      tag_224\n      jumpi\n      tag_224\n      tag_83\n      jump\t// in\n    tag_224:\n      0x20\n      mul\n      0x20\n      add\n      add\n      mload\n        /* \"src/router/Router.sol\":1925:2088  NewERC721LendingPool02(targets[i]).borrow([valuation[i], nftID[i], loanDurationSeconds[i], expireAtBlock[i], borrowedWei[i]], signature[i], msg.sender, pineWallet) */\n      dup2\n      mstore\n      0x20\n      add\n        /* \"src/router/Router.sol\":1982:1987  nftID */\n      dup13\n        /* \"src/router/Router.sol\":1988:1989  i */\n      dup8\n        /* \"src/router/Router.sol\":1982:1990  nftID[i] */\n      0xffff\n      and\n      dup2\n      mload\n      dup2\n      lt\n      tag_226\n      jumpi\n      tag_226\n      tag_83\n      jump\t// in\n    tag_226:\n      0x20\n      mul\n      0x20\n      add\n      add\n      mload\n        /* \"src/router/Router.sol\":1925:2088  NewERC721LendingPool02(targets[i]).borrow([valuation[i], nftID[i], loanDurationSeconds[i], expireAtBlock[i], borrowedWei[i]], signature[i], msg.sender, pineWallet) */\n      dup2\n      mstore\n      0x20\n      add\n        /* \"src/router/Router.sol\":1992:2011  loanDurationSeconds */\n      dup12\n        /* \"src/router/Router.sol\":2012:2013  i */\n      dup8\n        /* \"src/router/Router.sol\":1992:2014  loanDurationSeconds[i] */\n      0xffff\n      and\n      dup2\n      mload\n      dup2\n      lt\n      tag_228\n      jumpi\n      tag_228\n      tag_83\n      jump\t// in\n    tag_228:\n      0x20\n      mul\n      0x20\n      add\n      add\n      mload\n        /* \"src/router/Router.sol\":1925:2088  NewERC721LendingPool02(targets[i]).borrow([valuation[i], nftID[i], loanDurationSeconds[i], expireAtBlock[i], borrowedWei[i]], signature[i], msg.sender, pineWallet) */\n      dup2\n      mstore\n      0x20\n      add\n        /* \"src/router/Router.sol\":2016:2029  expireAtBlock */\n      dup11\n        /* \"src/router/Router.sol\":2030:2031  i */\n      dup8\n        /* \"src/router/Router.sol\":2016:2032  expireAtBlock[i] */\n      0xffff\n      and\n      dup2\n      mload\n      dup2\n      lt\n      tag_230\n      jumpi\n      tag_230\n      tag_83\n      jump\t// in\n    tag_230:\n      0x20\n      mul\n      0x20\n      add\n      add\n      mload\n        /* \"src/router/Router.sol\":1925:2088  NewERC721LendingPool02(targets[i]).borrow([valuation[i], nftID[i], loanDurationSeconds[i], expireAtBlock[i], borrowedWei[i]], signature[i], msg.sender, pineWallet) */\n      dup2\n      mstore\n      0x20\n      add\n        /* \"src/router/Router.sol\":2034:2045  borrowedWei */\n      dup10\n        /* \"src/router/Router.sol\":2046:2047  i */\n      dup8\n        /* \"src/router/Router.sol\":2034:2048  borrowedWei[i] */\n      0xffff\n      and\n      dup2\n      mload\n      dup2\n      lt\n      tag_232\n      jumpi\n      tag_232\n      tag_83\n      jump\t// in\n    tag_232:\n      0x20\n      mul\n      0x20\n      add\n      add\n      mload\n        /* \"src/router/Router.sol\":1925:2088  NewERC721LendingPool02(targets[i]).borrow([valuation[i], nftID[i], loanDurationSeconds[i], expireAtBlock[i], borrowedWei[i]], signature[i], msg.sender, pineWallet) */\n      dup2\n      mstore\n      pop\n        /* \"src/router/Router.sol\":2051:2060  signature */\n      dup8\n        /* \"src/router/Router.sol\":2061:2062  i */\n      dup7\n        /* \"src/router/Router.sol\":2051:2063  signature[i] */\n      0xffff\n      and\n      dup2\n      mload\n      dup2\n      lt\n      tag_234\n      jumpi\n      tag_234\n      tag_83\n      jump\t// in\n    tag_234:\n      0x20\n      mul\n      0x20\n      add\n      add\n      mload\n        /* \"src/router/Router.sol\":2065:2075  msg.sender */\n      caller\n        /* \"src/router/Router.sol\":2077:2087  pineWallet */\n      dup9\n        /* \"src/router/Router.sol\":1925:2088  NewERC721LendingPool02(targets[i]).borrow([valuation[i], nftID[i], loanDurationSeconds[i], expireAtBlock[i], borrowedWei[i]], signature[i], msg.sender, pineWallet) */\n      mload(0x40)\n      dup6\n      0xffffffff\n      and\n      0xe0\n      shl\n      dup2\n      mstore\n      0x04\n      add\n      tag_235\n      swap5\n      swap4\n      swap3\n      swap2\n      swap1\n      tag_138\n      jump\t// in\n    tag_235:\n      0x20\n      mload(0x40)\n      dup1\n      dup4\n      sub\n      dup2\n      0x00\n      dup8\n      dup1\n      extcodesize\n      iszero\n      dup1\n      iszero\n      tag_236\n      jumpi\n      0x00\n      dup1\n      revert\n    tag_236:\n      pop\n      gas\n      call\n      iszero\n      dup1\n      iszero\n      tag_238\n      jumpi\n      returndatasize\n      0x00\n      dup1\n      returndatacopy\n      revert(0x00, returndatasize)\n    tag_238:\n      pop\n      pop\n      pop\n      pop\n      mload(0x40)\n      returndatasize\n      not(0x1f)\n      0x1f\n      dup3\n      add\n      and\n      dup3\n      add\n      dup1\n      0x40\n      mstore\n      pop\n      dup2\n      add\n      swap1\n      tag_239\n      swap2\n      swap1\n      tag_143\n      jump\t// in\n    tag_239:\n      pop\n        /* \"src/router/Router.sol\":2123:2135  controlPlane */\n      sload(0x66)\n        /* \"src/router/Router.sol\":2137:2140  fee */\n      sload(0x67)\n        /* \"src/router/Router.sol\":2097:2141  IERC20(currency).transfer(controlPlane, fee) */\n      mload(0x40)\n      shl(0xe0, 0xa9059cbb)\n      dup2\n      mstore\n      sub(shl(0xa0, 0x01), 0x01)\n        /* \"src/router/Router.sol\":2123:2135  controlPlane */\n      swap3\n      dup4\n      and\n        /* \"src/router/Router.sol\":2097:2141  IERC20(currency).transfer(controlPlane, fee) */\n      0x04\n      dup3\n      add\n        /* \"#utility.yul\":12179:12230   */\n      mstore\n        /* \"#utility.yul\":12246:12264   */\n      0x24\n      dup2\n      add\n        /* \"#utility.yul\":12239:12273   */\n      swap2\n      swap1\n      swap2\n      mstore\n        /* \"src/router/Router.sol\":2097:2122  IERC20(currency).transfer */\n      swap1\n      dup4\n      and\n      swap1\n      0xa9059cbb\n      swap1\n        /* \"#utility.yul\":12152:12170   */\n      0x44\n      add\n        /* \"src/router/Router.sol\":2097:2141  IERC20(currency).transfer(controlPlane, fee) */\n      0x20\n      mload(0x40)\n      dup1\n      dup4\n      sub\n      dup2\n      0x00\n      dup8\n      dup1\n      extcodesize\n      iszero\n      dup1\n      iszero\n      tag_241\n      jumpi\n      0x00\n      dup1\n      revert\n    tag_241:\n      pop\n      gas\n      call\n      iszero\n      dup1\n      iszero\n      tag_243\n      jumpi\n      returndatasize\n      0x00\n      dup1\n      returndatacopy\n      revert(0x00, returndatasize)\n    tag_243:\n      pop\n      pop\n      pop\n      pop\n      mload(0x40)\n      returndatasize\n      not(0x1f)\n      0x1f\n      dup3\n      add\n      and\n      dup3\n      add\n      dup1\n      0x40\n      mstore\n      pop\n      dup2\n      add\n      swap1\n      tag_244\n      swap2\n      swap1\n      tag_143\n      jump\t// in\n    tag_244:\n      pop\n        /* \"src/router/Router.sol\":2188:2229  IERC20(currency).balanceOf(address(this)) */\n      mload(0x40)\n      shl(0xe0, 0x70a08231)\n      dup2\n      mstore\n        /* \"src/router/Router.sol\":2223:2227  this */\n      address\n        /* \"src/router/Router.sol\":2188:2229  IERC20(currency).balanceOf(address(this)) */\n      0x04\n      dup3\n      add\n        /* \"#utility.yul\":6178:6229   */\n      mstore\n      sub(shl(0xa0, 0x01), 0x01)\n        /* \"src/router/Router.sol\":2150:2175  IERC20(currency).transfer */\n      dup4\n      and\n      swap1\n      0xa9059cbb\n      swap1\n        /* \"src/router/Router.sol\":2176:2186  msg.sender */\n      caller\n      swap1\n        /* \"src/router/Router.sol\":2150:2175  IERC20(currency).transfer */\n      dup4\n      swap1\n        /* \"src/router/Router.sol\":2188:2214  IERC20(currency).balanceOf */\n      0x70a08231\n      swap1\n        /* \"#utility.yul\":6151:6169   */\n      0x24\n      add\n        /* \"src/router/Router.sol\":2188:2229  IERC20(currency).balanceOf(address(this)) */\n      0x20\n      mload(0x40)\n      dup1\n      dup4\n      sub\n      dup2\n      dup7\n      dup1\n      extcodesize\n      iszero\n      dup1\n      iszero\n      tag_246\n      jumpi\n      0x00\n      dup1\n      revert\n    tag_246:\n      pop\n      gas\n      staticcall\n      iszero\n      dup1\n      iszero\n      tag_248\n      jumpi\n      returndatasize\n      0x00\n      dup1\n      returndatacopy\n      revert(0x00, returndatasize)\n    tag_248:\n      pop\n      pop\n      pop\n      pop\n      mload(0x40)\n      returndatasize\n      not(0x1f)\n      0x1f\n      dup3\n      add\n      and\n      dup3\n      add\n      dup1\n      0x40\n      mstore\n      pop\n      dup2\n      add\n      swap1\n      tag_249\n      swap2\n      swap1\n      tag_157\n      jump\t// in\n    tag_249:\n        /* \"src/router/Router.sol\":2150:2230  IERC20(currency).transfer(msg.sender, IERC20(currency).balanceOf(address(this))) */\n      mload(0x40)\n      not(sub(shl(0xe0, 0x01), 0x01))\n      0xe0\n      dup6\n      swap1\n      shl\n      and\n      dup2\n      mstore\n      sub(shl(0xa0, 0x01), 0x01)\n        /* \"#utility.yul\":12197:12229   */\n      swap1\n      swap3\n      and\n        /* \"src/router/Router.sol\":2150:2230  IERC20(currency).transfer(msg.sender, IERC20(currency).balanceOf(address(this))) */\n      0x04\n      dup4\n      add\n        /* \"#utility.yul\":12179:12230   */\n      mstore\n        /* \"#utility.yul\":12246:12264   */\n      0x24\n      dup3\n      add\n        /* \"#utility.yul\":12239:12273   */\n      mstore\n        /* \"#utility.yul\":12152:12170   */\n      0x44\n      add\n        /* \"src/router/Router.sol\":2150:2230  IERC20(currency).transfer(msg.sender, IERC20(currency).balanceOf(address(this))) */\n      0x20\n      mload(0x40)\n      dup1\n      dup4\n      sub\n      dup2\n      0x00\n      dup8\n      dup1\n      extcodesize\n      iszero\n      dup1\n      iszero\n      tag_251\n      jumpi\n      0x00\n      dup1\n      revert\n    tag_251:\n      pop\n      gas\n      call\n      iszero\n      dup1\n      iszero\n      tag_253\n      jumpi\n      returndatasize\n      0x00\n      dup1\n      returndatacopy\n      revert(0x00, returndatasize)\n    tag_253:\n      pop\n      pop\n      pop\n      pop\n      mload(0x40)\n      returndatasize\n      not(0x1f)\n      0x1f\n      dup3\n      add\n      and\n      dup3\n      add\n      dup1\n      0x40\n      mstore\n      pop\n      dup2\n      add\n      swap1\n      tag_254\n      swap2\n      swap1\n      tag_143\n      jump\t// in\n    tag_254:\n      pop\n        /* \"src/router/Router.sol\":1512:2238  {... */\n      pop\n      pop\n        /* \"src/router/Router.sol\":1506:1510  i ++ */\n      dup1\n      dup1\n      tag_255\n      swap1\n      tag_145\n      jump\t// in\n    tag_255:\n      swap2\n      pop\n      pop\n        /* \"src/router/Router.sol\":1467:2238  for (uint16 i = 0; i < targets.length; i ++) {... */\n      jump(tag_185)\n        /* \"src/router/Router.sol\":3531:4202  function repayETH(address payable target, uint nftID, address pineWallet) payable public {... */\n    tag_50:\n        /* \"src/router/Router.sol\":3627:3643  address currency */\n      0x00\n        /* \"src/router/Router.sol\":3669:3675  target */\n      dup4\n      sub(shl(0xa0, 0x01), 0x01)\n        /* \"src/router/Router.sol\":3646:3695  NewERC721LendingPool02(target)._supportedCurrency */\n      and\n      0xfd9147ae\n        /* \"src/router/Router.sol\":3646:3697  NewERC721LendingPool02(target)._supportedCurrency() */\n      mload(0x40)\n      dup2\n      0xffffffff\n      and\n      0xe0\n      shl\n      dup2\n      mstore\n      0x04\n      add\n      0x20\n      mload(0x40)\n      dup1\n      dup4\n      sub\n      dup2\n      dup7\n      dup1\n      extcodesize\n      iszero\n      dup1\n      iszero\n      tag_257\n      jumpi\n      0x00\n      dup1\n      revert\n    tag_257:\n      pop\n      gas\n      staticcall\n      iszero\n      dup1\n      iszero\n      tag_259\n      jumpi\n      returndatasize\n      0x00\n      dup1\n      returndatacopy\n      revert(0x00, returndatasize)\n    tag_259:\n      pop\n      pop\n      pop\n      pop\n      mload(0x40)\n      returndatasize\n      not(0x1f)\n      0x1f\n      dup3\n      add\n      and\n      dup3\n      add\n      dup1\n      0x40\n      mstore\n      pop\n      dup2\n      add\n      swap1\n      tag_260\n      swap2\n      swap1\n      tag_88\n      jump\t// in\n    tag_260:\n        /* \"src/router/Router.sol\":3724:3732  WETHaddr */\n      sload(0x65)\n        /* \"src/router/Router.sol\":3627:3697  address currency = NewERC721LendingPool02(target)._supportedCurrency() */\n      swap1\n      swap2\n      pop\n      sub(shl(0xa0, 0x01), 0x01)\n        /* \"src/router/Router.sol\":3712:3732  currency == WETHaddr */\n      dup1\n      dup4\n      and\n        /* \"src/router/Router.sol\":3724:3732  WETHaddr */\n      swap2\n      and\n        /* \"src/router/Router.sol\":3712:3732  currency == WETHaddr */\n      eq\n        /* \"src/router/Router.sol\":3704:3756  require(currency == WETHaddr, \"only works for WETH\") */\n      tag_261\n      jumpi\n      mload(0x40)\n      shl(0xe5, 0x461bcd)\n      dup2\n      mstore\n        /* \"#utility.yul\":8884:8886   */\n      0x20\n        /* \"src/router/Router.sol\":3704:3756  require(currency == WETHaddr, \"only works for WETH\") */\n      0x04\n      dup3\n      add\n        /* \"#utility.yul\":8866:8887   */\n      mstore\n        /* \"#utility.yul\":8923:8925   */\n      0x13\n        /* \"#utility.yul\":8903:8921   */\n      0x24\n      dup3\n      add\n        /* \"#utility.yul\":8896:8926   */\n      mstore\n      shl(0x6b, 0x0dedcd8f240eedee4d6e640ccdee440ae8aa89)\n        /* \"#utility.yul\":8942:8960   */\n      0x44\n      dup3\n      add\n        /* \"#utility.yul\":8935:8984   */\n      mstore\n        /* \"#utility.yul\":9001:9019   */\n      0x64\n      add\n        /* \"src/router/Router.sol\":3704:3756  require(currency == WETHaddr, \"only works for WETH\") */\n      tag_72\n        /* \"#utility.yul\":8682:9025   */\n      jump\n        /* \"src/router/Router.sol\":3704:3756  require(currency == WETHaddr, \"only works for WETH\") */\n    tag_261:\n        /* \"src/router/Router.sol\":3777:3785  currency */\n      dup1\n      sub(shl(0xa0, 0x01), 0x01)\n        /* \"src/router/Router.sol\":3763:3795  WETH9(payable(currency)).deposit */\n      and\n      0xd0e30db0\n        /* \"src/router/Router.sol\":3803:3812  msg.value */\n      callvalue\n        /* \"src/router/Router.sol\":3763:3815  WETH9(payable(currency)).deposit{value: msg.value}() */\n      mload(0x40)\n      dup3\n      0xffffffff\n      and\n      0xe0\n      shl\n      dup2\n      mstore\n      0x04\n      add\n      0x00\n      mload(0x40)\n      dup1\n      dup4\n      sub\n      dup2\n      dup6\n      dup9\n      dup1\n      extcodesize\n      iszero\n      dup1\n      iszero\n      tag_263\n      jumpi\n      0x00\n      dup1\n      revert\n    tag_263:\n      pop\n      gas\n      call\n      iszero\n      dup1\n      iszero\n      tag_265\n      jumpi\n      returndatasize\n      0x00\n      dup1\n      returndatacopy\n      revert(0x00, returndatasize)\n    tag_265:\n      pop\n      pop\n        /* \"src/router/Router.sol\":3822:3892  IERC20(payable(currency)).approve(target, 999999999999999999999999999) */\n      mload(0x40)\n      shl(0xe0, 0x095ea7b3)\n      dup2\n      mstore\n      sub(shl(0xa0, 0x01), 0x01)\n        /* \"#utility.yul\":12197:12229   */\n      dup9\n      dup2\n      and\n        /* \"src/router/Router.sol\":3822:3892  IERC20(payable(currency)).approve(target, 999999999999999999999999999) */\n      0x04\n      dup4\n      add\n        /* \"#utility.yul\":12179:12230   */\n      mstore\n        /* \"src/router/Router.sol\":3864:3891  999999999999999999999999999 */\n      0x033b2e3c9fd0803ce7ffffff\n        /* \"#utility.yul\":12246:12264   */\n      0x24\n      dup4\n      add\n        /* \"#utility.yul\":12239:12273   */\n      mstore\n        /* \"src/router/Router.sol\":3822:3855  IERC20(payable(currency)).approve */\n      dup6\n      and\n      swap4\n      pop\n      0x095ea7b3\n      swap3\n      pop\n        /* \"#utility.yul\":12152:12170   */\n      0x44\n      add\n      swap1\n      pop\n        /* \"src/router/Router.sol\":3822:3892  IERC20(payable(currency)).approve(target, 999999999999999999999999999) */\n      0x20\n      mload(0x40)\n      dup1\n      dup4\n      sub\n      dup2\n      0x00\n      dup8\n      dup1\n      extcodesize\n      iszero\n      dup1\n      iszero\n      tag_268\n      jumpi\n      0x00\n      dup1\n      revert\n    tag_268:\n      pop\n      gas\n      call\n      iszero\n      dup1\n      iszero\n      tag_270\n      jumpi\n      returndatasize\n      0x00\n      dup1\n      returndatacopy\n      revert(0x00, returndatasize)\n    tag_270:\n      pop\n      pop\n      pop\n      pop\n      mload(0x40)\n      returndatasize\n      not(0x1f)\n      0x1f\n      dup3\n      add\n      and\n      dup3\n      add\n      dup1\n      0x40\n      mstore\n      pop\n      dup2\n      add\n      swap1\n      tag_271\n      swap2\n      swap1\n      tag_143\n      jump\t// in\n    tag_271:\n      pop\n        /* \"src/router/Router.sol\":3899:3943  _repay(target, nftID, msg.value, pineWallet) */\n      tag_272\n        /* \"src/router/Router.sol\":3906:3912  target */\n      dup5\n        /* \"src/router/Router.sol\":3914:3919  nftID */\n      dup5\n        /* \"src/router/Router.sol\":3921:3930  msg.value */\n      callvalue\n        /* \"src/router/Router.sol\":3932:3942  pineWallet */\n      dup6\n        /* \"src/router/Router.sol\":3899:3905  _repay */\n      tag_273\n        /* \"src/router/Router.sol\":3899:3943  _repay(target, nftID, msg.value, pineWallet) */\n      jump\t// in\n    tag_272:\n        /* \"src/router/Router.sol\":3984:4025  IERC20(currency).balanceOf(address(this)) */\n      mload(0x40)\n      shl(0xe0, 0x70a08231)\n      dup2\n      mstore\n        /* \"src/router/Router.sol\":4019:4023  this */\n      address\n        /* \"src/router/Router.sol\":3984:4025  IERC20(currency).balanceOf(address(this)) */\n      0x04\n      dup3\n      add\n        /* \"#utility.yul\":6178:6229   */\n      mstore\n      sub(shl(0xa0, 0x01), 0x01)\n        /* \"src/router/Router.sol\":3950:3983  WETH9(payable(currency)).withdraw */\n      dup3\n      and\n      swap1\n      0x2e1a7d4d\n      swap1\n      dup3\n      swap1\n        /* \"src/router/Router.sol\":3984:4010  IERC20(currency).balanceOf */\n      0x70a08231\n      swap1\n        /* \"#utility.yul\":6151:6169   */\n      0x24\n      add\n        /* \"src/router/Router.sol\":3984:4025  IERC20(currency).balanceOf(address(this)) */\n      0x20\n      mload(0x40)\n      dup1\n      dup4\n      sub\n      dup2\n      dup7\n      dup1\n      extcodesize\n      iszero\n      dup1\n      iszero\n      tag_275\n      jumpi\n      0x00\n      dup1\n      revert\n    tag_275:\n      pop\n      gas\n      staticcall\n      iszero\n      dup1\n      iszero\n      tag_277\n      jumpi\n      returndatasize\n      0x00\n      dup1\n      returndatacopy\n      revert(0x00, returndatasize)\n    tag_277:\n      pop\n      pop\n      pop\n      pop\n      mload(0x40)\n      returndatasize\n      not(0x1f)\n      0x1f\n      dup3\n      add\n      and\n      dup3\n      add\n      dup1\n      0x40\n      mstore\n      pop\n      dup2\n      add\n      swap1\n      tag_278\n      swap2\n      swap1\n      tag_157\n      jump\t// in\n    tag_278:\n        /* \"src/router/Router.sol\":3950:4026  WETH9(payable(currency)).withdraw(IERC20(currency).balanceOf(address(this))) */\n      mload(0x40)\n      dup3\n      0xffffffff\n      and\n      0xe0\n      shl\n      dup2\n      mstore\n      0x04\n      add\n      tag_279\n      swap2\n        /* \"#utility.yul\":9176:9201   */\n      dup2\n      mstore\n        /* \"#utility.yul\":9164:9166   */\n      0x20\n        /* \"#utility.yul\":9149:9167   */\n      add\n      swap1\n        /* \"#utility.yul\":9030:9207   */\n      jump\n        /* \"src/router/Router.sol\":3950:4026  WETH9(payable(currency)).withdraw(IERC20(currency).balanceOf(address(this))) */\n    tag_279:\n      0x00\n      mload(0x40)\n      dup1\n      dup4\n      sub\n      dup2\n      0x00\n      dup8\n      dup1\n      extcodesize\n      iszero\n      dup1\n      iszero\n      tag_280\n      jumpi\n      0x00\n      dup1\n      revert\n    tag_280:\n      pop\n      gas\n      call\n      iszero\n      dup1\n      iszero\n      tag_282\n      jumpi\n      returndatasize\n      0x00\n      dup1\n      returndatacopy\n      revert(0x00, returndatasize)\n    tag_282:\n      pop\n      pop\n        /* \"src/router/Router.sol\":4033:4077  IERC20(payable(currency)).approve(target, 0) */\n      mload(0x40)\n      shl(0xe0, 0x095ea7b3)\n      dup2\n      mstore\n      sub(shl(0xa0, 0x01), 0x01)\n        /* \"#utility.yul\":12197:12229   */\n      dup8\n      dup2\n      and\n        /* \"src/router/Router.sol\":4033:4077  IERC20(payable(currency)).approve(target, 0) */\n      0x04\n      dup4\n      add\n        /* \"#utility.yul\":12179:12230   */\n      mstore\n        /* \"src/router/Router.sol\":4075:4076  0 */\n      0x00\n        /* \"#utility.yul\":12246:12264   */\n      0x24\n      dup4\n      add\n        /* \"#utility.yul\":12239:12273   */\n      mstore\n        /* \"src/router/Router.sol\":4033:4066  IERC20(payable(currency)).approve */\n      dup5\n      and\n      swap3\n      pop\n      0x095ea7b3\n      swap2\n      pop\n        /* \"#utility.yul\":12152:12170   */\n      0x44\n      add\n        /* \"src/router/Router.sol\":4033:4077  IERC20(payable(currency)).approve(target, 0) */\n      0x20\n      mload(0x40)\n      dup1\n      dup4\n      sub\n      dup2\n      0x00\n      dup8\n      dup1\n      extcodesize\n      iszero\n      dup1\n      iszero\n      tag_285\n      jumpi\n      0x00\n      dup1\n      revert\n    tag_285:\n      pop\n      gas\n      call\n      iszero\n      dup1\n      iszero\n      tag_287\n      jumpi\n      returndatasize\n      0x00\n      dup1\n      returndatacopy\n      revert(0x00, returndatasize)\n    tag_287:\n      pop\n      pop\n      pop\n      pop\n      mload(0x40)\n      returndatasize\n      not(0x1f)\n      0x1f\n      dup3\n      add\n      and\n      dup3\n      add\n      dup1\n      0x40\n      mstore\n      pop\n      dup2\n      add\n      swap1\n      tag_288\n      swap2\n      swap1\n      tag_143\n      jump\t// in\n    tag_288:\n      pop\n        /* \"src/router/Router.sol\":4103:4152  msg.sender.call{value: address(this).balance}(\"\") */\n      mload(0x40)\n        /* \"src/router/Router.sol\":4085:4097  bool success */\n      0x00\n      swap1\n        /* \"src/router/Router.sol\":4103:4113  msg.sender */\n      caller\n      swap1\n        /* \"src/router/Router.sol\":4126:4147  address(this).balance */\n      selfbalance\n      swap1\n        /* \"src/router/Router.sol\":4085:4097  bool success */\n      dup4\n        /* \"src/router/Router.sol\":4103:4152  msg.sender.call{value: address(this).balance}(\"\") */\n      dup2\n        /* \"src/router/Router.sol\":4085:4097  bool success */\n      dup2\n        /* \"src/router/Router.sol\":4103:4152  msg.sender.call{value: address(this).balance}(\"\") */\n      dup2\n        /* \"src/router/Router.sol\":4126:4147  address(this).balance */\n      dup6\n        /* \"src/router/Router.sol\":4103:4113  msg.sender */\n      dup8\n        /* \"src/router/Router.sol\":4103:4152  msg.sender.call{value: address(this).balance}(\"\") */\n      gas\n      call\n      swap3\n      pop\n      pop\n      pop\n      returndatasize\n      dup1\n      0x00\n      dup2\n      eq\n      tag_292\n      jumpi\n      mload(0x40)\n      swap2\n      pop\n      and(add(returndatasize, 0x3f), not(0x1f))\n      dup3\n      add\n      0x40\n      mstore\n      returndatasize\n      dup3\n      mstore\n      returndatasize\n      0x00\n      0x20\n      dup5\n      add\n      returndatacopy\n      jump(tag_291)\n    tag_292:\n      0x60\n      swap2\n      pop\n    tag_291:\n      pop\n        /* \"src/router/Router.sol\":4084:4152  (bool success, ) = msg.sender.call{value: address(this).balance}(\"\") */\n      pop\n      swap1\n      pop\n        /* \"src/router/Router.sol\":4167:4174  success */\n      dup1\n        /* \"src/router/Router.sol\":4159:4196  require(success, \"cannot send ether\") */\n      tag_293\n      jumpi\n      mload(0x40)\n      shl(0xe5, 0x461bcd)\n      dup2\n      mstore\n      0x04\n      add\n      tag_72\n      swap1\n      tag_73\n      jump\t// in\n    tag_293:\n        /* \"src/router/Router.sol\":3620:4202  {... */\n      pop\n      pop\n        /* \"src/router/Router.sol\":3531:4202  function repayETH(address payable target, uint nftID, address pineWallet) payable public {... */\n      pop\n      pop\n      pop\n      jump\t// out\n        /* \"src/router/Router.sol\":931:1081  function init(address w, address payable c) initializer external {... */\n    tag_55:\n        /* \"lib/openzeppelin-contracts-upgradeable/contracts/proxy/utils/Initializable.sol\":3363:3382  bool isTopLevelCall */\n      0x00\n        /* \"lib/openzeppelin-contracts-upgradeable/contracts/proxy/utils/Initializable.sol\":3386:3399  _initializing */\n      sload\n      0x0100\n      swap1\n      div\n      0xff\n      and\n        /* \"lib/openzeppelin-contracts-upgradeable/contracts/proxy/utils/Initializable.sol\":3385:3399  !_initializing */\n      iszero\n      dup1\n        /* \"lib/openzeppelin-contracts-upgradeable/contracts/proxy/utils/Initializable.sol\":3433:3467  isTopLevelCall && _initialized < 1 */\n      dup1\n      iszero\n      tag_296\n      jumpi\n      pop\n        /* \"lib/openzeppelin-contracts-upgradeable/contracts/proxy/utils/Initializable.sol\":3451:3463  _initialized */\n      sload(0x00)\n        /* \"lib/openzeppelin-contracts-upgradeable/contracts/proxy/utils/Initializable.sol\":3466:3467  1 */\n      0x01\n        /* \"lib/openzeppelin-contracts-upgradeable/contracts/proxy/utils/Initializable.sol\":3451:3463  _initialized */\n      0xff\n      swap1\n      swap2\n      and\n        /* \"lib/openzeppelin-contracts-upgradeable/contracts/proxy/utils/Initializable.sol\":3451:3467  _initialized < 1 */\n      lt\n        /* \"lib/openzeppelin-contracts-upgradeable/contracts/proxy/utils/Initializable.sol\":3433:3467  isTopLevelCall && _initialized < 1 */\n    tag_296:\n        /* \"lib/openzeppelin-contracts-upgradeable/contracts/proxy/utils/Initializable.sol\":3432:3540  (isTopLevelCall && _initialized < 1) || (!AddressUpgradeable.isContract(address(this)) && _initialized == 1) */\n      dup1\n      tag_300\n      jumpi\n      pop\n        /* \"lib/openzeppelin-contracts-upgradeable/contracts/proxy/utils/Initializable.sol\":3512:3516  this */\n      address\n        /* \"lib/openzeppelin-contracts-upgradeable/contracts/utils/AddressUpgradeable.sol\":1757:1776  account.code.length */\n      extcodesize\n        /* \"lib/openzeppelin-contracts-upgradeable/contracts/utils/AddressUpgradeable.sol\":1757:1780  account.code.length > 0 */\n      iszero\n      dup1\n      iszero\n        /* \"lib/openzeppelin-contracts-upgradeable/contracts/proxy/utils/Initializable.sol\":3473:3539  !AddressUpgradeable.isContract(address(this)) && _initialized == 1 */\n      tag_300\n      jumpi\n      pop\n        /* \"lib/openzeppelin-contracts-upgradeable/contracts/proxy/utils/Initializable.sol\":3522:3534  _initialized */\n      and(0xff, sload(0x00))\n      0x01\n        /* \"lib/openzeppelin-contracts-upgradeable/contracts/proxy/utils/Initializable.sol\":3522:3539  _initialized == 1 */\n      eq\n        /* \"lib/openzeppelin-contracts-upgradeable/contracts/proxy/utils/Initializable.sol\":3473:3539  !AddressUpgradeable.isContract(address(this)) && _initialized == 1 */\n    tag_300:\n        /* \"lib/openzeppelin-contracts-upgradeable/contracts/proxy/utils/Initializable.sol\":3410:3614  require(... */\n      tag_301\n      jumpi\n      mload(0x40)\n      shl(0xe5, 0x461bcd)\n      dup2\n      mstore\n        /* \"#utility.yul\":13570:13572   */\n      0x20\n        /* \"lib/openzeppelin-contracts-upgradeable/contracts/proxy/utils/Initializable.sol\":3410:3614  require(... */\n      0x04\n      dup3\n      add\n        /* \"#utility.yul\":13552:13573   */\n      mstore\n        /* \"#utility.yul\":13609:13611   */\n      0x2e\n        /* \"#utility.yul\":13589:13607   */\n      0x24\n      dup3\n      add\n        /* \"#utility.yul\":13582:13612   */\n      mstore\n        /* \"#utility.yul\":13648:13682   */\n      0x496e697469616c697a61626c653a20636f6e747261637420697320616c726561\n        /* \"#utility.yul\":13628:13646   */\n      0x44\n      dup3\n      add\n        /* \"#utility.yul\":13621:13683   */\n      mstore\n      shl(0x92, 0x191e481a5b9a5d1a585b1a5e9959)\n        /* \"#utility.yul\":13699:13717   */\n      0x64\n      dup3\n      add\n        /* \"#utility.yul\":13692:13736   */\n      mstore\n        /* \"#utility.yul\":13753:13772   */\n      0x84\n      add\n        /* \"lib/openzeppelin-contracts-upgradeable/contracts/proxy/utils/Initializable.sol\":3410:3614  require(... */\n      tag_72\n        /* \"#utility.yul\":13368:13778   */\n      jump\n        /* \"lib/openzeppelin-contracts-upgradeable/contracts/proxy/utils/Initializable.sol\":3410:3614  require(... */\n    tag_301:\n        /* \"lib/openzeppelin-contracts-upgradeable/contracts/proxy/utils/Initializable.sol\":3625:3637  _initialized */\n      0x00\n        /* \"lib/openzeppelin-contracts-upgradeable/contracts/proxy/utils/Initializable.sol\":3625:3641  _initialized = 1 */\n      dup1\n      sload\n      not(0xff)\n      and\n        /* \"lib/openzeppelin-contracts-upgradeable/contracts/proxy/utils/Initializable.sol\":3640:3641  1 */\n      0x01\n        /* \"lib/openzeppelin-contracts-upgradeable/contracts/proxy/utils/Initializable.sol\":3625:3641  _initialized = 1 */\n      or\n      swap1\n      sstore\n        /* \"lib/openzeppelin-contracts-upgradeable/contracts/proxy/utils/Initializable.sol\":3652:3719  if (isTopLevelCall) {... */\n      dup1\n      iszero\n      tag_304\n      jumpi\n        /* \"lib/openzeppelin-contracts-upgradeable/contracts/proxy/utils/Initializable.sol\":3687:3700  _initializing */\n      0x00\n        /* \"lib/openzeppelin-contracts-upgradeable/contracts/proxy/utils/Initializable.sol\":3687:3707  _initializing = true */\n      dup1\n      sload\n      not(0xff00)\n      and\n      0x0100\n      or\n      swap1\n      sstore\n        /* \"lib/openzeppelin-contracts-upgradeable/contracts/proxy/utils/Initializable.sol\":3652:3719  if (isTopLevelCall) {... */\n    tag_304:\n        /* \"src/router/Router.sol\":1003:1019  __Ownable_init() */\n      tag_306\n        /* \"src/router/Router.sol\":1003:1017  __Ownable_init */\n      tag_307\n        /* \"src/router/Router.sol\":1003:1019  __Ownable_init() */\n      jump\t// in\n    tag_306:\n        /* \"src/router/Router.sol\":1026:1034  WETHaddr */\n      0x65\n        /* \"src/router/Router.sol\":1026:1038  WETHaddr = w */\n      dup1\n      sload\n      sub(shl(0xa0, 0x01), 0x01)\n      dup1\n      dup7\n      and\n      not(sub(shl(0xa0, 0x01), 0x01))\n      swap3\n      dup4\n      and\n      or\n      swap1\n      swap3\n      sstore\n        /* \"src/router/Router.sol\":1045:1057  controlPlane */\n      0x66\n        /* \"src/router/Router.sol\":1045:1061  controlPlane = c */\n      dup1\n      sload\n      swap3\n      dup6\n      and\n      swap3\n      swap1\n      swap2\n      and\n      swap2\n      swap1\n      swap2\n      or\n      swap1\n      sstore\n        /* \"src/router/Router.sol\":1026:1034  WETHaddr */\n      0x00\n        /* \"src/router/Router.sol\":1068:1071  fee */\n      0x67\n        /* \"src/router/Router.sol\":1068:1075  fee = 0 */\n      sstore\n        /* \"lib/openzeppelin-contracts-upgradeable/contracts/proxy/utils/Initializable.sol\":3741:3843  if (isTopLevelCall) {... */\n      dup1\n      iszero\n      tag_183\n      jumpi\n        /* \"lib/openzeppelin-contracts-upgradeable/contracts/proxy/utils/Initializable.sol\":3792:3797  false */\n      0x00\n        /* \"lib/openzeppelin-contracts-upgradeable/contracts/proxy/utils/Initializable.sol\":3776:3797  _initializing = false */\n      dup1\n      sload\n      not(0xff00)\n      and\n      swap1\n      sstore\n        /* \"lib/openzeppelin-contracts-upgradeable/contracts/proxy/utils/Initializable.sol\":3817:3831  Initialized(1) */\n      mload(0x40)\n      0x01\n        /* \"#utility.yul\":13935:13971   */\n      dup2\n      mstore\n        /* \"lib/openzeppelin-contracts-upgradeable/contracts/proxy/utils/Initializable.sol\":3817:3831  Initialized(1) */\n      0x7f26b83ff96e1f2b6a682f133852f6798a09c465da95921460cefb3847402498\n      swap1\n        /* \"#utility.yul\":13923:13925   */\n      0x20\n        /* \"#utility.yul\":13908:13926   */\n      add\n        /* \"lib/openzeppelin-contracts-upgradeable/contracts/proxy/utils/Initializable.sol\":3817:3831  Initialized(1) */\n      mload(0x40)\n      dup1\n      swap2\n      sub\n      swap1\n      log1\n        /* \"lib/openzeppelin-contracts-upgradeable/contracts/proxy/utils/Initializable.sol\":3352:3850  {... */\n      pop\n        /* \"src/router/Router.sol\":931:1081  function init(address w, address payable c) initializer external {... */\n      pop\n      pop\n      jump\t// out\n        /* \"lib/openzeppelin-contracts-upgradeable/contracts/access/OwnableUpgradeable.sol\":2394:2595  function transferOwnership(address newOwner) public virtual onlyOwner {... */\n    tag_60:\n        /* \"lib/openzeppelin-contracts-upgradeable/contracts/access/OwnableUpgradeable.sol\":1374:1387  _checkOwner() */\n      tag_312\n        /* \"lib/openzeppelin-contracts-upgradeable/contracts/access/OwnableUpgradeable.sol\":1374:1385  _checkOwner */\n      tag_63\n        /* \"lib/openzeppelin-contracts-upgradeable/contracts/access/OwnableUpgradeable.sol\":1374:1387  _checkOwner() */\n      jump\t// in\n    tag_312:\n      sub(shl(0xa0, 0x01), 0x01)\n        /* \"lib/openzeppelin-contracts-upgradeable/contracts/access/OwnableUpgradeable.sol\":2483:2505  newOwner != address(0) */\n      dup2\n      and\n        /* \"lib/openzeppelin-contracts-upgradeable/contracts/access/OwnableUpgradeable.sol\":2475:2548  require(newOwner != address(0), \"Ownable: new owner is the zero address\") */\n      tag_314\n      jumpi\n      mload(0x40)\n      shl(0xe5, 0x461bcd)\n      dup2\n      mstore\n        /* \"#utility.yul\":14184:14186   */\n      0x20\n        /* \"lib/openzeppelin-contracts-upgradeable/contracts/access/OwnableUpgradeable.sol\":2475:2548  require(newOwner != address(0), \"Ownable: new owner is the zero address\") */\n      0x04\n      dup3\n      add\n        /* \"#utility.yul\":14166:14187   */\n      mstore\n        /* \"#utility.yul\":14223:14225   */\n      0x26\n        /* \"#utility.yul\":14203:14221   */\n      0x24\n      dup3\n      add\n        /* \"#utility.yul\":14196:14226   */\n      mstore\n        /* \"#utility.yul\":14262:14296   */\n      0x4f776e61626c653a206e6577206f776e657220697320746865207a65726f2061\n        /* \"#utility.yul\":14242:14260   */\n      0x44\n      dup3\n      add\n        /* \"#utility.yul\":14235:14297   */\n      mstore\n      shl(0xd0, 0x646472657373)\n        /* \"#utility.yul\":14313:14331   */\n      0x64\n      dup3\n      add\n        /* \"#utility.yul\":14306:14342   */\n      mstore\n        /* \"#utility.yul\":14359:14378   */\n      0x84\n      add\n        /* \"lib/openzeppelin-contracts-upgradeable/contracts/access/OwnableUpgradeable.sol\":2475:2548  require(newOwner != address(0), \"Ownable: new owner is the zero address\") */\n      tag_72\n        /* \"#utility.yul\":13982:14384   */\n      jump\n        /* \"lib/openzeppelin-contracts-upgradeable/contracts/access/OwnableUpgradeable.sol\":2475:2548  require(newOwner != address(0), \"Ownable: new owner is the zero address\") */\n    tag_314:\n        /* \"lib/openzeppelin-contracts-upgradeable/contracts/access/OwnableUpgradeable.sol\":2559:2587  _transferOwnership(newOwner) */\n      tag_317\n        /* \"lib/openzeppelin-contracts-upgradeable/contracts/access/OwnableUpgradeable.sol\":2578:2586  newOwner */\n      dup2\n        /* \"lib/openzeppelin-contracts-upgradeable/contracts/access/OwnableUpgradeable.sol\":2559:2577  _transferOwnership */\n      tag_172\n        /* \"lib/openzeppelin-contracts-upgradeable/contracts/access/OwnableUpgradeable.sol\":2559:2587  _transferOwnership(newOwner) */\n      jump\t// in\n    tag_317:\n        /* \"lib/openzeppelin-contracts-upgradeable/contracts/access/OwnableUpgradeable.sol\":2394:2595  function transferOwnership(address newOwner) public virtual onlyOwner {... */\n      pop\n      jump\t// out\n        /* \"lib/openzeppelin-contracts-upgradeable/contracts/access/OwnableUpgradeable.sol\":1653:1785  function _checkOwner() internal view virtual {... */\n    tag_63:\n        /* \"lib/openzeppelin-contracts-upgradeable/contracts/access/OwnableUpgradeable.sol\":1561:1567  _owner */\n      and(sub(shl(0xa0, 0x01), 0x01), sload(0x33))\n        /* \"lib/openzeppelin-contracts-upgradeable/contracts/utils/ContextUpgradeable.sol\":952:962  msg.sender */\n      caller\n        /* \"lib/openzeppelin-contracts-upgradeable/contracts/access/OwnableUpgradeable.sol\":1717:1740  owner() == _msgSender() */\n      eq\n        /* \"lib/openzeppelin-contracts-upgradeable/contracts/access/OwnableUpgradeable.sol\":1709:1777  require(owner() == _msgSender(), \"Ownable: caller is not the owner\") */\n      tag_171\n      jumpi\n      mload(0x40)\n      shl(0xe5, 0x461bcd)\n      dup2\n      mstore\n        /* \"#utility.yul\":14591:14593   */\n      0x20\n        /* \"lib/openzeppelin-contracts-upgradeable/contracts/access/OwnableUpgradeable.sol\":1709:1777  require(owner() == _msgSender(), \"Ownable: caller is not the owner\") */\n      0x04\n      dup3\n      add\n        /* \"#utility.yul\":14573:14594   */\n      dup2\n      swap1\n      mstore\n        /* \"#utility.yul\":14610:14628   */\n      0x24\n      dup3\n      add\n        /* \"#utility.yul\":14603:14633   */\n      mstore\n        /* \"#utility.yul\":14669:14703   */\n      0x4f776e61626c653a2063616c6c6572206973206e6f7420746865206f776e6572\n        /* \"#utility.yul\":14649:14667   */\n      0x44\n      dup3\n      add\n        /* \"#utility.yul\":14642:14704   */\n      mstore\n        /* \"#utility.yul\":14721:14739   */\n      0x64\n      add\n        /* \"lib/openzeppelin-contracts-upgradeable/contracts/access/OwnableUpgradeable.sol\":1709:1777  require(owner() == _msgSender(), \"Ownable: caller is not the owner\") */\n      tag_72\n        /* \"#utility.yul\":14389:14745   */\n      jump\n        /* \"lib/openzeppelin-contracts-upgradeable/contracts/access/OwnableUpgradeable.sol\":2755:2946  function _transferOwnership(address newOwner) internal virtual {... */\n    tag_172:\n        /* \"lib/openzeppelin-contracts-upgradeable/contracts/access/OwnableUpgradeable.sol\":2848:2854  _owner */\n      0x33\n      dup1\n      sload\n      sub(shl(0xa0, 0x01), 0x01)\n        /* \"lib/openzeppelin-contracts-upgradeable/contracts/access/OwnableUpgradeable.sol\":2865:2882  _owner = newOwner */\n      dup4\n      dup2\n      and\n      not(sub(shl(0xa0, 0x01), 0x01))\n      dup4\n      and\n      dup2\n      or\n      swap1\n      swap4\n      sstore\n        /* \"lib/openzeppelin-contracts-upgradeable/contracts/access/OwnableUpgradeable.sol\":2898:2938  OwnershipTransferred(oldOwner, newOwner) */\n      mload(0x40)\n        /* \"lib/openzeppelin-contracts-upgradeable/contracts/access/OwnableUpgradeable.sol\":2848:2854  _owner */\n      swap2\n      and\n      swap2\n        /* \"lib/openzeppelin-contracts-upgradeable/contracts/access/OwnableUpgradeable.sol\":2865:2882  _owner = newOwner */\n      swap1\n        /* \"lib/openzeppelin-contracts-upgradeable/contracts/access/OwnableUpgradeable.sol\":2848:2854  _owner */\n      dup3\n      swap1\n        /* \"lib/openzeppelin-contracts-upgradeable/contracts/access/OwnableUpgradeable.sol\":2898:2938  OwnershipTransferred(oldOwner, newOwner) */\n      0x8be0079c531659141344cd1fd0a4f28419497f9722a3daafe3b4186f6b6457e0\n      swap1\n        /* \"lib/openzeppelin-contracts-upgradeable/contracts/access/OwnableUpgradeable.sol\":2829:2845  address oldOwner */\n      0x00\n      swap1\n        /* \"lib/openzeppelin-contracts-upgradeable/contracts/access/OwnableUpgradeable.sol\":2898:2938  OwnershipTransferred(oldOwner, newOwner) */\n      log3\n        /* \"lib/openzeppelin-contracts-upgradeable/contracts/access/OwnableUpgradeable.sol\":2818:2946  {... */\n      pop\n        /* \"lib/openzeppelin-contracts-upgradeable/contracts/access/OwnableUpgradeable.sol\":2755:2946  function _transferOwnership(address newOwner) internal virtual {... */\n      pop\n      jump\t// out\n        /* \"src/router/Router.sol\":4208:4391  function _repay(address payable target, uint nftID, uint256 repayAmount, address pineWallet) internal {... */\n    tag_273:\n        /* \"src/router/Router.sol\":4317:4385  NewERC721LendingPool02(target).repay(nftID, repayAmount, pineWallet) */\n      mload(0x40)\n      shl(0xe0, 0xb1e8f8ef)\n      dup2\n      mstore\n      0x04\n      dup2\n      add\n        /* \"#utility.yul\":14952:14977   */\n      dup5\n      swap1\n      mstore\n        /* \"#utility.yul\":14993:15011   */\n      0x24\n      dup2\n      add\n        /* \"#utility.yul\":14986:15020   */\n      dup4\n      swap1\n      mstore\n      sub(shl(0xa0, 0x01), 0x01)\n        /* \"#utility.yul\":15056:15088   */\n      dup3\n      dup2\n      and\n        /* \"#utility.yul\":15036:15054   */\n      0x44\n      dup4\n      add\n        /* \"#utility.yul\":15029:15089   */\n      mstore\n        /* \"src/router/Router.sol\":4317:4353  NewERC721LendingPool02(target).repay */\n      dup6\n      and\n      swap1\n      0xb1e8f8ef\n      swap1\n        /* \"#utility.yul\":14925:14943   */\n      0x64\n      add\n        /* \"src/router/Router.sol\":4317:4385  NewERC721LendingPool02(target).repay(nftID, repayAmount, pineWallet) */\n      0x20\n      mload(0x40)\n      dup1\n      dup4\n      sub\n      dup2\n      0x00\n      dup8\n      dup1\n      extcodesize\n      iszero\n      dup1\n      iszero\n      tag_329\n      jumpi\n      0x00\n      dup1\n      revert\n    tag_329:\n      pop\n      gas\n      call\n      iszero\n      dup1\n      iszero\n      tag_331\n      jumpi\n      returndatasize\n      0x00\n      dup1\n      returndatacopy\n      revert(0x00, returndatasize)\n    tag_331:\n      pop\n      pop\n      pop\n      pop\n      mload(0x40)\n      returndatasize\n      not(0x1f)\n      0x1f\n      dup3\n      add\n      and\n      dup3\n      add\n      dup1\n      0x40\n      mstore\n      pop\n      dup2\n      add\n      swap1\n      tag_293\n      swap2\n      swap1\n      tag_143\n      jump\t// in\n        /* \"lib/openzeppelin-contracts-upgradeable/contracts/access/OwnableUpgradeable.sol\":1031:1128  function __Ownable_init() internal onlyInitializing {... */\n    tag_307:\n        /* \"lib/openzeppelin-contracts-upgradeable/contracts/proxy/utils/Initializable.sol\":5506:5519  _initializing */\n      sload(0x00)\n      0x0100\n      swap1\n      div\n      0xff\n      and\n        /* \"lib/openzeppelin-contracts-upgradeable/contracts/proxy/utils/Initializable.sol\":5498:5567  require(_initializing, \"Initializable: contract is not initializing\") */\n      tag_335\n      jumpi\n      mload(0x40)\n      shl(0xe5, 0x461bcd)\n      dup2\n      mstore\n      0x04\n      add\n      tag_72\n      swap1\n      tag_337\n      jump\t// in\n    tag_335:\n        /* \"lib/openzeppelin-contracts-upgradeable/contracts/access/OwnableUpgradeable.sol\":1094:1120  __Ownable_init_unchained() */\n      tag_171\n        /* \"lib/openzeppelin-contracts-upgradeable/contracts/proxy/utils/Initializable.sol\":5506:5519  _initializing */\n      sload(0x00)\n      0x0100\n      swap1\n      div\n      0xff\n      and\n        /* \"lib/openzeppelin-contracts-upgradeable/contracts/proxy/utils/Initializable.sol\":5498:5567  require(_initializing, \"Initializable: contract is not initializing\") */\n      tag_343\n      jumpi\n      mload(0x40)\n      shl(0xe5, 0x461bcd)\n      dup2\n      mstore\n      0x04\n      add\n      tag_72\n      swap1\n      tag_337\n      jump\t// in\n    tag_343:\n        /* \"lib/openzeppelin-contracts-upgradeable/contracts/access/OwnableUpgradeable.sol\":1209:1241  _transferOwnership(_msgSender()) */\n      tag_171\n        /* \"lib/openzeppelin-contracts-upgradeable/contracts/utils/ContextUpgradeable.sol\":952:962  msg.sender */\n      caller\n        /* \"lib/openzeppelin-contracts-upgradeable/contracts/access/OwnableUpgradeable.sol\":1209:1227  _transferOwnership */\n      tag_172\n        /* \"lib/openzeppelin-contracts-upgradeable/contracts/access/OwnableUpgradeable.sol\":1209:1241  _transferOwnership(_msgSender()) */\n      jump\t// in\n        /* \"#utility.yul\":14:194   */\n    tag_19:\n        /* \"#utility.yul\":73:79   */\n      0x00\n        /* \"#utility.yul\":126:128   */\n      0x20\n        /* \"#utility.yul\":114:123   */\n      dup3\n        /* \"#utility.yul\":105:112   */\n      dup5\n        /* \"#utility.yul\":101:124   */\n      sub\n        /* \"#utility.yul\":97:129   */\n      slt\n        /* \"#utility.yul\":94:146   */\n      iszero\n      tag_359\n      jumpi\n        /* \"#utility.yul\":142:143   */\n      0x00\n        /* \"#utility.yul\":139:140   */\n      dup1\n        /* \"#utility.yul\":132:144   */\n      revert\n        /* \"#utility.yul\":94:146   */\n    tag_359:\n      pop\n        /* \"#utility.yul\":165:188   */\n      calldataload\n      swap2\n        /* \"#utility.yul\":14:194   */\n      swap1\n      pop\n      jump\t// out\n        /* \"#utility.yul\":199:326   */\n    tag_348:\n        /* \"#utility.yul\":260:270   */\n      0x4e487b71\n        /* \"#utility.yul\":255:258   */\n      0xe0\n        /* \"#utility.yul\":251:271   */\n      shl\n        /* \"#utility.yul\":248:249   */\n      0x00\n        /* \"#utility.yul\":241:272   */\n      mstore\n        /* \"#utility.yul\":291:295   */\n      0x41\n        /* \"#utility.yul\":288:289   */\n      0x04\n        /* \"#utility.yul\":281:296   */\n      mstore\n        /* \"#utility.yul\":315:319   */\n      0x24\n        /* \"#utility.yul\":312:313   */\n      0x00\n        /* \"#utility.yul\":305:320   */\n      revert\n        /* \"#utility.yul\":331:606   */\n    tag_349:\n        /* \"#utility.yul\":402:404   */\n      0x40\n        /* \"#utility.yul\":396:405   */\n      mload\n        /* \"#utility.yul\":467:469   */\n      0x1f\n        /* \"#utility.yul\":448:461   */\n      dup3\n      add\n      not(0x1f)\n        /* \"#utility.yul\":444:471   */\n      and\n        /* \"#utility.yul\":432:472   */\n      dup2\n      add\n        /* \"#utility.yul\":502:520   */\n      0xffffffffffffffff\n        /* \"#utility.yul\":487:521   */\n      dup2\n      gt\n        /* \"#utility.yul\":523:545   */\n      dup3\n      dup3\n      lt\n        /* \"#utility.yul\":484:546   */\n      or\n        /* \"#utility.yul\":481:569   */\n      iszero\n      tag_363\n      jumpi\n        /* \"#utility.yul\":549:567   */\n      tag_363\n      tag_348\n      jump\t// in\n    tag_363:\n        /* \"#utility.yul\":585:587   */\n      0x40\n        /* \"#utility.yul\":578:600   */\n      mstore\n        /* \"#utility.yul\":331:606   */\n      swap2\n      swap1\n      pop\n      jump\t// out\n        /* \"#utility.yul\":611:802   */\n    tag_350:\n        /* \"#utility.yul\":679:683   */\n      0x00\n        /* \"#utility.yul\":712:730   */\n      0xffffffffffffffff\n        /* \"#utility.yul\":704:710   */\n      dup3\n        /* \"#utility.yul\":701:731   */\n      gt\n        /* \"#utility.yul\":698:754   */\n      iszero\n      tag_366\n      jumpi\n        /* \"#utility.yul\":734:752   */\n      tag_366\n      tag_348\n      jump\t// in\n    tag_366:\n      pop\n        /* \"#utility.yul\":779:780   */\n      0x05\n        /* \"#utility.yul\":775:789   */\n      shl\n        /* \"#utility.yul\":791:795   */\n      0x20\n        /* \"#utility.yul\":771:796   */\n      add\n      swap1\n        /* \"#utility.yul\":611:802   */\n      jump\t// out\n        /* \"#utility.yul\":807:946   */\n    tag_351:\n      sub(shl(0xa0, 0x01), 0x01)\n        /* \"#utility.yul\":890:921   */\n      dup2\n      and\n        /* \"#utility.yul\":880:922   */\n      dup2\n      eq\n        /* \"#utility.yul\":870:940   */\n      tag_317\n      jumpi\n        /* \"#utility.yul\":936:937   */\n      0x00\n        /* \"#utility.yul\":933:934   */\n      dup1\n        /* \"#utility.yul\":926:938   */\n      revert\n        /* \"#utility.yul\":951:1712   */\n    tag_352:\n        /* \"#utility.yul\":1013:1018   */\n      0x00\n        /* \"#utility.yul\":1066:1069   */\n      dup3\n        /* \"#utility.yul\":1059:1063   */\n      0x1f\n        /* \"#utility.yul\":1051:1057   */\n      dup4\n        /* \"#utility.yul\":1047:1064   */\n      add\n        /* \"#utility.yul\":1043:1070   */\n      slt\n        /* \"#utility.yul\":1033:1088   */\n      tag_370\n      jumpi\n        /* \"#utility.yul\":1084:1085   */\n      0x00\n        /* \"#utility.yul\":1081:1082   */\n      dup1\n        /* \"#utility.yul\":1074:1086   */\n      revert\n        /* \"#utility.yul\":1033:1088   */\n    tag_370:\n        /* \"#utility.yul\":1120:1126   */\n      dup2\n        /* \"#utility.yul\":1107:1127   */\n      calldataload\n        /* \"#utility.yul\":1146:1150   */\n      0x20\n        /* \"#utility.yul\":1170:1238   */\n      tag_371\n        /* \"#utility.yul\":1186:1237   */\n      tag_372\n        /* \"#utility.yul\":1234:1236   */\n      dup4\n        /* \"#utility.yul\":1186:1237   */\n      tag_350\n      jump\t// in\n    tag_372:\n        /* \"#utility.yul\":1170:1238   */\n      tag_349\n      jump\t// in\n    tag_371:\n        /* \"#utility.yul\":1272:1287   */\n      dup3\n      dup2\n      mstore\n        /* \"#utility.yul\":1358:1359   */\n      0x05\n        /* \"#utility.yul\":1354:1364   */\n      swap3\n      swap1\n      swap3\n      shl\n        /* \"#utility.yul\":1342:1365   */\n      dup5\n      add\n        /* \"#utility.yul\":1338:1370   */\n      dup2\n      add\n      swap2\n        /* \"#utility.yul\":1303:1315   */\n      dup2\n      dup2\n      add\n      swap1\n        /* \"#utility.yul\":1382:1397   */\n      dup7\n      dup5\n      gt\n        /* \"#utility.yul\":1379:1414   */\n      iszero\n      tag_373\n      jumpi\n        /* \"#utility.yul\":1410:1411   */\n      0x00\n        /* \"#utility.yul\":1407:1408   */\n      dup1\n        /* \"#utility.yul\":1400:1412   */\n      revert\n        /* \"#utility.yul\":1379:1414   */\n    tag_373:\n        /* \"#utility.yul\":1446:1448   */\n      dup3\n        /* \"#utility.yul\":1438:1444   */\n      dup7\n        /* \"#utility.yul\":1434:1449   */\n      add\n        /* \"#utility.yul\":1458:1683   */\n    tag_374:\n        /* \"#utility.yul\":1474:1480   */\n      dup5\n        /* \"#utility.yul\":1469:1472   */\n      dup2\n        /* \"#utility.yul\":1466:1481   */\n      lt\n        /* \"#utility.yul\":1458:1683   */\n      iszero\n      tag_376\n      jumpi\n        /* \"#utility.yul\":1554:1557   */\n      dup1\n        /* \"#utility.yul\":1541:1558   */\n      calldataload\n        /* \"#utility.yul\":1571:1610   */\n      tag_377\n        /* \"#utility.yul\":1604:1609   */\n      dup2\n        /* \"#utility.yul\":1571:1610   */\n      tag_351\n      jump\t// in\n    tag_377:\n        /* \"#utility.yul\":1623:1641   */\n      dup4\n      mstore\n        /* \"#utility.yul\":1661:1673   */\n      swap2\n      dup4\n      add\n      swap2\n        /* \"#utility.yul\":1491:1503   */\n      dup4\n      add\n        /* \"#utility.yul\":1458:1683   */\n      jump(tag_374)\n    tag_376:\n      pop\n        /* \"#utility.yul\":1701:1706   */\n      swap7\n        /* \"#utility.yul\":951:1712   */\n      swap6\n      pop\n      pop\n      pop\n      pop\n      pop\n      pop\n      jump\t// out\n        /* \"#utility.yul\":1717:2387   */\n    tag_353:\n        /* \"#utility.yul\":1771:1776   */\n      0x00\n        /* \"#utility.yul\":1824:1827   */\n      dup3\n        /* \"#utility.yul\":1817:1821   */\n      0x1f\n        /* \"#utility.yul\":1809:1815   */\n      dup4\n        /* \"#utility.yul\":1805:1822   */\n      add\n        /* \"#utility.yul\":1801:1828   */\n      slt\n        /* \"#utility.yul\":1791:1846   */\n      tag_379\n      jumpi\n        /* \"#utility.yul\":1842:1843   */\n      0x00\n        /* \"#utility.yul\":1839:1840   */\n      dup1\n        /* \"#utility.yul\":1832:1844   */\n      revert\n        /* \"#utility.yul\":1791:1846   */\n    tag_379:\n        /* \"#utility.yul\":1878:1884   */\n      dup2\n        /* \"#utility.yul\":1865:1885   */\n      calldataload\n        /* \"#utility.yul\":1904:1908   */\n      0x20\n        /* \"#utility.yul\":1928:1996   */\n      tag_380\n        /* \"#utility.yul\":1944:1995   */\n      tag_372\n        /* \"#utility.yul\":1992:1994   */\n      dup4\n        /* \"#utility.yul\":1944:1995   */\n      tag_350\n      jump\t// in\n        /* \"#utility.yul\":1928:1996   */\n    tag_380:\n        /* \"#utility.yul\":2030:2045   */\n      dup3\n      dup2\n      mstore\n        /* \"#utility.yul\":2116:2117   */\n      0x05\n        /* \"#utility.yul\":2112:2122   */\n      swap3\n      swap1\n      swap3\n      shl\n        /* \"#utility.yul\":2100:2123   */\n      dup5\n      add\n        /* \"#utility.yul\":2096:2128   */\n      dup2\n      add\n      swap2\n        /* \"#utility.yul\":2061:2073   */\n      dup2\n      dup2\n      add\n      swap1\n        /* \"#utility.yul\":2140:2155   */\n      dup7\n      dup5\n      gt\n        /* \"#utility.yul\":2137:2172   */\n      iszero\n      tag_382\n      jumpi\n        /* \"#utility.yul\":2168:2169   */\n      0x00\n        /* \"#utility.yul\":2165:2166   */\n      dup1\n        /* \"#utility.yul\":2158:2170   */\n      revert\n        /* \"#utility.yul\":2137:2172   */\n    tag_382:\n        /* \"#utility.yul\":2204:2206   */\n      dup3\n        /* \"#utility.yul\":2196:2202   */\n      dup7\n        /* \"#utility.yul\":2192:2207   */\n      add\n        /* \"#utility.yul\":2216:2358   */\n    tag_383:\n        /* \"#utility.yul\":2232:2238   */\n      dup5\n        /* \"#utility.yul\":2227:2230   */\n      dup2\n        /* \"#utility.yul\":2224:2239   */\n      lt\n        /* \"#utility.yul\":2216:2358   */\n      iszero\n      tag_376\n      jumpi\n        /* \"#utility.yul\":2298:2315   */\n      dup1\n      calldataload\n        /* \"#utility.yul\":2286:2316   */\n      dup4\n      mstore\n        /* \"#utility.yul\":2336:2348   */\n      swap2\n      dup4\n      add\n      swap2\n        /* \"#utility.yul\":2249:2261   */\n      dup4\n      add\n        /* \"#utility.yul\":2216:2358   */\n      jump(tag_383)\n        /* \"#utility.yul\":2392:3939   */\n    tag_354:\n        /* \"#utility.yul\":2444:2449   */\n      0x00\n        /* \"#utility.yul\":2474:2478   */\n      0x1f\n        /* \"#utility.yul\":2518:2521   */\n      dup4\n        /* \"#utility.yul\":2513:2515   */\n      dup2\n        /* \"#utility.yul\":2505:2511   */\n      dup5\n        /* \"#utility.yul\":2501:2516   */\n      add\n        /* \"#utility.yul\":2497:2522   */\n      slt\n        /* \"#utility.yul\":2487:2540   */\n      tag_387\n      jumpi\n        /* \"#utility.yul\":2536:2537   */\n      0x00\n        /* \"#utility.yul\":2533:2534   */\n      dup1\n        /* \"#utility.yul\":2526:2538   */\n      revert\n        /* \"#utility.yul\":2487:2540   */\n    tag_387:\n        /* \"#utility.yul\":2572:2578   */\n      dup3\n        /* \"#utility.yul\":2559:2579   */\n      calldataload\n        /* \"#utility.yul\":2598:2602   */\n      0x20\n        /* \"#utility.yul\":2622:2690   */\n      tag_388\n        /* \"#utility.yul\":2638:2689   */\n      tag_372\n        /* \"#utility.yul\":2686:2688   */\n      dup4\n        /* \"#utility.yul\":2638:2689   */\n      tag_350\n      jump\t// in\n        /* \"#utility.yul\":2622:2690   */\n    tag_388:\n        /* \"#utility.yul\":2724:2739   */\n      dup3\n      dup2\n      mstore\n        /* \"#utility.yul\":2810:2811   */\n      0x05\n        /* \"#utility.yul\":2806:2816   */\n      swap3\n      swap1\n      swap3\n      shl\n        /* \"#utility.yul\":2794:2817   */\n      dup6\n      add\n        /* \"#utility.yul\":2790:2822   */\n      dup2\n      add\n      swap2\n        /* \"#utility.yul\":2755:2767   */\n      dup2\n      dup2\n      add\n      swap1\n        /* \"#utility.yul\":2834:2849   */\n      dup8\n      dup5\n      gt\n        /* \"#utility.yul\":2831:2866   */\n      iszero\n      tag_390\n      jumpi\n        /* \"#utility.yul\":2862:2863   */\n      0x00\n        /* \"#utility.yul\":2859:2860   */\n      dup1\n        /* \"#utility.yul\":2852:2864   */\n      revert\n        /* \"#utility.yul\":2831:2866   */\n    tag_390:\n        /* \"#utility.yul\":2898:2900   */\n      dup3\n        /* \"#utility.yul\":2890:2896   */\n      dup8\n        /* \"#utility.yul\":2886:2901   */\n      add\n        /* \"#utility.yul\":2910:3910   */\n    tag_391:\n        /* \"#utility.yul\":2926:2932   */\n      dup5\n        /* \"#utility.yul\":2921:2924   */\n      dup2\n        /* \"#utility.yul\":2918:2933   */\n      lt\n        /* \"#utility.yul\":2910:3910   */\n      iszero\n      tag_393\n      jumpi\n        /* \"#utility.yul\":3012:3015   */\n      dup1\n        /* \"#utility.yul\":2999:3016   */\n      calldataload\n        /* \"#utility.yul\":3039:3057   */\n      0xffffffffffffffff\n        /* \"#utility.yul\":3089:3091   */\n      dup1\n        /* \"#utility.yul\":3076:3087   */\n      dup3\n        /* \"#utility.yul\":3073:3092   */\n      gt\n        /* \"#utility.yul\":3070:3179   */\n      iszero\n      tag_394\n      jumpi\n        /* \"#utility.yul\":3133:3134   */\n      0x00\n        /* \"#utility.yul\":3162:3164   */\n      dup1\n        /* \"#utility.yul\":3158:3160   */\n      dup2\n        /* \"#utility.yul\":3151:3165   */\n      revert\n        /* \"#utility.yul\":3070:3179   */\n    tag_394:\n        /* \"#utility.yul\":3214:3225   */\n      dup2\n        /* \"#utility.yul\":3206:3212   */\n      dup11\n        /* \"#utility.yul\":3202:3226   */\n      add\n        /* \"#utility.yul\":3192:3226   */\n      swap2\n      pop\n        /* \"#utility.yul\":3266:3269   */\n      dup11\n        /* \"#utility.yul\":3261:3263   */\n      0x3f\n        /* \"#utility.yul\":3257:3259   */\n      dup4\n        /* \"#utility.yul\":3253:3264   */\n      add\n        /* \"#utility.yul\":3249:3270   */\n      slt\n        /* \"#utility.yul\":3239:3358   */\n      tag_395\n      jumpi\n        /* \"#utility.yul\":3312:3313   */\n      0x00\n        /* \"#utility.yul\":3341:3343   */\n      dup1\n        /* \"#utility.yul\":3337:3339   */\n      dup2\n        /* \"#utility.yul\":3330:3344   */\n      revert\n        /* \"#utility.yul\":3239:3358   */\n    tag_395:\n        /* \"#utility.yul\":3402:3404   */\n      dup6\n        /* \"#utility.yul\":3398:3400   */\n      dup3\n        /* \"#utility.yul\":3394:3405   */\n      add\n        /* \"#utility.yul\":3381:3406   */\n      calldataload\n        /* \"#utility.yul\":3429:3431   */\n      0x40\n        /* \"#utility.yul\":3454:3456   */\n      dup3\n        /* \"#utility.yul\":3450:3452   */\n      dup3\n        /* \"#utility.yul\":3447:3457   */\n      gt\n        /* \"#utility.yul\":3444:3480   */\n      iszero\n      tag_397\n      jumpi\n        /* \"#utility.yul\":3460:3478   */\n      tag_397\n      tag_348\n      jump\t// in\n    tag_397:\n        /* \"#utility.yul\":3508:3559   */\n      tag_398\n        /* \"#utility.yul\":3532:3543   */\n      dup3\n      dup12\n      add\n      not(0x1f)\n        /* \"#utility.yul\":3528:3553   */\n      and\n        /* \"#utility.yul\":3524:3558   */\n      dup10\n      add\n        /* \"#utility.yul\":3508:3559   */\n      tag_349\n      jump\t// in\n    tag_398:\n        /* \"#utility.yul\":3493:3559   */\n      swap3\n      pop\n        /* \"#utility.yul\":3588:3590   */\n      dup2\n        /* \"#utility.yul\":3579:3586   */\n      dup4\n        /* \"#utility.yul\":3572:3591   */\n      mstore\n        /* \"#utility.yul\":3632:3635   */\n      dup13\n        /* \"#utility.yul\":3627:3629   */\n      dup2\n        /* \"#utility.yul\":3622:3624   */\n      dup4\n        /* \"#utility.yul\":3618:3620   */\n      dup7\n        /* \"#utility.yul\":3614:3625   */\n      add\n        /* \"#utility.yul\":3610:3630   */\n      add\n        /* \"#utility.yul\":3607:3636   */\n      gt\n        /* \"#utility.yul\":3604:3726   */\n      iszero\n      tag_399\n      jumpi\n        /* \"#utility.yul\":3678:3679   */\n      0x00\n        /* \"#utility.yul\":3708:3711   */\n      dup1\n        /* \"#utility.yul\":3703:3706   */\n      dup2\n        /* \"#utility.yul\":3696:3712   */\n      revert\n        /* \"#utility.yul\":3604:3726   */\n    tag_399:\n        /* \"#utility.yul\":3783:3785   */\n      dup2\n        /* \"#utility.yul\":3778:3780   */\n      dup2\n        /* \"#utility.yul\":3774:3776   */\n      dup6\n        /* \"#utility.yul\":3770:3781   */\n      add\n        /* \"#utility.yul\":3765:3767   */\n      dup10\n        /* \"#utility.yul\":3756:3763   */\n      dup6\n        /* \"#utility.yul\":3752:3768   */\n      add\n        /* \"#utility.yul\":3739:3786   */\n      calldatacopy\n      pop\n        /* \"#utility.yul\":3833:3834   */\n      0x00\n        /* \"#utility.yul\":3810:3826   */\n      swap1\n      dup3\n      add\n        /* \"#utility.yul\":3806:3831   */\n      dup8\n      add\n        /* \"#utility.yul\":3799:3835   */\n      mstore\n        /* \"#utility.yul\":3848:3868   */\n      dup5\n      mstore\n      pop\n        /* \"#utility.yul\":3888:3900   */\n      swap2\n      dup4\n      add\n      swap2\n        /* \"#utility.yul\":2943:2955   */\n      dup4\n      add\n        /* \"#utility.yul\":2910:3910   */\n      jump(tag_391)\n    tag_393:\n      pop\n        /* \"#utility.yul\":3928:3933   */\n      swap8\n        /* \"#utility.yul\":2392:3939   */\n      swap7\n      pop\n      pop\n      pop\n      pop\n      pop\n      pop\n      pop\n      jump\t// out\n        /* \"#utility.yul\":3944:4086   */\n    tag_355:\n        /* \"#utility.yul\":4012:4032   */\n      dup1\n      calldataload\n        /* \"#utility.yul\":4041:4080   */\n      tag_401\n        /* \"#utility.yul\":4012:4032   */\n      dup2\n        /* \"#utility.yul\":4041:4080   */\n      tag_351\n      jump\t// in\n    tag_401:\n        /* \"#utility.yul\":3944:4086   */\n      swap2\n      swap1\n      pop\n      jump\t// out\n        /* \"#utility.yul\":4091:5918   */\n    tag_28:\n        /* \"#utility.yul\":4405:4411   */\n      0x00\n        /* \"#utility.yul\":4413:4419   */\n      dup1\n        /* \"#utility.yul\":4421:4427   */\n      0x00\n        /* \"#utility.yul\":4429:4435   */\n      dup1\n        /* \"#utility.yul\":4437:4443   */\n      0x00\n        /* \"#utility.yul\":4445:4451   */\n      dup1\n        /* \"#utility.yul\":4453:4459   */\n      0x00\n        /* \"#utility.yul\":4461:4467   */\n      dup1\n        /* \"#utility.yul\":4514:4517   */\n      0x0100\n        /* \"#utility.yul\":4502:4511   */\n      dup10\n        /* \"#utility.yul\":4493:4500   */\n      dup12\n        /* \"#utility.yul\":4489:4512   */\n      sub\n        /* \"#utility.yul\":4485:4518   */\n      slt\n        /* \"#utility.yul\":4482:4535   */\n      iszero\n      tag_403\n      jumpi\n        /* \"#utility.yul\":4531:4532   */\n      0x00\n        /* \"#utility.yul\":4528:4529   */\n      dup1\n        /* \"#utility.yul\":4521:4533   */\n      revert\n        /* \"#utility.yul\":4482:4535   */\n    tag_403:\n        /* \"#utility.yul\":4571:4580   */\n      dup9\n        /* \"#utility.yul\":4558:4581   */\n      calldataload\n        /* \"#utility.yul\":4600:4618   */\n      0xffffffffffffffff\n        /* \"#utility.yul\":4641:4643   */\n      dup1\n        /* \"#utility.yul\":4633:4639   */\n      dup3\n        /* \"#utility.yul\":4630:4644   */\n      gt\n        /* \"#utility.yul\":4627:4661   */\n      iszero\n      tag_404\n      jumpi\n        /* \"#utility.yul\":4657:4658   */\n      0x00\n        /* \"#utility.yul\":4654:4655   */\n      dup1\n        /* \"#utility.yul\":4647:4659   */\n      revert\n        /* \"#utility.yul\":4627:4661   */\n    tag_404:\n        /* \"#utility.yul\":4680:4749   */\n      tag_405\n        /* \"#utility.yul\":4741:4748   */\n      dup13\n        /* \"#utility.yul\":4732:4738   */\n      dup4\n        /* \"#utility.yul\":4721:4730   */\n      dup14\n        /* \"#utility.yul\":4717:4739   */\n      add\n        /* \"#utility.yul\":4680:4749   */\n      tag_352\n      jump\t// in\n    tag_405:\n        /* \"#utility.yul\":4670:4749   */\n      swap10\n      pop\n        /* \"#utility.yul\":4802:4804   */\n      0x20\n        /* \"#utility.yul\":4791:4800   */\n      dup12\n        /* \"#utility.yul\":4787:4805   */\n      add\n        /* \"#utility.yul\":4774:4806   */\n      calldataload\n        /* \"#utility.yul\":4758:4806   */\n      swap2\n      pop\n        /* \"#utility.yul\":4831:4833   */\n      dup1\n        /* \"#utility.yul\":4821:4829   */\n      dup3\n        /* \"#utility.yul\":4818:4834   */\n      gt\n        /* \"#utility.yul\":4815:4851   */\n      iszero\n      tag_406\n      jumpi\n        /* \"#utility.yul\":4847:4848   */\n      0x00\n        /* \"#utility.yul\":4844:4845   */\n      dup1\n        /* \"#utility.yul\":4837:4849   */\n      revert\n        /* \"#utility.yul\":4815:4851   */\n    tag_406:\n        /* \"#utility.yul\":4870:4933   */\n      tag_407\n        /* \"#utility.yul\":4925:4932   */\n      dup13\n        /* \"#utility.yul\":4914:4922   */\n      dup4\n        /* \"#utility.yul\":4903:4912   */\n      dup14\n        /* \"#utility.yul\":4899:4923   */\n      add\n        /* \"#utility.yul\":4870:4933   */\n      tag_353\n      jump\t// in\n    tag_407:\n        /* \"#utility.yul\":4860:4933   */\n      swap9\n      pop\n        /* \"#utility.yul\":4986:4988   */\n      0x40\n        /* \"#utility.yul\":4975:4984   */\n      dup12\n        /* \"#utility.yul\":4971:4989   */\n      add\n        /* \"#utility.yul\":4958:4990   */\n      calldataload\n        /* \"#utility.yul\":4942:4990   */\n      swap2\n      pop\n        /* \"#utility.yul\":5015:5017   */\n      dup1\n        /* \"#utility.yul\":5005:5013   */\n      dup3\n        /* \"#utility.yul\":5002:5018   */\n      gt\n        /* \"#utility.yul\":4999:5035   */\n      iszero\n      tag_408\n      jumpi\n        /* \"#utility.yul\":5031:5032   */\n      0x00\n        /* \"#utility.yul\":5028:5029   */\n      dup1\n        /* \"#utility.yul\":5021:5033   */\n      revert\n        /* \"#utility.yul\":4999:5035   */\n    tag_408:\n        /* \"#utility.yul\":5054:5117   */\n      tag_409\n        /* \"#utility.yul\":5109:5116   */\n      dup13\n        /* \"#utility.yul\":5098:5106   */\n      dup4\n        /* \"#utility.yul\":5087:5096   */\n      dup14\n        /* \"#utility.yul\":5083:5107   */\n      add\n        /* \"#utility.yul\":5054:5117   */\n      tag_353\n      jump\t// in\n    tag_409:\n        /* \"#utility.yul\":5044:5117   */\n      swap8\n      pop\n        /* \"#utility.yul\":5170:5172   */\n      0x60\n        /* \"#utility.yul\":5159:5168   */\n      dup12\n        /* \"#utility.yul\":5155:5173   */\n      add\n        /* \"#utility.yul\":5142:5174   */\n      calldataload\n        /* \"#utility.yul\":5126:5174   */\n      swap2\n      pop\n        /* \"#utility.yul\":5199:5201   */\n      dup1\n        /* \"#utility.yul\":5189:5197   */\n      dup3\n        /* \"#utility.yul\":5186:5202   */\n      gt\n        /* \"#utility.yul\":5183:5219   */\n      iszero\n      tag_410\n      jumpi\n        /* \"#utility.yul\":5215:5216   */\n      0x00\n        /* \"#utility.yul\":5212:5213   */\n      dup1\n        /* \"#utility.yul\":5205:5217   */\n      revert\n        /* \"#utility.yul\":5183:5219   */\n    tag_410:\n        /* \"#utility.yul\":5238:5301   */\n      tag_411\n        /* \"#utility.yul\":5293:5300   */\n      dup13\n        /* \"#utility.yul\":5282:5290   */\n      dup4\n        /* \"#utility.yul\":5271:5280   */\n      dup14\n        /* \"#utility.yul\":5267:5291   */\n      add\n        /* \"#utility.yul\":5238:5301   */\n      tag_353\n      jump\t// in\n    tag_411:\n        /* \"#utility.yul\":5228:5301   */\n      swap7\n      pop\n        /* \"#utility.yul\":5354:5357   */\n      0x80\n        /* \"#utility.yul\":5343:5352   */\n      dup12\n        /* \"#utility.yul\":5339:5358   */\n      add\n        /* \"#utility.yul\":5326:5359   */\n      calldataload\n        /* \"#utility.yul\":5310:5359   */\n      swap2\n      pop\n        /* \"#utility.yul\":5384:5386   */\n      dup1\n        /* \"#utility.yul\":5374:5382   */\n      dup3\n        /* \"#utility.yul\":5371:5387   */\n      gt\n        /* \"#utility.yul\":5368:5404   */\n      iszero\n      tag_412\n      jumpi\n        /* \"#utility.yul\":5400:5401   */\n      0x00\n        /* \"#utility.yul\":5397:5398   */\n      dup1\n        /* \"#utility.yul\":5390:5402   */\n      revert\n        /* \"#utility.yul\":5368:5404   */\n    tag_412:\n        /* \"#utility.yul\":5423:5486   */\n      tag_413\n        /* \"#utility.yul\":5478:5485   */\n      dup13\n        /* \"#utility.yul\":5467:5475   */\n      dup4\n        /* \"#utility.yul\":5456:5465   */\n      dup14\n        /* \"#utility.yul\":5452:5476   */\n      add\n        /* \"#utility.yul\":5423:5486   */\n      tag_353\n      jump\t// in\n    tag_413:\n        /* \"#utility.yul\":5413:5486   */\n      swap6\n      pop\n        /* \"#utility.yul\":5539:5542   */\n      0xa0\n        /* \"#utility.yul\":5528:5537   */\n      dup12\n        /* \"#utility.yul\":5524:5543   */\n      add\n        /* \"#utility.yul\":5511:5544   */\n      calldataload\n        /* \"#utility.yul\":5495:5544   */\n      swap2\n      pop\n        /* \"#utility.yul\":5569:5571   */\n      dup1\n        /* \"#utility.yul\":5559:5567   */\n      dup3\n        /* \"#utility.yul\":5556:5572   */\n      gt\n        /* \"#utility.yul\":5553:5589   */\n      iszero\n      tag_414\n      jumpi\n        /* \"#utility.yul\":5585:5586   */\n      0x00\n        /* \"#utility.yul\":5582:5583   */\n      dup1\n        /* \"#utility.yul\":5575:5587   */\n      revert\n        /* \"#utility.yul\":5553:5589   */\n    tag_414:\n        /* \"#utility.yul\":5608:5671   */\n      tag_415\n        /* \"#utility.yul\":5663:5670   */\n      dup13\n        /* \"#utility.yul\":5652:5660   */\n      dup4\n        /* \"#utility.yul\":5641:5650   */\n      dup14\n        /* \"#utility.yul\":5637:5661   */\n      add\n        /* \"#utility.yul\":5608:5671   */\n      tag_353\n      jump\t// in\n    tag_415:\n        /* \"#utility.yul\":5598:5671   */\n      swap5\n      pop\n        /* \"#utility.yul\":5724:5727   */\n      0xc0\n        /* \"#utility.yul\":5713:5722   */\n      dup12\n        /* \"#utility.yul\":5709:5728   */\n      add\n        /* \"#utility.yul\":5696:5729   */\n      calldataload\n        /* \"#utility.yul\":5680:5729   */\n      swap2\n      pop\n        /* \"#utility.yul\":5754:5756   */\n      dup1\n        /* \"#utility.yul\":5744:5752   */\n      dup3\n        /* \"#utility.yul\":5741:5757   */\n      gt\n        /* \"#utility.yul\":5738:5774   */\n      iszero\n      tag_416\n      jumpi\n        /* \"#utility.yul\":5770:5771   */\n      0x00\n        /* \"#utility.yul\":5767:5768   */\n      dup1\n        /* \"#utility.yul\":5760:5772   */\n      revert\n        /* \"#utility.yul\":5738:5774   */\n    tag_416:\n      pop\n        /* \"#utility.yul\":5793:5854   */\n      tag_417\n        /* \"#utility.yul\":5846:5853   */\n      dup12\n        /* \"#utility.yul\":5835:5843   */\n      dup3\n        /* \"#utility.yul\":5824:5833   */\n      dup13\n        /* \"#utility.yul\":5820:5844   */\n      add\n        /* \"#utility.yul\":5793:5854   */\n      tag_354\n      jump\t// in\n    tag_417:\n        /* \"#utility.yul\":5783:5854   */\n      swap3\n      pop\n      pop\n        /* \"#utility.yul\":5873:5912   */\n      tag_418\n        /* \"#utility.yul\":5907:5910   */\n      0xe0\n        /* \"#utility.yul\":5896:5905   */\n      dup11\n        /* \"#utility.yul\":5892:5911   */\n      add\n        /* \"#utility.yul\":5873:5912   */\n      tag_355\n      jump\t// in\n    tag_418:\n        /* \"#utility.yul\":5863:5912   */\n      swap1\n      pop\n        /* \"#utility.yul\":4091:5918   */\n      swap3\n      swap6\n      swap9\n      pop\n      swap3\n      swap6\n      swap9\n      swap1\n      swap4\n      swap7\n      pop\n      jump\t// out\n        /* \"#utility.yul\":6240:6563   */\n    tag_41:\n        /* \"#utility.yul\":6308:6314   */\n      0x00\n        /* \"#utility.yul\":6316:6322   */\n      dup1\n        /* \"#utility.yul\":6369:6371   */\n      0x40\n        /* \"#utility.yul\":6357:6366   */\n      dup4\n        /* \"#utility.yul\":6348:6355   */\n      dup6\n        /* \"#utility.yul\":6344:6367   */\n      sub\n        /* \"#utility.yul\":6340:6372   */\n      slt\n        /* \"#utility.yul\":6337:6389   */\n      iszero\n      tag_422\n      jumpi\n        /* \"#utility.yul\":6385:6386   */\n      0x00\n        /* \"#utility.yul\":6382:6383   */\n      dup1\n        /* \"#utility.yul\":6375:6387   */\n      revert\n        /* \"#utility.yul\":6337:6389   */\n    tag_422:\n        /* \"#utility.yul\":6424:6433   */\n      dup3\n        /* \"#utility.yul\":6411:6434   */\n      calldataload\n        /* \"#utility.yul\":6443:6482   */\n      tag_423\n        /* \"#utility.yul\":6476:6481   */\n      dup2\n        /* \"#utility.yul\":6443:6482   */\n      tag_351\n      jump\t// in\n    tag_423:\n        /* \"#utility.yul\":6501:6506   */\n      swap5\n        /* \"#utility.yul\":6553:6555   */\n      0x20\n        /* \"#utility.yul\":6538:6556   */\n      swap4\n      swap1\n      swap4\n      add\n        /* \"#utility.yul\":6525:6557   */\n      calldataload\n      swap4\n      pop\n      pop\n      pop\n        /* \"#utility.yul\":6240:6563   */\n      jump\t// out\n        /* \"#utility.yul\":6568:7048   */\n    tag_49:\n        /* \"#utility.yul\":6653:6659   */\n      0x00\n        /* \"#utility.yul\":6661:6667   */\n      dup1\n        /* \"#utility.yul\":6669:6675   */\n      0x00\n        /* \"#utility.yul\":6722:6724   */\n      0x60\n        /* \"#utility.yul\":6710:6719   */\n      dup5\n        /* \"#utility.yul\":6701:6708   */\n      dup7\n        /* \"#utility.yul\":6697:6720   */\n      sub\n        /* \"#utility.yul\":6693:6725   */\n      slt\n        /* \"#utility.yul\":6690:6742   */\n      iszero\n      tag_425\n      jumpi\n        /* \"#utility.yul\":6738:6739   */\n      0x00\n        /* \"#utility.yul\":6735:6736   */\n      dup1\n        /* \"#utility.yul\":6728:6740   */\n      revert\n        /* \"#utility.yul\":6690:6742   */\n    tag_425:\n        /* \"#utility.yul\":6777:6786   */\n      dup4\n        /* \"#utility.yul\":6764:6787   */\n      calldataload\n        /* \"#utility.yul\":6796:6835   */\n      tag_426\n        /* \"#utility.yul\":6829:6834   */\n      dup2\n        /* \"#utility.yul\":6796:6835   */\n      tag_351\n      jump\t// in\n    tag_426:\n        /* \"#utility.yul\":6854:6859   */\n      swap3\n      pop\n        /* \"#utility.yul\":6906:6908   */\n      0x20\n        /* \"#utility.yul\":6891:6909   */\n      dup5\n      add\n        /* \"#utility.yul\":6878:6910   */\n      calldataload\n      swap2\n      pop\n        /* \"#utility.yul\":6962:6964   */\n      0x40\n        /* \"#utility.yul\":6947:6965   */\n      dup5\n      add\n        /* \"#utility.yul\":6934:6966   */\n      calldataload\n        /* \"#utility.yul\":6975:7016   */\n      tag_427\n        /* \"#utility.yul\":6934:6966   */\n      dup2\n        /* \"#utility.yul\":6975:7016   */\n      tag_351\n      jump\t// in\n    tag_427:\n        /* \"#utility.yul\":7035:7042   */\n      dup1\n        /* \"#utility.yul\":7025:7042   */\n      swap2\n      pop\n      pop\n        /* \"#utility.yul\":6568:7048   */\n      swap3\n      pop\n      swap3\n      pop\n      swap3\n      jump\t// out\n        /* \"#utility.yul\":7053:7465   */\n    tag_54:\n        /* \"#utility.yul\":7129:7135   */\n      0x00\n        /* \"#utility.yul\":7137:7143   */\n      dup1\n        /* \"#utility.yul\":7190:7192   */\n      0x40\n        /* \"#utility.yul\":7178:7187   */\n      dup4\n        /* \"#utility.yul\":7169:7176   */\n      dup6\n        /* \"#utility.yul\":7165:7188   */\n      sub\n        /* \"#utility.yul\":7161:7193   */\n      slt\n        /* \"#utility.yul\":7158:7210   */\n      iszero\n      tag_429\n      jumpi\n        /* \"#utility.yul\":7206:7207   */\n      0x00\n        /* \"#utility.yul\":7203:7204   */\n      dup1\n        /* \"#utility.yul\":7196:7208   */\n      revert\n        /* \"#utility.yul\":7158:7210   */\n    tag_429:\n        /* \"#utility.yul\":7245:7254   */\n      dup3\n        /* \"#utility.yul\":7232:7255   */\n      calldataload\n        /* \"#utility.yul\":7264:7303   */\n      tag_430\n        /* \"#utility.yul\":7297:7302   */\n      dup2\n        /* \"#utility.yul\":7264:7303   */\n      tag_351\n      jump\t// in\n    tag_430:\n        /* \"#utility.yul\":7322:7327   */\n      swap2\n      pop\n        /* \"#utility.yul\":7379:7381   */\n      0x20\n        /* \"#utility.yul\":7364:7382   */\n      dup4\n      add\n        /* \"#utility.yul\":7351:7383   */\n      calldataload\n        /* \"#utility.yul\":7392:7433   */\n      tag_431\n        /* \"#utility.yul\":7351:7383   */\n      dup2\n        /* \"#utility.yul\":7392:7433   */\n      tag_351\n      jump\t// in\n    tag_431:\n        /* \"#utility.yul\":7452:7459   */\n      dup1\n        /* \"#utility.yul\":7442:7459   */\n      swap2\n      pop\n      pop\n        /* \"#utility.yul\":7053:7465   */\n      swap3\n      pop\n      swap3\n      swap1\n      pop\n      jump\t// out\n        /* \"#utility.yul\":7470:7725   */\n    tag_59:\n        /* \"#utility.yul\":7529:7535   */\n      0x00\n        /* \"#utility.yul\":7582:7584   */\n      0x20\n        /* \"#utility.yul\":7570:7579   */\n      dup3\n        /* \"#utility.yul\":7561:7568   */\n      dup5\n        /* \"#utility.yul\":7557:7580   */\n      sub\n        /* \"#utility.yul\":7553:7585   */\n      slt\n        /* \"#utility.yul\":7550:7602   */\n      iszero\n      tag_433\n      jumpi\n        /* \"#utility.yul\":7598:7599   */\n      0x00\n        /* \"#utility.yul\":7595:7596   */\n      dup1\n        /* \"#utility.yul\":7588:7600   */\n      revert\n        /* \"#utility.yul\":7550:7602   */\n    tag_433:\n        /* \"#utility.yul\":7637:7646   */\n      dup2\n        /* \"#utility.yul\":7624:7647   */\n      calldataload\n        /* \"#utility.yul\":7656:7695   */\n      tag_434\n        /* \"#utility.yul\":7689:7694   */\n      dup2\n        /* \"#utility.yul\":7656:7695   */\n      tag_351\n      jump\t// in\n    tag_434:\n        /* \"#utility.yul\":7714:7719   */\n      swap4\n        /* \"#utility.yul\":7470:7725   */\n      swap3\n      pop\n      pop\n      pop\n      jump\t// out\n        /* \"#utility.yul\":7940:8281   */\n    tag_73:\n        /* \"#utility.yul\":8142:8144   */\n      0x20\n        /* \"#utility.yul\":8124:8145   */\n      dup1\n      dup3\n      mstore\n        /* \"#utility.yul\":8181:8183   */\n      0x11\n        /* \"#utility.yul\":8161:8179   */\n      swap1\n      dup3\n      add\n        /* \"#utility.yul\":8154:8184   */\n      mstore\n      shl(0x79, 0x31b0b73737ba1039b2b7321032ba3432b9)\n        /* \"#utility.yul\":8215:8217   */\n      0x40\n        /* \"#utility.yul\":8200:8218   */\n      dup3\n      add\n        /* \"#utility.yul\":8193:8240   */\n      mstore\n        /* \"#utility.yul\":8272:8274   */\n      0x60\n        /* \"#utility.yul\":8257:8275   */\n      add\n      swap1\n        /* \"#utility.yul\":7940:8281   */\n      jump\t// out\n        /* \"#utility.yul\":8286:8413   */\n    tag_83:\n        /* \"#utility.yul\":8347:8357   */\n      0x4e487b71\n        /* \"#utility.yul\":8342:8345   */\n      0xe0\n        /* \"#utility.yul\":8338:8358   */\n      shl\n        /* \"#utility.yul\":8335:8336   */\n      0x00\n        /* \"#utility.yul\":8328:8359   */\n      mstore\n        /* \"#utility.yul\":8378:8382   */\n      0x32\n        /* \"#utility.yul\":8375:8376   */\n      0x04\n        /* \"#utility.yul\":8368:8383   */\n      mstore\n        /* \"#utility.yul\":8402:8406   */\n      0x24\n        /* \"#utility.yul\":8399:8400   */\n      0x00\n        /* \"#utility.yul\":8392:8407   */\n      revert\n        /* \"#utility.yul\":8418:8677   */\n    tag_88:\n        /* \"#utility.yul\":8488:8494   */\n      0x00\n        /* \"#utility.yul\":8541:8543   */\n      0x20\n        /* \"#utility.yul\":8529:8538   */\n      dup3\n        /* \"#utility.yul\":8520:8527   */\n      dup5\n        /* \"#utility.yul\":8516:8539   */\n      sub\n        /* \"#utility.yul\":8512:8544   */\n      slt\n        /* \"#utility.yul\":8509:8561   */\n      iszero\n      tag_439\n      jumpi\n        /* \"#utility.yul\":8557:8558   */\n      0x00\n        /* \"#utility.yul\":8554:8555   */\n      dup1\n        /* \"#utility.yul\":8547:8559   */\n      revert\n        /* \"#utility.yul\":8509:8561   */\n    tag_439:\n        /* \"#utility.yul\":8589:8598   */\n      dup2\n        /* \"#utility.yul\":8583:8599   */\n      mload\n        /* \"#utility.yul\":8608:8647   */\n      tag_434\n        /* \"#utility.yul\":8641:8646   */\n      dup2\n        /* \"#utility.yul\":8608:8647   */\n      tag_351\n      jump\t// in\n        /* \"#utility.yul\":10237:11411   */\n    tag_138:\n        /* \"#utility.yul\":10477:10481   */\n      0x00\n        /* \"#utility.yul\":10506:10509   */\n      0x0100\n        /* \"#utility.yul\":10529:10538   */\n      dup3\n        /* \"#utility.yul\":10586:10592   */\n      dup8\n        /* \"#utility.yul\":10477:10481   */\n      dup4\n        /* \"#utility.yul\":10620:10814   */\n    tag_447:\n        /* \"#utility.yul\":10634:10638   */\n      0x05\n        /* \"#utility.yul\":10631:10632   */\n      dup2\n        /* \"#utility.yul\":10628:10639   */\n      lt\n        /* \"#utility.yul\":10620:10814   */\n      iszero\n      tag_449\n      jumpi\n        /* \"#utility.yul\":10693:10706   */\n      dup2\n      mload\n        /* \"#utility.yul\":10681:10707   */\n      dup4\n      mstore\n        /* \"#utility.yul\":10730:10734   */\n      0x20\n        /* \"#utility.yul\":10754:10766   */\n      swap3\n      dup4\n      add\n      swap3\n        /* \"#utility.yul\":10789:10804   */\n      swap1\n      swap2\n      add\n      swap1\n        /* \"#utility.yul\":10654:10655   */\n      0x01\n        /* \"#utility.yul\":10647:10656   */\n      add\n        /* \"#utility.yul\":10620:10814   */\n      jump(tag_447)\n    tag_449:\n        /* \"#utility.yul\":10624:10627   */\n      pop\n      pop\n      pop\n        /* \"#utility.yul\":10851:10853   */\n      dup1\n        /* \"#utility.yul\":10845:10848   */\n      0xa0\n        /* \"#utility.yul\":10834:10843   */\n      dup5\n        /* \"#utility.yul\":10830:10849   */\n      add\n        /* \"#utility.yul\":10823:10854   */\n      mstore\n        /* \"#utility.yul\":10883:10889   */\n      dup6\n        /* \"#utility.yul\":10877:10890   */\n      mload\n        /* \"#utility.yul\":10926:10932   */\n      dup1\n        /* \"#utility.yul\":10921:10923   */\n      dup3\n        /* \"#utility.yul\":10910:10919   */\n      dup6\n        /* \"#utility.yul\":10906:10924   */\n      add\n        /* \"#utility.yul\":10899:10933   */\n      mstore\n        /* \"#utility.yul\":10953:10954   */\n      0x00\n        /* \"#utility.yul\":10942:10954   */\n      swap2\n      pop\n        /* \"#utility.yul\":10963:11118   */\n    tag_450:\n        /* \"#utility.yul\":10979:10985   */\n      dup1\n        /* \"#utility.yul\":10974:10977   */\n      dup3\n        /* \"#utility.yul\":10971:10986   */\n      lt\n        /* \"#utility.yul\":10963:11118   */\n      iszero\n      tag_452\n      jumpi\n        /* \"#utility.yul\":11101:11105   */\n      0x20\n        /* \"#utility.yul\":11095:11098   */\n      dup3\n        /* \"#utility.yul\":11087:11093   */\n      dup9\n        /* \"#utility.yul\":11083:11099   */\n      add\n        /* \"#utility.yul\":11079:11106   */\n      add\n        /* \"#utility.yul\":11073:11107   */\n      mload\n        /* \"#utility.yul\":11067:11070   */\n      0x0120\n        /* \"#utility.yul\":11061:11064   */\n      dup4\n        /* \"#utility.yul\":11050:11059   */\n      dup7\n        /* \"#utility.yul\":11046:11065   */\n      add\n        /* \"#utility.yul\":11042:11071   */\n      add\n        /* \"#utility.yul\":11035:11108   */\n      mstore\n        /* \"#utility.yul\":11005:11009   */\n      0x20\n        /* \"#utility.yul\":11000:11003   */\n      dup3\n        /* \"#utility.yul\":10996:11010   */\n      add\n        /* \"#utility.yul\":10989:11010   */\n      swap2\n      pop\n        /* \"#utility.yul\":10963:11118   */\n      jump(tag_450)\n    tag_452:\n        /* \"#utility.yul\":11138:11144   */\n      dup1\n        /* \"#utility.yul\":11133:11136   */\n      dup3\n        /* \"#utility.yul\":11130:11145   */\n      gt\n        /* \"#utility.yul\":11127:11221   */\n      iszero\n      tag_453\n      jumpi\n        /* \"#utility.yul\":11209:11210   */\n      0x00\n        /* \"#utility.yul\":11203:11206   */\n      0x0120\n        /* \"#utility.yul\":11194:11200   */\n      dup3\n        /* \"#utility.yul\":11183:11192   */\n      dup7\n        /* \"#utility.yul\":11179:11201   */\n      add\n        /* \"#utility.yul\":11175:11207   */\n      add\n        /* \"#utility.yul\":11168:11211   */\n      mstore\n        /* \"#utility.yul\":11127:11221   */\n    tag_453:\n        /* \"#utility.yul\":11282:11284   */\n      0x1f\n        /* \"#utility.yul\":11261:11276   */\n      add\n      not(0x1f)\n        /* \"#utility.yul\":11257:11286   */\n      and\n        /* \"#utility.yul\":11242:11287   */\n      dup4\n      add\n        /* \"#utility.yul\":11289:11292   */\n      0x0120\n        /* \"#utility.yul\":11238:11293   */\n      add\n      swap2\n      pop\n        /* \"#utility.yul\":11302:11349   */\n      tag_454\n      swap1\n      pop\n        /* \"#utility.yul\":11344:11347   */\n      0xc0\n        /* \"#utility.yul\":11329:11348   */\n      dup4\n      add\n        /* \"#utility.yul\":11321:11327   */\n      dup6\n      sub(shl(0xa0, 0x01), 0x01)\n        /* \"#utility.yul\":5989:6020   */\n      and\n        /* \"#utility.yul\":5977:6021   */\n      swap1\n      mstore\n        /* \"#utility.yul\":5923:6027   */\n      jump\n        /* \"#utility.yul\":11302:11349   */\n    tag_454:\n      sub(shl(0xa0, 0x01), 0x01)\n        /* \"#utility.yul\":5989:6020   */\n      dup4\n      and\n        /* \"#utility.yul\":11400:11403   */\n      0xe0\n        /* \"#utility.yul\":11385:11404   */\n      dup4\n      add\n        /* \"#utility.yul\":5977:6021   */\n      mstore\n        /* \"#utility.yul\":10237:11411   */\n      swap6\n      swap5\n      pop\n      pop\n      pop\n      pop\n      pop\n      jump\t// out\n        /* \"#utility.yul\":11416:11693   */\n    tag_143:\n        /* \"#utility.yul\":11483:11489   */\n      0x00\n        /* \"#utility.yul\":11536:11538   */\n      0x20\n        /* \"#utility.yul\":11524:11533   */\n      dup3\n        /* \"#utility.yul\":11515:11522   */\n      dup5\n        /* \"#utility.yul\":11511:11534   */\n      sub\n        /* \"#utility.yul\":11507:11539   */\n      slt\n        /* \"#utility.yul\":11504:11556   */\n      iszero\n      tag_457\n      jumpi\n        /* \"#utility.yul\":11552:11553   */\n      0x00\n        /* \"#utility.yul\":11549:11550   */\n      dup1\n        /* \"#utility.yul\":11542:11554   */\n      revert\n        /* \"#utility.yul\":11504:11556   */\n    tag_457:\n        /* \"#utility.yul\":11584:11593   */\n      dup2\n        /* \"#utility.yul\":11578:11594   */\n      mload\n        /* \"#utility.yul\":11637:11642   */\n      dup1\n        /* \"#utility.yul\":11630:11643   */\n      iszero\n        /* \"#utility.yul\":11623:11644   */\n      iszero\n        /* \"#utility.yul\":11616:11621   */\n      dup2\n        /* \"#utility.yul\":11613:11645   */\n      eq\n        /* \"#utility.yul\":11603:11663   */\n      tag_434\n      jumpi\n        /* \"#utility.yul\":11659:11660   */\n      0x00\n        /* \"#utility.yul\":11656:11657   */\n      dup1\n        /* \"#utility.yul\":11649:11661   */\n      revert\n        /* \"#utility.yul\":11698:11992   */\n    tag_145:\n        /* \"#utility.yul\":11736:11739   */\n      0x00\n        /* \"#utility.yul\":11764:11770   */\n      0xffff\n        /* \"#utility.yul\":11805:11807   */\n      dup1\n        /* \"#utility.yul\":11798:11803   */\n      dup4\n        /* \"#utility.yul\":11794:11808   */\n      and\n        /* \"#utility.yul\":11832:11834   */\n      dup2\n        /* \"#utility.yul\":11823:11830   */\n      dup2\n        /* \"#utility.yul\":11820:11835   */\n      eq\n        /* \"#utility.yul\":11817:11955   */\n      iszero\n      tag_460\n      jumpi\n        /* \"#utility.yul\":11877:11887   */\n      0x4e487b71\n        /* \"#utility.yul\":11872:11875   */\n      0xe0\n        /* \"#utility.yul\":11868:11888   */\n      shl\n        /* \"#utility.yul\":11865:11866   */\n      0x00\n        /* \"#utility.yul\":11858:11889   */\n      mstore\n        /* \"#utility.yul\":11912:11916   */\n      0x11\n        /* \"#utility.yul\":11909:11910   */\n      0x04\n        /* \"#utility.yul\":11902:11917   */\n      mstore\n        /* \"#utility.yul\":11940:11944   */\n      0x24\n        /* \"#utility.yul\":11937:11938   */\n      0x00\n        /* \"#utility.yul\":11930:11945   */\n      revert\n        /* \"#utility.yul\":11817:11955   */\n    tag_460:\n        /* \"#utility.yul\":11984:11985   */\n      0x01\n        /* \"#utility.yul\":11971:11986   */\n      add\n      swap4\n        /* \"#utility.yul\":11698:11992   */\n      swap3\n      pop\n      pop\n      pop\n      jump\t// out\n        /* \"#utility.yul\":12284:12468   */\n    tag_157:\n        /* \"#utility.yul\":12354:12360   */\n      0x00\n        /* \"#utility.yul\":12407:12409   */\n      0x20\n        /* \"#utility.yul\":12395:12404   */\n      dup3\n        /* \"#utility.yul\":12386:12393   */\n      dup5\n        /* \"#utility.yul\":12382:12405   */\n      sub\n        /* \"#utility.yul\":12378:12410   */\n      slt\n        /* \"#utility.yul\":12375:12427   */\n      iszero\n      tag_463\n      jumpi\n        /* \"#utility.yul\":12423:12424   */\n      0x00\n        /* \"#utility.yul\":12420:12421   */\n      dup1\n        /* \"#utility.yul\":12413:12425   */\n      revert\n        /* \"#utility.yul\":12375:12427   */\n    tag_463:\n      pop\n        /* \"#utility.yul\":12446:12462   */\n      mload\n      swap2\n        /* \"#utility.yul\":12284:12468   */\n      swap1\n      pop\n      jump\t// out\n        /* \"#utility.yul\":15100:15507   */\n    tag_337:\n        /* \"#utility.yul\":15302:15304   */\n      0x20\n        /* \"#utility.yul\":15284:15305   */\n      dup1\n      dup3\n      mstore\n        /* \"#utility.yul\":15341:15343   */\n      0x2b\n        /* \"#utility.yul\":15321:15339   */\n      swap1\n      dup3\n      add\n        /* \"#utility.yul\":15314:15344   */\n      mstore\n        /* \"#utility.yul\":15380:15414   */\n      0x496e697469616c697a61626c653a20636f6e7472616374206973206e6f742069\n        /* \"#utility.yul\":15375:15377   */\n      0x40\n        /* \"#utility.yul\":15360:15378   */\n      dup3\n      add\n        /* \"#utility.yul\":15353:15415   */\n      mstore\n      shl(0xa8, 0x6e697469616c697a696e67)\n        /* \"#utility.yul\":15446:15448   */\n      0x60\n        /* \"#utility.yul\":15431:15449   */\n      dup3\n      add\n        /* \"#utility.yul\":15424:15465   */\n      mstore\n        /* \"#utility.yul\":15497:15500   */\n      0x80\n        /* \"#utility.yul\":15482:15501   */\n      add\n      swap1\n        /* \"#utility.yul\":15100:15507   */\n      jump\t// out\n\n    auxdata: 0xa2646970667358221220571d4f34068d4915b4d3739d88aa34155df286c900de11fe7c43021b4c99d72264736f6c63430008090033\n}\n",
				"bytecode": {
					"linkReferences": {},
					"object": "608060405234801561001057600080fd5b5061001961001e565b6100dd565b600054610100900460ff161561008a5760405162461bcd60e51b815260206004820152602760248201527f496e697469616c697a61626c653a20636f6e747261637420697320696e697469604482015266616c697a696e6760c81b606482015260840160405180910390fd5b60005460ff908116146100db576000805460ff191660ff9081179091556040519081527f7f26b83ff96e1f2b6a682f133852f6798a09c465da95921460cefb38474024989060200160405180910390a15b565b611db9806100ec6000396000f3fe6080604052600436106100955760003560e01c8063a1db978211610059578063a1db978214610144578063a489de5b14610164578063bcc3c25514610184578063f09a401614610197578063f2fde38b146101b757600080fd5b80632e1a7d4d146100a157806369fe0e2d146100c35780636f359b5a146100e3578063715018a6146101035780638da5cb5b1461011857600080fd5b3661009c57005b600080fd5b3480156100ad57600080fd5b506100c16100bc36600461176c565b6101d7565b005b3480156100cf57600080fd5b506100c16100de36600461176c565b610270565b3480156100ef57600080fd5b506100c16100fe3660046119c8565b61027d565b34801561010f57600080fd5b506100c161097e565b34801561012457600080fd5b50603354604080516001600160a01b039092168252519081900360200190f35b34801561015057600080fd5b506100c161015f366004611af4565b610992565b34801561017057600080fd5b506100c161017f3660046119c8565b610a40565b6100c1610192366004611b20565b6110a4565b3480156101a357600080fd5b506100c16101b2366004611b62565b61141d565b3480156101c357600080fd5b506100c16101d2366004611b9b565b611564565b6101df6115dd565b60006101f36033546001600160a01b031690565b6001600160a01b03168260405160006040518083038185875af1925050503d806000811461023d576040519150601f19603f3d011682016040523d82523d6000602084013e610242565b606091505b505090508061026c5760405162461bcd60e51b815260040161026390611bbf565b60405180910390fd5b5050565b6102786115dd565b606755565b60005b88518161ffff1610156107aa576000898261ffff16815181106102a5576102a5611bea565b60200260200101516001600160a01b031663fd9147ae6040518163ffffffff1660e01b815260040160206040518083038186803b1580156102e557600080fd5b505afa1580156102f9573d6000803e3d6000fd5b505050506040513d601f19601f8201168201806040525081019061031d9190611c00565b6065549091506001600160a01b038083169116146103735760405162461bcd60e51b81526020600482015260136024820152720dedcd8f240eedee4d6e640ccdee440ae8aa89606b1b6044820152606401610263565b60008a8361ffff168151811061038b5761038b611bea565b60200260200101516001600160a01b03166394bfd7b06040518163ffffffff1660e01b815260040160206040518083038186803b1580156103cb57600080fd5b505afa1580156103df573d6000803e3d6000fd5b505050506040513d601f19601f820116820180604052508101906104039190611c00565b9050336001600160a01b0316816001600160a01b0316636352211e8b8661ffff168151811061043457610434611bea565b60200260200101516040518263ffffffff1660e01b815260040161045a91815260200190565b60206040518083038186803b15801561047257600080fd5b505afa158015610486573d6000803e3d6000fd5b505050506040513d601f19601f820116820180604052508101906104aa9190611c00565b6001600160a01b0316146104f65760405162461bcd60e51b8152602060048201526013602482015272155cd95c881b9bdd081bdddb9a5b99c8139195606a1b6044820152606401610263565b806001600160a01b031663a22cb4658c8561ffff168151811061051b5761051b611bea565b60209081029190910101516040516001600160e01b031960e084901b1681526001600160a01b03909116600482015260016024820152604401600060405180830381600087803b15801561056e57600080fd5b505af1158015610582573d6000803e3d6000fd5b50505050806001600160a01b03166323b872dd33308c8761ffff16815181106105ad576105ad611bea565b60209081029190910101516040516001600160e01b031960e086901b1681526001600160a01b0393841660048201529290911660248301526044820152606401600060405180830381600087803b15801561060757600080fd5b505af115801561061b573d6000803e3d6000fd5b505050508a8361ffff168151811061063557610635611bea565b60200260200101516001600160a01b03166378d4c57a6040518060a001604052808d8761ffff168151811061066c5761066c611bea565b602002602001015181526020018c8761ffff168151811061068f5761068f611bea565b602002602001015181526020018b8761ffff16815181106106b2576106b2611bea565b602002602001015181526020018a8761ffff16815181106106d5576106d5611bea565b60200260200101518152602001898761ffff16815181106106f8576106f8611bea565b6020026020010151815250878661ffff168151811061071957610719611bea565b602002602001015133886040518563ffffffff1660e01b81526004016107429493929190611c1d565b602060405180830381600087803b15801561075c57600080fd5b505af1158015610770573d6000803e3d6000fd5b505050506040513d601f19601f820116820180604052508101906107949190611ccd565b50505080806107a290611cef565b915050610280565b5060655460665460675460405163a9059cbb60e01b81526001600160a01b039283166004820152602481019190915291169063a9059cbb90604401602060405180830381600087803b1580156107ff57600080fd5b505af1158015610813573d6000803e3d6000fd5b505050506040513d601f19601f820116820180604052508101906108379190611ccd565b506065546040516370a0823160e01b81523060048201526001600160a01b0390911690632e1a7d4d9082906370a082319060240160206040518083038186803b15801561088357600080fd5b505afa158015610897573d6000803e3d6000fd5b505050506040513d601f19601f820116820180604052508101906108bb9190611d1f565b6040518263ffffffff1660e01b81526004016108d991815260200190565b600060405180830381600087803b1580156108f357600080fd5b505af1158015610907573d6000803e3d6000fd5b50506040516000925033915047908381818185875af1925050503d806000811461094d576040519150601f19603f3d011682016040523d82523d6000602084013e610952565b606091505b50509050806109735760405162461bcd60e51b815260040161026390611bbf565b505050505050505050565b6109866115dd565b6109906000611637565b565b61099a6115dd565b816001600160a01b031663a9059cbb6109bb6033546001600160a01b031690565b6040516001600160e01b031960e084901b1681526001600160a01b03909116600482015260248101849052604401602060405180830381600087803b158015610a0357600080fd5b505af1158015610a17573d6000803e3d6000fd5b505050506040513d601f19601f82011682018060405250810190610a3b9190611ccd565b505050565b60005b88518161ffff161015610973576000898261ffff1681518110610a6857610a68611bea565b60200260200101516001600160a01b031663fd9147ae6040518163ffffffff1660e01b815260040160206040518083038186803b158015610aa857600080fd5b505afa158015610abc573d6000803e3d6000fd5b505050506040513d601f19601f82011682018060405250810190610ae09190611c00565b905060008a8361ffff1681518110610afa57610afa611bea565b60200260200101516001600160a01b03166394bfd7b06040518163ffffffff1660e01b815260040160206040518083038186803b158015610b3a57600080fd5b505afa158015610b4e573d6000803e3d6000fd5b505050506040513d601f19601f82011682018060405250810190610b729190611c00565b9050336001600160a01b0316816001600160a01b0316636352211e8b8661ffff1681518110610ba357610ba3611bea565b60200260200101516040518263ffffffff1660e01b8152600401610bc991815260200190565b60206040518083038186803b158015610be157600080fd5b505afa158015610bf5573d6000803e3d6000fd5b505050506040513d601f19601f82011682018060405250810190610c199190611c00565b6001600160a01b031614610c655760405162461bcd60e51b8152602060048201526013602482015272155cd95c881b9bdd081bdddb9a5b99c8139195606a1b6044820152606401610263565b806001600160a01b031663a22cb4658c8561ffff1681518110610c8a57610c8a611bea565b60209081029190910101516040516001600160e01b031960e084901b1681526001600160a01b03909116600482015260016024820152604401600060405180830381600087803b158015610cdd57600080fd5b505af1158015610cf1573d6000803e3d6000fd5b50505050806001600160a01b03166323b872dd33308c8761ffff1681518110610d1c57610d1c611bea565b60209081029190910101516040516001600160e01b031960e086901b1681526001600160a01b0393841660048201529290911660248301526044820152606401600060405180830381600087803b158015610d7657600080fd5b505af1158015610d8a573d6000803e3d6000fd5b505050508a8361ffff1681518110610da457610da4611bea565b60200260200101516001600160a01b03166378d4c57a6040518060a001604052808d8761ffff1681518110610ddb57610ddb611bea565b602002602001015181526020018c8761ffff1681518110610dfe57610dfe611bea565b602002602001015181526020018b8761ffff1681518110610e2157610e21611bea565b602002602001015181526020018a8761ffff1681518110610e4457610e44611bea565b60200260200101518152602001898761ffff1681518110610e6757610e67611bea565b6020026020010151815250878661ffff1681518110610e8857610e88611bea565b602002602001015133886040518563ffffffff1660e01b8152600401610eb19493929190611c1d565b602060405180830381600087803b158015610ecb57600080fd5b505af1158015610edf573d6000803e3d6000fd5b505050506040513d601f19601f82011682018060405250810190610f039190611ccd565b5060665460675460405163a9059cbb60e01b81526001600160a01b03928316600482015260248101919091529083169063a9059cbb90604401602060405180830381600087803b158015610f5657600080fd5b505af1158015610f6a573d6000803e3d6000fd5b505050506040513d601f19601f82011682018060405250810190610f8e9190611ccd565b506040516370a0823160e01b81523060048201526001600160a01b0383169063a9059cbb90339083906370a082319060240160206040518083038186803b158015610fd857600080fd5b505afa158015610fec573d6000803e3d6000fd5b505050506040513d601f19601f820116820180604052508101906110109190611d1f565b6040516001600160e01b031960e085901b1681526001600160a01b0390921660048301526024820152604401602060405180830381600087803b15801561105657600080fd5b505af115801561106a573d6000803e3d6000fd5b505050506040513d601f19601f8201168201806040525081019061108e9190611ccd565b505050808061109c90611cef565b915050610a43565b6000836001600160a01b031663fd9147ae6040518163ffffffff1660e01b815260040160206040518083038186803b1580156110df57600080fd5b505afa1580156110f3573d6000803e3d6000fd5b505050506040513d601f19601f820116820180604052508101906111179190611c00565b6065549091506001600160a01b0380831691161461116d5760405162461bcd60e51b81526020600482015260136024820152720dedcd8f240eedee4d6e640ccdee440ae8aa89606b1b6044820152606401610263565b806001600160a01b031663d0e30db0346040518263ffffffff1660e01b81526004016000604051808303818588803b1580156111a857600080fd5b505af11580156111bc573d6000803e3d6000fd5b505060405163095ea7b360e01b81526001600160a01b0388811660048301526b033b2e3c9fd0803ce7ffffff60248301528516935063095ea7b392506044019050602060405180830381600087803b15801561121757600080fd5b505af115801561122b573d6000803e3d6000fd5b505050506040513d601f19601f8201168201806040525081019061124f9190611ccd565b5061125c84843485611689565b6040516370a0823160e01b81523060048201526001600160a01b03821690632e1a7d4d9082906370a082319060240160206040518083038186803b1580156112a357600080fd5b505afa1580156112b7573d6000803e3d6000fd5b505050506040513d601f19601f820116820180604052508101906112db9190611d1f565b6040518263ffffffff1660e01b81526004016112f991815260200190565b600060405180830381600087803b15801561131357600080fd5b505af1158015611327573d6000803e3d6000fd5b505060405163095ea7b360e01b81526001600160a01b038781166004830152600060248301528416925063095ea7b39150604401602060405180830381600087803b15801561137557600080fd5b505af1158015611389573d6000803e3d6000fd5b505050506040513d601f19601f820116820180604052508101906113ad9190611ccd565b50604051600090339047908381818185875af1925050503d80600081146113f0576040519150601f19603f3d011682016040523d82523d6000602084013e6113f5565b606091505b50509050806114165760405162461bcd60e51b815260040161026390611bbf565b5050505050565b600054610100900460ff161580801561143d5750600054600160ff909116105b806114575750303b158015611457575060005460ff166001145b6114ba5760405162461bcd60e51b815260206004820152602e60248201527f496e697469616c697a61626c653a20636f6e747261637420697320616c72656160448201526d191e481a5b9a5d1a585b1a5e995960921b6064820152608401610263565b6000805460ff1916600117905580156114dd576000805461ff0019166101001790555b6114e5611712565b606580546001600160a01b038086166001600160a01b031992831617909255606680549285169290911691909117905560006067558015610a3b576000805461ff0019169055604051600181527f7f26b83ff96e1f2b6a682f133852f6798a09c465da95921460cefb38474024989060200160405180910390a1505050565b61156c6115dd565b6001600160a01b0381166115d15760405162461bcd60e51b815260206004820152602660248201527f4f776e61626c653a206e6577206f776e657220697320746865207a65726f206160448201526564647265737360d01b6064820152608401610263565b6115da81611637565b50565b6033546001600160a01b031633146109905760405162461bcd60e51b815260206004820181905260248201527f4f776e61626c653a2063616c6c6572206973206e6f7420746865206f776e65726044820152606401610263565b603380546001600160a01b038381166001600160a01b0319831681179093556040519116919082907f8be0079c531659141344cd1fd0a4f28419497f9722a3daafe3b4186f6b6457e090600090a35050565b60405163b1e8f8ef60e01b815260048101849052602481018390526001600160a01b03828116604483015285169063b1e8f8ef90606401602060405180830381600087803b1580156116da57600080fd5b505af11580156116ee573d6000803e3d6000fd5b505050506040513d601f19601f820116820180604052508101906114169190611ccd565b600054610100900460ff166117395760405162461bcd60e51b815260040161026390611d38565b610990600054610100900460ff166117635760405162461bcd60e51b815260040161026390611d38565b61099033611637565b60006020828403121561177e57600080fd5b5035919050565b634e487b7160e01b600052604160045260246000fd5b604051601f8201601f1916810167ffffffffffffffff811182821017156117c4576117c4611785565b604052919050565b600067ffffffffffffffff8211156117e6576117e6611785565b5060051b60200190565b6001600160a01b03811681146115da57600080fd5b600082601f83011261181657600080fd5b8135602061182b611826836117cc565b61179b565b82815260059290921b8401810191818101908684111561184a57600080fd5b8286015b8481101561186e578035611861816117f0565b835291830191830161184e565b509695505050505050565b600082601f83011261188a57600080fd5b8135602061189a611826836117cc565b82815260059290921b840181019181810190868411156118b957600080fd5b8286015b8481101561186e57803583529183019183016118bd565b6000601f83818401126118e657600080fd5b823560206118f6611826836117cc565b82815260059290921b8501810191818101908784111561191557600080fd5b8287015b848110156119ac57803567ffffffffffffffff8082111561193a5760008081fd5b818a0191508a603f83011261194f5760008081fd5b8582013560408282111561196557611965611785565b611976828b01601f1916890161179b565b92508183528c8183860101111561198d5760008081fd5b8181850189850137506000908201870152845250918301918301611919565b50979650505050505050565b80356119c3816117f0565b919050565b600080600080600080600080610100898b0312156119e557600080fd5b883567ffffffffffffffff808211156119fd57600080fd5b611a098c838d01611805565b995060208b0135915080821115611a1f57600080fd5b611a2b8c838d01611879565b985060408b0135915080821115611a4157600080fd5b611a4d8c838d01611879565b975060608b0135915080821115611a6357600080fd5b611a6f8c838d01611879565b965060808b0135915080821115611a8557600080fd5b611a918c838d01611879565b955060a08b0135915080821115611aa757600080fd5b611ab38c838d01611879565b945060c08b0135915080821115611ac957600080fd5b50611ad68b828c016118d4565b925050611ae560e08a016119b8565b90509295985092959890939650565b60008060408385031215611b0757600080fd5b8235611b12816117f0565b946020939093013593505050565b600080600060608486031215611b3557600080fd5b8335611b40816117f0565b9250602084013591506040840135611b57816117f0565b809150509250925092565b60008060408385031215611b7557600080fd5b8235611b80816117f0565b91506020830135611b90816117f0565b809150509250929050565b600060208284031215611bad57600080fd5b8135611bb8816117f0565b9392505050565b60208082526011908201527031b0b73737ba1039b2b7321032ba3432b960791b604082015260600190565b634e487b7160e01b600052603260045260246000fd5b600060208284031215611c1257600080fd5b8151611bb8816117f0565b60006101008287835b6005811015611c45578151835260209283019290910190600101611c26565b5050508060a084015285518082850152600091505b80821015611c7c57602082880101516101208386010152602082019150611c5a565b80821115611c8f57600061012082860101525b601f01601f19168301610120019150611cb5905060c08301856001600160a01b03169052565b6001600160a01b03831660e083015295945050505050565b600060208284031215611cdf57600080fd5b81518015158114611bb857600080fd5b600061ffff80831681811415611d1557634e487b7160e01b600052601160045260246000fd5b6001019392505050565b600060208284031215611d3157600080fd5b5051919050565b6020808252602b908201527f496e697469616c697a61626c653a20636f6e7472616374206973206e6f74206960408201526a6e697469616c697a696e6760a81b60608201526080019056fea2646970667358221220571d4f34068d4915b4d3739d88aa34155df286c900de11fe7c43021b4c99d72264736f6c63430008090033",
					"opcodes": "PUSH1 0x80 PUSH1 0x40 MSTORE CALLVALUE DUP1 ISZERO PUSH2 0x10 JUMPI PUSH1 0x0 DUP1 REVERT JUMPDEST POP PUSH2 0x19 PUSH2 0x1E JUMP JUMPDEST PUSH2 0xDD JUMP JUMPDEST PUSH1 0x0 SLOAD PUSH2 0x100 SWAP1 DIV PUSH1 0xFF AND ISZERO PUSH2 0x8A JUMPI PUSH1 0x40 MLOAD PUSH3 0x461BCD PUSH1 0xE5 SHL DUP2 MSTORE PUSH1 0x20 PUSH1 0x4 DUP3 ADD MSTORE PUSH1 0x27 PUSH1 0x24 DUP3 ADD MSTORE PUSH32 0x496E697469616C697A61626C653A20636F6E747261637420697320696E697469 PUSH1 0x44 DUP3 ADD MSTORE PUSH7 0x616C697A696E67 PUSH1 0xC8 SHL PUSH1 0x64 DUP3 ADD MSTORE PUSH1 0x84 ADD PUSH1 0x40 MLOAD DUP1 SWAP2 SUB SWAP1 REVERT JUMPDEST PUSH1 0x0 SLOAD PUSH1 0xFF SWAP1 DUP2 AND EQ PUSH2 0xDB JUMPI PUSH1 0x0 DUP1 SLOAD PUSH1 0xFF NOT AND PUSH1 0xFF SWAP1 DUP2 OR SWAP1 SWAP2 SSTORE PUSH1 0x40 MLOAD SWAP1 DUP2 MSTORE PUSH32 0x7F26B83FF96E1F2B6A682F133852F6798A09C465DA95921460CEFB3847402498 SWAP1 PUSH1 0x20 ADD PUSH1 0x40 MLOAD DUP1 SWAP2 SUB SWAP1 LOG1 JUMPDEST JUMP JUMPDEST PUSH2 0x1DB9 DUP1 PUSH2 0xEC PUSH1 0x0 CODECOPY PUSH1 0x0 RETURN INVALID PUSH1 0x80 PUSH1 0x40 MSTORE PUSH1 0x4 CALLDATASIZE LT PUSH2 0x95 JUMPI PUSH1 0x0 CALLDATALOAD PUSH1 0xE0 SHR DUP1 PUSH4 0xA1DB9782 GT PUSH2 0x59 JUMPI DUP1 PUSH4 0xA1DB9782 EQ PUSH2 0x144 JUMPI DUP1 PUSH4 0xA489DE5B EQ PUSH2 0x164 JUMPI DUP1 PUSH4 0xBCC3C255 EQ PUSH2 0x184 JUMPI DUP1 PUSH4 0xF09A4016 EQ PUSH2 0x197 JUMPI DUP1 PUSH4 0xF2FDE38B EQ PUSH2 0x1B7 JUMPI PUSH1 0x0 DUP1 REVERT JUMPDEST DUP1 PUSH4 0x2E1A7D4D EQ PUSH2 0xA1 JUMPI DUP1 PUSH4 0x69FE0E2D EQ PUSH2 0xC3 JUMPI DUP1 PUSH4 0x6F359B5A EQ PUSH2 0xE3 JUMPI DUP1 PUSH4 0x715018A6 EQ PUSH2 0x103 JUMPI DUP1 PUSH4 0x8DA5CB5B EQ PUSH2 0x118 JUMPI PUSH1 0x0 DUP1 REVERT JUMPDEST CALLDATASIZE PUSH2 0x9C JUMPI STOP JUMPDEST PUSH1 0x0 DUP1 REVERT JUMPDEST CALLVALUE DUP1 ISZERO PUSH2 0xAD JUMPI PUSH1 0x0 DUP1 REVERT JUMPDEST POP PUSH2 0xC1 PUSH2 0xBC CALLDATASIZE PUSH1 0x4 PUSH2 0x176C JUMP JUMPDEST PUSH2 0x1D7 JUMP JUMPDEST STOP JUMPDEST CALLVALUE DUP1 ISZERO PUSH2 0xCF JUMPI PUSH1 0x0 DUP1 REVERT JUMPDEST POP PUSH2 0xC1 PUSH2 0xDE CALLDATASIZE PUSH1 0x4 PUSH2 0x176C JUMP JUMPDEST PUSH2 0x270 JUMP JUMPDEST CALLVALUE DUP1 ISZERO PUSH2 0xEF JUMPI PUSH1 0x0 DUP1 REVERT JUMPDEST POP PUSH2 0xC1 PUSH2 0xFE CALLDATASIZE PUSH1 0x4 PUSH2 0x19C8 JUMP JUMPDEST PUSH2 0x27D JUMP JUMPDEST CALLVALUE DUP1 ISZERO PUSH2 0x10F JUMPI PUSH1 0x0 DUP1 REVERT JUMPDEST POP PUSH2 0xC1 PUSH2 0x97E JUMP JUMPDEST CALLVALUE DUP1 ISZERO PUSH2 0x124 JUMPI PUSH1 0x0 DUP1 REVERT JUMPDEST POP PUSH1 0x33 SLOAD PUSH1 0x40 DUP1 MLOAD PUSH1 0x1 PUSH1 0x1 PUSH1 0xA0 SHL SUB SWAP1 SWAP3 AND DUP3 MSTORE MLOAD SWAP1 DUP2 SWAP1 SUB PUSH1 0x20 ADD SWAP1 RETURN JUMPDEST CALLVALUE DUP1 ISZERO PUSH2 0x150 JUMPI PUSH1 0x0 DUP1 REVERT JUMPDEST POP PUSH2 0xC1 PUSH2 0x15F CALLDATASIZE PUSH1 0x4 PUSH2 0x1AF4 JUMP JUMPDEST PUSH2 0x992 JUMP JUMPDEST CALLVALUE DUP1 ISZERO PUSH2 0x170 JUMPI PUSH1 0x0 DUP1 REVERT JUMPDEST POP PUSH2 0xC1 PUSH2 0x17F CALLDATASIZE PUSH1 0x4 PUSH2 0x19C8 JUMP JUMPDEST PUSH2 0xA40 JUMP JUMPDEST PUSH2 0xC1 PUSH2 0x192 CALLDATASIZE PUSH1 0x4 PUSH2 0x1B20 JUMP JUMPDEST PUSH2 0x10A4 JUMP JUMPDEST CALLVALUE DUP1 ISZERO PUSH2 0x1A3 JUMPI PUSH1 0x0 DUP1 REVERT JUMPDEST POP PUSH2 0xC1 PUSH2 0x1B2 CALLDATASIZE PUSH1 0x4 PUSH2 0x1B62 JUMP JUMPDEST PUSH2 0x141D JUMP JUMPDEST CALLVALUE DUP1 ISZERO PUSH2 0x1C3 JUMPI PUSH1 0x0 DUP1 REVERT JUMPDEST POP PUSH2 0xC1 PUSH2 0x1D2 CALLDATASIZE PUSH1 0x4 PUSH2 0x1B9B JUMP JUMPDEST PUSH2 0x1564 JUMP JUMPDEST PUSH2 0x1DF PUSH2 0x15DD JUMP JUMPDEST PUSH1 0x0 PUSH2 0x1F3 PUSH1 0x33 SLOAD PUSH1 0x1 PUSH1 0x1 PUSH1 0xA0 SHL SUB AND SWAP1 JUMP JUMPDEST PUSH1 0x1 PUSH1 0x1 PUSH1 0xA0 SHL SUB AND DUP3 PUSH1 0x40 MLOAD PUSH1 0x0 PUSH1 0x40 MLOAD DUP1 DUP4 SUB DUP2 DUP6 DUP8 GAS CALL SWAP3 POP POP POP RETURNDATASIZE DUP1 PUSH1 0x0 DUP2 EQ PUSH2 0x23D JUMPI PUSH1 0x40 MLOAD SWAP2 POP PUSH1 0x1F NOT PUSH1 0x3F RETURNDATASIZE ADD AND DUP3 ADD PUSH1 0x40 MSTORE RETURNDATASIZE DUP3 MSTORE RETURNDATASIZE PUSH1 0x0 PUSH1 0x20 DUP5 ADD RETURNDATACOPY PUSH2 0x242 JUMP JUMPDEST PUSH1 0x60 SWAP2 POP JUMPDEST POP POP SWAP1 POP DUP1 PUSH2 0x26C JUMPI PUSH1 0x40 MLOAD PUSH3 0x461BCD PUSH1 0xE5 SHL DUP2 MSTORE PUSH1 0x4 ADD PUSH2 0x263 SWAP1 PUSH2 0x1BBF JUMP JUMPDEST PUSH1 0x40 MLOAD DUP1 SWAP2 SUB SWAP1 REVERT JUMPDEST POP POP JUMP JUMPDEST PUSH2 0x278 PUSH2 0x15DD JUMP JUMPDEST PUSH1 0x67 SSTORE JUMP JUMPDEST PUSH1 0x0 JUMPDEST DUP9 MLOAD DUP2 PUSH2 0xFFFF AND LT ISZERO PUSH2 0x7AA JUMPI PUSH1 0x0 DUP10 DUP3 PUSH2 0xFFFF AND DUP2 MLOAD DUP2 LT PUSH2 0x2A5 JUMPI PUSH2 0x2A5 PUSH2 0x1BEA JUMP JUMPDEST PUSH1 0x20 MUL PUSH1 0x20 ADD ADD MLOAD PUSH1 0x1 PUSH1 0x1 PUSH1 0xA0 SHL SUB AND PUSH4 0xFD9147AE PUSH1 0x40 MLOAD DUP2 PUSH4 0xFFFFFFFF AND PUSH1 0xE0 SHL DUP2 MSTORE PUSH1 0x4 ADD PUSH1 0x20 PUSH1 0x40 MLOAD DUP1 DUP4 SUB DUP2 DUP7 DUP1 EXTCODESIZE ISZERO DUP1 ISZERO PUSH2 0x2E5 JUMPI PUSH1 0x0 DUP1 REVERT JUMPDEST POP GAS STATICCALL ISZERO DUP1 ISZERO PUSH2 0x2F9 JUMPI RETURNDATASIZE PUSH1 0x0 DUP1 RETURNDATACOPY RETURNDATASIZE PUSH1 0x0 REVERT JUMPDEST POP POP POP POP PUSH1 0x40 MLOAD RETURNDATASIZE PUSH1 0x1F NOT PUSH1 0x1F DUP3 ADD AND DUP3 ADD DUP1 PUSH1 0x40 MSTORE POP DUP2 ADD SWAP1 PUSH2 0x31D SWAP2 SWAP1 PUSH2 0x1C00 JUMP JUMPDEST PUSH1 0x65 SLOAD SWAP1 SWAP2 POP PUSH1 0x1 PUSH1 0x1 PUSH1 0xA0 SHL SUB DUP1 DUP4 AND SWAP2 AND EQ PUSH2 0x373 JUMPI PUSH1 0x40 MLOAD PUSH3 0x461BCD PUSH1 0xE5 SHL DUP2 MSTORE PUSH1 0x20 PUSH1 0x4 DUP3 ADD MSTORE PUSH1 0x13 PUSH1 0x24 DUP3 ADD MSTORE PUSH19 0xDEDCD8F240EEDEE4D6E640CCDEE440AE8AA89 PUSH1 0x6B SHL PUSH1 0x44 DUP3 ADD MSTORE PUSH1 0x64 ADD PUSH2 0x263 JUMP JUMPDEST PUSH1 0x0 DUP11 DUP4 PUSH2 0xFFFF AND DUP2 MLOAD DUP2 LT PUSH2 0x38B JUMPI PUSH2 0x38B PUSH2 0x1BEA JUMP JUMPDEST PUSH1 0x20 MUL PUSH1 0x20 ADD ADD MLOAD PUSH1 0x1 PUSH1 0x1 PUSH1 0xA0 SHL SUB AND PUSH4 0x94BFD7B0 PUSH1 0x40 MLOAD DUP2 PUSH4 0xFFFFFFFF AND PUSH1 0xE0 SHL DUP2 MSTORE PUSH1 0x4 ADD PUSH1 0x20 PUSH1 0x40 MLOAD DUP1 DUP4 SUB DUP2 DUP7 DUP1 EXTCODESIZE ISZERO DUP1 ISZERO PUSH2 0x3CB JUMPI PUSH1 0x0 DUP1 REVERT JUMPDEST POP GAS STATICCALL ISZERO DUP1 ISZERO PUSH2 0x3DF JUMPI RETURNDATASIZE PUSH1 0x0 DUP1 RETURNDATACOPY RETURNDATASIZE PUSH1 0x0 REVERT JUMPDEST POP POP POP POP PUSH1 0x40 MLOAD RETURNDATASIZE PUSH1 0x1F NOT PUSH1 0x1F DUP3 ADD AND DUP3 ADD DUP1 PUSH1 0x40 MSTORE POP DUP2 ADD SWAP1 PUSH2 0x403 SWAP2 SWAP1 PUSH2 0x1C00 JUMP JUMPDEST SWAP1 POP CALLER PUSH1 0x1 PUSH1 0x1 PUSH1 0xA0 SHL SUB AND DUP2 PUSH1 0x1 PUSH1 0x1 PUSH1 0xA0 SHL SUB AND PUSH4 0x6352211E DUP12 DUP7 PUSH2 0xFFFF AND DUP2 MLOAD DUP2 LT PUSH2 0x434 JUMPI PUSH2 0x434 PUSH2 0x1BEA JUMP JUMPDEST PUSH1 0x20 MUL PUSH1 0x20 ADD ADD MLOAD PUSH1 0x40 MLOAD DUP3 PUSH4 0xFFFFFFFF AND PUSH1 0xE0 SHL DUP2 MSTORE PUSH1 0x4 ADD PUSH2 0x45A SWAP2 DUP2 MSTORE PUSH1 0x20 ADD SWAP1 JUMP JUMPDEST PUSH1 0x20 PUSH1 0x40 MLOAD DUP1 DUP4 SUB DUP2 DUP7 DUP1 EXTCODESIZE ISZERO DUP1 ISZERO PUSH2 0x472 JUMPI PUSH1 0x0 DUP1 REVERT JUMPDEST POP GAS STATICCALL ISZERO DUP1 ISZERO PUSH2 0x486 JUMPI RETURNDATASIZE PUSH1 0x0 DUP1 RETURNDATACOPY RETURNDATASIZE PUSH1 0x0 REVERT JUMPDEST POP POP POP POP PUSH1 0x40 MLOAD RETURNDATASIZE PUSH1 0x1F NOT PUSH1 0x1F DUP3 ADD AND DUP3 ADD DUP1 PUSH1 0x40 MSTORE POP DUP2 ADD SWAP1 PUSH2 0x4AA SWAP2 SWAP1 PUSH2 0x1C00 JUMP JUMPDEST PUSH1 0x1 PUSH1 0x1 PUSH1 0xA0 SHL SUB AND EQ PUSH2 0x4F6 JUMPI PUSH1 0x40 MLOAD PUSH3 0x461BCD PUSH1 0xE5 SHL DUP2 MSTORE PUSH1 0x20 PUSH1 0x4 DUP3 ADD MSTORE PUSH1 0x13 PUSH1 0x24 DUP3 ADD MSTORE PUSH19 0x155CD95C881B9BDD081BDDDB9A5B99C8139195 PUSH1 0x6A SHL PUSH1 0x44 DUP3 ADD MSTORE PUSH1 0x64 ADD PUSH2 0x263 JUMP JUMPDEST DUP1 PUSH1 0x1 PUSH1 0x1 PUSH1 0xA0 SHL SUB AND PUSH4 0xA22CB465 DUP13 DUP6 PUSH2 0xFFFF AND DUP2 MLOAD DUP2 LT PUSH2 0x51B JUMPI PUSH2 0x51B PUSH2 0x1BEA JUMP JUMPDEST PUSH1 0x20 SWAP1 DUP2 MUL SWAP2 SWAP1 SWAP2 ADD ADD MLOAD PUSH1 0x40 MLOAD PUSH1 0x1 PUSH1 0x1 PUSH1 0xE0 SHL SUB NOT PUSH1 0xE0 DUP5 SWAP1 SHL AND DUP2 MSTORE PUSH1 0x1 PUSH1 0x1 PUSH1 0xA0 SHL SUB SWAP1 SWAP2 AND PUSH1 0x4 DUP3 ADD MSTORE PUSH1 0x1 PUSH1 0x24 DUP3 ADD MSTORE PUSH1 0x44 ADD PUSH1 0x0 PUSH1 0x40 MLOAD DUP1 DUP4 SUB DUP2 PUSH1 0x0 DUP8 DUP1 EXTCODESIZE ISZERO DUP1 ISZERO PUSH2 0x56E JUMPI PUSH1 0x0 DUP1 REVERT JUMPDEST POP GAS CALL ISZERO DUP1 ISZERO PUSH2 0x582 JUMPI RETURNDATASIZE PUSH1 0x0 DUP1 RETURNDATACOPY RETURNDATASIZE PUSH1 0x0 REVERT JUMPDEST POP POP POP POP DUP1 PUSH1 0x1 PUSH1 0x1 PUSH1 0xA0 SHL SUB AND PUSH4 0x23B872DD CALLER ADDRESS DUP13 DUP8 PUSH2 0xFFFF AND DUP2 MLOAD DUP2 LT PUSH2 0x5AD JUMPI PUSH2 0x5AD PUSH2 0x1BEA JUMP JUMPDEST PUSH1 0x20 SWAP1 DUP2 MUL SWAP2 SWAP1 SWAP2 ADD ADD MLOAD PUSH1 0x40 MLOAD PUSH1 0x1 PUSH1 0x1 PUSH1 0xE0 SHL SUB NOT PUSH1 0xE0 DUP7 SWAP1 SHL AND DUP2 MSTORE PUSH1 0x1 PUSH1 0x1 PUSH1 0xA0 SHL SUB SWAP4 DUP5 AND PUSH1 0x4 DUP3 ADD MSTORE SWAP3 SWAP1 SWAP2 AND PUSH1 0x24 DUP4 ADD MSTORE PUSH1 0x44 DUP3 ADD MSTORE PUSH1 0x64 ADD PUSH1 0x0 PUSH1 0x40 MLOAD DUP1 DUP4 SUB DUP2 PUSH1 0x0 DUP8 DUP1 EXTCODESIZE ISZERO DUP1 ISZERO PUSH2 0x607 JUMPI PUSH1 0x0 DUP1 REVERT JUMPDEST POP GAS CALL ISZERO DUP1 ISZERO PUSH2 0x61B JUMPI RETURNDATASIZE PUSH1 0x0 DUP1 RETURNDATACOPY RETURNDATASIZE PUSH1 0x0 REVERT JUMPDEST POP POP POP POP DUP11 DUP4 PUSH2 0xFFFF AND DUP2 MLOAD DUP2 LT PUSH2 0x635 JUMPI PUSH2 0x635 PUSH2 0x1BEA JUMP JUMPDEST PUSH1 0x20 MUL PUSH1 0x20 ADD ADD MLOAD PUSH1 0x1 PUSH1 0x1 PUSH1 0xA0 SHL SUB AND PUSH4 0x78D4C57A PUSH1 0x40 MLOAD DUP1 PUSH1 0xA0 ADD PUSH1 0x40 MSTORE DUP1 DUP14 DUP8 PUSH2 0xFFFF AND DUP2 MLOAD DUP2 LT PUSH2 0x66C JUMPI PUSH2 0x66C PUSH2 0x1BEA JUMP JUMPDEST PUSH1 0x20 MUL PUSH1 0x20 ADD ADD MLOAD DUP2 MSTORE PUSH1 0x20 ADD DUP13 DUP8 PUSH2 0xFFFF AND DUP2 MLOAD DUP2 LT PUSH2 0x68F JUMPI PUSH2 0x68F PUSH2 0x1BEA JUMP JUMPDEST PUSH1 0x20 MUL PUSH1 0x20 ADD ADD MLOAD DUP2 MSTORE PUSH1 0x20 ADD DUP12 DUP8 PUSH2 0xFFFF AND DUP2 MLOAD DUP2 LT PUSH2 0x6B2 JUMPI PUSH2 0x6B2 PUSH2 0x1BEA JUMP JUMPDEST PUSH1 0x20 MUL PUSH1 0x20 ADD ADD MLOAD DUP2 MSTORE PUSH1 0x20 ADD DUP11 DUP8 PUSH2 0xFFFF AND DUP2 MLOAD DUP2 LT PUSH2 0x6D5 JUMPI PUSH2 0x6D5 PUSH2 0x1BEA JUMP JUMPDEST PUSH1 0x20 MUL PUSH1 0x20 ADD ADD MLOAD DUP2 MSTORE PUSH1 0x20 ADD DUP10 DUP8 PUSH2 0xFFFF AND DUP2 MLOAD DUP2 LT PUSH2 0x6F8 JUMPI PUSH2 0x6F8 PUSH2 0x1BEA JUMP JUMPDEST PUSH1 0x20 MUL PUSH1 0x20 ADD ADD MLOAD DUP2 MSTORE POP DUP8 DUP7 PUSH2 0xFFFF AND DUP2 MLOAD DUP2 LT PUSH2 0x719 JUMPI PUSH2 0x719 PUSH2 0x1BEA JUMP JUMPDEST PUSH1 0x20 MUL PUSH1 0x20 ADD ADD MLOAD CALLER DUP9 PUSH1 0x40 MLOAD DUP6 PUSH4 0xFFFFFFFF AND PUSH1 0xE0 SHL DUP2 MSTORE PUSH1 0x4 ADD PUSH2 0x742 SWAP5 SWAP4 SWAP3 SWAP2 SWAP1 PUSH2 0x1C1D JUMP JUMPDEST PUSH1 0x20 PUSH1 0x40 MLOAD DUP1 DUP4 SUB DUP2 PUSH1 0x0 DUP8 DUP1 EXTCODESIZE ISZERO DUP1 ISZERO PUSH2 0x75C JUMPI PUSH1 0x0 DUP1 REVERT JUMPDEST POP GAS CALL ISZERO DUP1 ISZERO PUSH2 0x770 JUMPI RETURNDATASIZE PUSH1 0x0 DUP1 RETURNDATACOPY RETURNDATASIZE PUSH1 0x0 REVERT JUMPDEST POP POP POP POP PUSH1 0x40 MLOAD RETURNDATASIZE PUSH1 0x1F NOT PUSH1 0x1F DUP3 ADD AND DUP3 ADD DUP1 PUSH1 0x40 MSTORE POP DUP2 ADD SWAP1 PUSH2 0x794 SWAP2 SWAP1 PUSH2 0x1CCD JUMP JUMPDEST POP POP POP DUP1 DUP1 PUSH2 0x7A2 SWAP1 PUSH2 0x1CEF JUMP JUMPDEST SWAP2 POP POP PUSH2 0x280 JUMP JUMPDEST POP PUSH1 0x65 SLOAD PUSH1 0x66 SLOAD PUSH1 0x67 SLOAD PUSH1 0x40 MLOAD PUSH4 0xA9059CBB PUSH1 0xE0 SHL DUP2 MSTORE PUSH1 0x1 PUSH1 0x1 PUSH1 0xA0 SHL SUB SWAP3 DUP4 AND PUSH1 0x4 DUP3 ADD MSTORE PUSH1 0x24 DUP2 ADD SWAP2 SWAP1 SWAP2 MSTORE SWAP2 AND SWAP1 PUSH4 0xA9059CBB SWAP1 PUSH1 0x44 ADD PUSH1 0x20 PUSH1 0x40 MLOAD DUP1 DUP4 SUB DUP2 PUSH1 0x0 DUP8 DUP1 EXTCODESIZE ISZERO DUP1 ISZERO PUSH2 0x7FF JUMPI PUSH1 0x0 DUP1 REVERT JUMPDEST POP GAS CALL ISZERO DUP1 ISZERO PUSH2 0x813 JUMPI RETURNDATASIZE PUSH1 0x0 DUP1 RETURNDATACOPY RETURNDATASIZE PUSH1 0x0 REVERT JUMPDEST POP POP POP POP PUSH1 0x40 MLOAD RETURNDATASIZE PUSH1 0x1F NOT PUSH1 0x1F DUP3 ADD AND DUP3 ADD DUP1 PUSH1 0x40 MSTORE POP DUP2 ADD SWAP1 PUSH2 0x837 SWAP2 SWAP1 PUSH2 0x1CCD JUMP JUMPDEST POP PUSH1 0x65 SLOAD PUSH1 0x40 MLOAD PUSH4 0x70A08231 PUSH1 0xE0 SHL DUP2 MSTORE ADDRESS PUSH1 0x4 DUP3 ADD MSTORE PUSH1 0x1 PUSH1 0x1 PUSH1 0xA0 SHL SUB SWAP1 SWAP2 AND SWAP1 PUSH4 0x2E1A7D4D SWAP1 DUP3 SWAP1 PUSH4 0x70A08231 SWAP1 PUSH1 0x24 ADD PUSH1 0x20 PUSH1 0x40 MLOAD DUP1 DUP4 SUB DUP2 DUP7 DUP1 EXTCODESIZE ISZERO DUP1 ISZERO PUSH2 0x883 JUMPI PUSH1 0x0 DUP1 REVERT JUMPDEST POP GAS STATICCALL ISZERO DUP1 ISZERO PUSH2 0x897 JUMPI RETURNDATASIZE PUSH1 0x0 DUP1 RETURNDATACOPY RETURNDATASIZE PUSH1 0x0 REVERT JUMPDEST POP POP POP POP PUSH1 0x40 MLOAD RETURNDATASIZE PUSH1 0x1F NOT PUSH1 0x1F DUP3 ADD AND DUP3 ADD DUP1 PUSH1 0x40 MSTORE POP DUP2 ADD SWAP1 PUSH2 0x8BB SWAP2 SWAP1 PUSH2 0x1D1F JUMP JUMPDEST PUSH1 0x40 MLOAD DUP3 PUSH4 0xFFFFFFFF AND PUSH1 0xE0 SHL DUP2 MSTORE PUSH1 0x4 ADD PUSH2 0x8D9 SWAP2 DUP2 MSTORE PUSH1 0x20 ADD SWAP1 JUMP JUMPDEST PUSH1 0x0 PUSH1 0x40 MLOAD DUP1 DUP4 SUB DUP2 PUSH1 0x0 DUP8 DUP1 EXTCODESIZE ISZERO DUP1 ISZERO PUSH2 0x8F3 JUMPI PUSH1 0x0 DUP1 REVERT JUMPDEST POP GAS CALL ISZERO DUP1 ISZERO PUSH2 0x907 JUMPI RETURNDATASIZE PUSH1 0x0 DUP1 RETURNDATACOPY RETURNDATASIZE PUSH1 0x0 REVERT JUMPDEST POP POP PUSH1 0x40 MLOAD PUSH1 0x0 SWAP3 POP CALLER SWAP2 POP SELFBALANCE SWAP1 DUP4 DUP2 DUP2 DUP2 DUP6 DUP8 GAS CALL SWAP3 POP POP POP RETURNDATASIZE DUP1 PUSH1 0x0 DUP2 EQ PUSH2 0x94D JUMPI PUSH1 0x40 MLOAD SWAP2 POP PUSH1 0x1F NOT PUSH1 0x3F RETURNDATASIZE ADD AND DUP3 ADD PUSH1 0x40 MSTORE RETURNDATASIZE DUP3 MSTORE RETURNDATASIZE PUSH1 0x0 PUSH1 0x20 DUP5 ADD RETURNDATACOPY PUSH2 0x952 JUMP JUMPDEST PUSH1 0x60 SWAP2 POP JUMPDEST POP POP SWAP1 POP DUP1 PUSH2 0x973 JUMPI PUSH1 0x40 MLOAD PUSH3 0x461BCD PUSH1 0xE5 SHL DUP2 MSTORE PUSH1 0x4 ADD PUSH2 0x263 SWAP1 PUSH2 0x1BBF JUMP JUMPDEST POP POP POP POP POP POP POP POP POP JUMP JUMPDEST PUSH2 0x986 PUSH2 0x15DD JUMP JUMPDEST PUSH2 0x990 PUSH1 0x0 PUSH2 0x1637 JUMP JUMPDEST JUMP JUMPDEST PUSH2 0x99A PUSH2 0x15DD JUMP JUMPDEST DUP2 PUSH1 0x1 PUSH1 0x1 PUSH1 0xA0 SHL SUB AND PUSH4 0xA9059CBB PUSH2 0x9BB PUSH1 0x33 SLOAD PUSH1 0x1 PUSH1 0x1 PUSH1 0xA0 SHL SUB AND SWAP1 JUMP JUMPDEST PUSH1 0x40 MLOAD PUSH1 0x1 PUSH1 0x1 PUSH1 0xE0 SHL SUB NOT PUSH1 0xE0 DUP5 SWAP1 SHL AND DUP2 MSTORE PUSH1 0x1 PUSH1 0x1 PUSH1 0xA0 SHL SUB SWAP1 SWAP2 AND PUSH1 0x4 DUP3 ADD MSTORE PUSH1 0x24 DUP2 ADD DUP5 SWAP1 MSTORE PUSH1 0x44 ADD PUSH1 0x20 PUSH1 0x40 MLOAD DUP1 DUP4 SUB DUP2 PUSH1 0x0 DUP8 DUP1 EXTCODESIZE ISZERO DUP1 ISZERO PUSH2 0xA03 JUMPI PUSH1 0x0 DUP1 REVERT JUMPDEST POP GAS CALL ISZERO DUP1 ISZERO PUSH2 0xA17 JUMPI RETURNDATASIZE PUSH1 0x0 DUP1 RETURNDATACOPY RETURNDATASIZE PUSH1 0x0 REVERT JUMPDEST POP POP POP POP PUSH1 0x40 MLOAD RETURNDATASIZE PUSH1 0x1F NOT PUSH1 0x1F DUP3 ADD AND DUP3 ADD DUP1 PUSH1 0x40 MSTORE POP DUP2 ADD SWAP1 PUSH2 0xA3B SWAP2 SWAP1 PUSH2 0x1CCD JUMP JUMPDEST POP POP POP JUMP JUMPDEST PUSH1 0x0 JUMPDEST DUP9 MLOAD DUP2 PUSH2 0xFFFF AND LT ISZERO PUSH2 0x973 JUMPI PUSH1 0x0 DUP10 DUP3 PUSH2 0xFFFF AND DUP2 MLOAD DUP2 LT PUSH2 0xA68 JUMPI PUSH2 0xA68 PUSH2 0x1BEA JUMP JUMPDEST PUSH1 0x20 MUL PUSH1 0x20 ADD ADD MLOAD PUSH1 0x1 PUSH1 0x1 PUSH1 0xA0 SHL SUB AND PUSH4 0xFD9147AE PUSH1 0x40 MLOAD DUP2 PUSH4 0xFFFFFFFF AND PUSH1 0xE0 SHL DUP2 MSTORE PUSH1 0x4 ADD PUSH1 0x20 PUSH1 0x40 MLOAD DUP1 DUP4 SUB DUP2 DUP7 DUP1 EXTCODESIZE ISZERO DUP1 ISZERO PUSH2 0xAA8 JUMPI PUSH1 0x0 DUP1 REVERT JUMPDEST POP GAS STATICCALL ISZERO DUP1 ISZERO PUSH2 0xABC JUMPI RETURNDATASIZE PUSH1 0x0 DUP1 RETURNDATACOPY RETURNDATASIZE PUSH1 0x0 REVERT JUMPDEST POP POP POP POP PUSH1 0x40 MLOAD RETURNDATASIZE PUSH1 0x1F NOT PUSH1 0x1F DUP3 ADD AND DUP3 ADD DUP1 PUSH1 0x40 MSTORE POP DUP2 ADD SWAP1 PUSH2 0xAE0 SWAP2 SWAP1 PUSH2 0x1C00 JUMP JUMPDEST SWAP1 POP PUSH1 0x0 DUP11 DUP4 PUSH2 0xFFFF AND DUP2 MLOAD DUP2 LT PUSH2 0xAFA JUMPI PUSH2 0xAFA PUSH2 0x1BEA JUMP JUMPDEST PUSH1 0x20 MUL PUSH1 0x20 ADD ADD MLOAD PUSH1 0x1 PUSH1 0x1 PUSH1 0xA0 SHL SUB AND PUSH4 0x94BFD7B0 PUSH1 0x40 MLOAD DUP2 PUSH4 0xFFFFFFFF AND PUSH1 0xE0 SHL DUP2 MSTORE PUSH1 0x4 ADD PUSH1 0x20 PUSH1 0x40 MLOAD DUP1 DUP4 SUB DUP2 DUP7 DUP1 EXTCODESIZE ISZERO DUP1 ISZERO PUSH2 0xB3A JUMPI PUSH1 0x0 DUP1 REVERT JUMPDEST POP GAS STATICCALL ISZERO DUP1 ISZERO PUSH2 0xB4E JUMPI RETURNDATASIZE PUSH1 0x0 DUP1 RETURNDATACOPY RETURNDATASIZE PUSH1 0x0 REVERT JUMPDEST POP POP POP POP PUSH1 0x40 MLOAD RETURNDATASIZE PUSH1 0x1F NOT PUSH1 0x1F DUP3 ADD AND DUP3 ADD DUP1 PUSH1 0x40 MSTORE POP DUP2 ADD SWAP1 PUSH2 0xB72 SWAP2 SWAP1 PUSH2 0x1C00 JUMP JUMPDEST SWAP1 POP CALLER PUSH1 0x1 PUSH1 0x1 PUSH1 0xA0 SHL SUB AND DUP2 PUSH1 0x1 PUSH1 0x1 PUSH1 0xA0 SHL SUB AND PUSH4 0x6352211E DUP12 DUP7 PUSH2 0xFFFF AND DUP2 MLOAD DUP2 LT PUSH2 0xBA3 JUMPI PUSH2 0xBA3 PUSH2 0x1BEA JUMP JUMPDEST PUSH1 0x20 MUL PUSH1 0x20 ADD ADD MLOAD PUSH1 0x40 MLOAD DUP3 PUSH4 0xFFFFFFFF AND PUSH1 0xE0 SHL DUP2 MSTORE PUSH1 0x4 ADD PUSH2 0xBC9 SWAP2 DUP2 MSTORE PUSH1 0x20 ADD SWAP1 JUMP JUMPDEST PUSH1 0x20 PUSH1 0x40 MLOAD DUP1 DUP4 SUB DUP2 DUP7 DUP1 EXTCODESIZE ISZERO DUP1 ISZERO PUSH2 0xBE1 JUMPI PUSH1 0x0 DUP1 REVERT JUMPDEST POP GAS STATICCALL ISZERO DUP1 ISZERO PUSH2 0xBF5 JUMPI RETURNDATASIZE PUSH1 0x0 DUP1 RETURNDATACOPY RETURNDATASIZE PUSH1 0x0 REVERT JUMPDEST POP POP POP POP PUSH1 0x40 MLOAD RETURNDATASIZE PUSH1 0x1F NOT PUSH1 0x1F DUP3 ADD AND DUP3 ADD DUP1 PUSH1 0x40 MSTORE POP DUP2 ADD SWAP1 PUSH2 0xC19 SWAP2 SWAP1 PUSH2 0x1C00 JUMP JUMPDEST PUSH1 0x1 PUSH1 0x1 PUSH1 0xA0 SHL SUB AND EQ PUSH2 0xC65 JUMPI PUSH1 0x40 MLOAD PUSH3 0x461BCD PUSH1 0xE5 SHL DUP2 MSTORE PUSH1 0x20 PUSH1 0x4 DUP3 ADD MSTORE PUSH1 0x13 PUSH1 0x24 DUP3 ADD MSTORE PUSH19 0x155CD95C881B9BDD081BDDDB9A5B99C8139195 PUSH1 0x6A SHL PUSH1 0x44 DUP3 ADD MSTORE PUSH1 0x64 ADD PUSH2 0x263 JUMP JUMPDEST DUP1 PUSH1 0x1 PUSH1 0x1 PUSH1 0xA0 SHL SUB AND PUSH4 0xA22CB465 DUP13 DUP6 PUSH2 0xFFFF AND DUP2 MLOAD DUP2 LT PUSH2 0xC8A JUMPI PUSH2 0xC8A PUSH2 0x1BEA JUMP JUMPDEST PUSH1 0x20 SWAP1 DUP2 MUL SWAP2 SWAP1 SWAP2 ADD ADD MLOAD PUSH1 0x40 MLOAD PUSH1 0x1 PUSH1 0x1 PUSH1 0xE0 SHL SUB NOT PUSH1 0xE0 DUP5 SWAP1 SHL AND DUP2 MSTORE PUSH1 0x1 PUSH1 0x1 PUSH1 0xA0 SHL SUB SWAP1 SWAP2 AND PUSH1 0x4 DUP3 ADD MSTORE PUSH1 0x1 PUSH1 0x24 DUP3 ADD MSTORE PUSH1 0x44 ADD PUSH1 0x0 PUSH1 0x40 MLOAD DUP1 DUP4 SUB DUP2 PUSH1 0x0 DUP8 DUP1 EXTCODESIZE ISZERO DUP1 ISZERO PUSH2 0xCDD JUMPI PUSH1 0x0 DUP1 REVERT JUMPDEST POP GAS CALL ISZERO DUP1 ISZERO PUSH2 0xCF1 JUMPI RETURNDATASIZE PUSH1 0x0 DUP1 RETURNDATACOPY RETURNDATASIZE PUSH1 0x0 REVERT JUMPDEST POP POP POP POP DUP1 PUSH1 0x1 PUSH1 0x1 PUSH1 0xA0 SHL SUB AND PUSH4 0x23B872DD CALLER ADDRESS DUP13 DUP8 PUSH2 0xFFFF AND DUP2 MLOAD DUP2 LT PUSH2 0xD1C JUMPI PUSH2 0xD1C PUSH2 0x1BEA JUMP JUMPDEST PUSH1 0x20 SWAP1 DUP2 MUL SWAP2 SWAP1 SWAP2 ADD ADD MLOAD PUSH1 0x40 MLOAD PUSH1 0x1 PUSH1 0x1 PUSH1 0xE0 SHL SUB NOT PUSH1 0xE0 DUP7 SWAP1 SHL AND DUP2 MSTORE PUSH1 0x1 PUSH1 0x1 PUSH1 0xA0 SHL SUB SWAP4 DUP5 AND PUSH1 0x4 DUP3 ADD MSTORE SWAP3 SWAP1 SWAP2 AND PUSH1 0x24 DUP4 ADD MSTORE PUSH1 0x44 DUP3 ADD MSTORE PUSH1 0x64 ADD PUSH1 0x0 PUSH1 0x40 MLOAD DUP1 DUP4 SUB DUP2 PUSH1 0x0 DUP8 DUP1 EXTCODESIZE ISZERO DUP1 ISZERO PUSH2 0xD76 JUMPI PUSH1 0x0 DUP1 REVERT JUMPDEST POP GAS CALL ISZERO DUP1 ISZERO PUSH2 0xD8A JUMPI RETURNDATASIZE PUSH1 0x0 DUP1 RETURNDATACOPY RETURNDATASIZE PUSH1 0x0 REVERT JUMPDEST POP POP POP POP DUP11 DUP4 PUSH2 0xFFFF AND DUP2 MLOAD DUP2 LT PUSH2 0xDA4 JUMPI PUSH2 0xDA4 PUSH2 0x1BEA JUMP JUMPDEST PUSH1 0x20 MUL PUSH1 0x20 ADD ADD MLOAD PUSH1 0x1 PUSH1 0x1 PUSH1 0xA0 SHL SUB AND PUSH4 0x78D4C57A PUSH1 0x40 MLOAD DUP1 PUSH1 0xA0 ADD PUSH1 0x40 MSTORE DUP1 DUP14 DUP8 PUSH2 0xFFFF AND DUP2 MLOAD DUP2 LT PUSH2 0xDDB JUMPI PUSH2 0xDDB PUSH2 0x1BEA JUMP JUMPDEST PUSH1 0x20 MUL PUSH1 0x20 ADD ADD MLOAD DUP2 MSTORE PUSH1 0x20 ADD DUP13 DUP8 PUSH2 0xFFFF AND DUP2 MLOAD DUP2 LT PUSH2 0xDFE JUMPI PUSH2 0xDFE PUSH2 0x1BEA JUMP JUMPDEST PUSH1 0x20 MUL PUSH1 0x20 ADD ADD MLOAD DUP2 MSTORE PUSH1 0x20 ADD DUP12 DUP8 PUSH2 0xFFFF AND DUP2 MLOAD DUP2 LT PUSH2 0xE21 JUMPI PUSH2 0xE21 PUSH2 0x1BEA JUMP JUMPDEST PUSH1 0x20 MUL PUSH1 0x20 ADD ADD MLOAD DUP2 MSTORE PUSH1 0x20 ADD DUP11 DUP8 PUSH2 0xFFFF AND DUP2 MLOAD DUP2 LT PUSH2 0xE44 JUMPI PUSH2 0xE44 PUSH2 0x1BEA JUMP JUMPDEST PUSH1 0x20 MUL PUSH1 0x20 ADD ADD MLOAD DUP2 MSTORE PUSH1 0x20 ADD DUP10 DUP8 PUSH2 0xFFFF AND DUP2 MLOAD DUP2 LT PUSH2 0xE67 JUMPI PUSH2 0xE67 PUSH2 0x1BEA JUMP JUMPDEST PUSH1 0x20 MUL PUSH1 0x20 ADD ADD MLOAD DUP2 MSTORE POP DUP8 DUP7 PUSH2 0xFFFF AND DUP2 MLOAD DUP2 LT PUSH2 0xE88 JUMPI PUSH2 0xE88 PUSH2 0x1BEA JUMP JUMPDEST PUSH1 0x20 MUL PUSH1 0x20 ADD ADD MLOAD CALLER DUP9 PUSH1 0x40 MLOAD DUP6 PUSH4 0xFFFFFFFF AND PUSH1 0xE0 SHL DUP2 MSTORE PUSH1 0x4 ADD PUSH2 0xEB1 SWAP5 SWAP4 SWAP3 SWAP2 SWAP1 PUSH2 0x1C1D JUMP JUMPDEST PUSH1 0x20 PUSH1 0x40 MLOAD DUP1 DUP4 SUB DUP2 PUSH1 0x0 DUP8 DUP1 EXTCODESIZE ISZERO DUP1 ISZERO PUSH2 0xECB JUMPI PUSH1 0x0 DUP1 REVERT JUMPDEST POP GAS CALL ISZERO DUP1 ISZERO PUSH2 0xEDF JUMPI RETURNDATASIZE PUSH1 0x0 DUP1 RETURNDATACOPY RETURNDATASIZE PUSH1 0x0 REVERT JUMPDEST POP POP POP POP PUSH1 0x40 MLOAD RETURNDATASIZE PUSH1 0x1F NOT PUSH1 0x1F DUP3 ADD AND DUP3 ADD DUP1 PUSH1 0x40 MSTORE POP DUP2 ADD SWAP1 PUSH2 0xF03 SWAP2 SWAP1 PUSH2 0x1CCD JUMP JUMPDEST POP PUSH1 0x66 SLOAD PUSH1 0x67 SLOAD PUSH1 0x40 MLOAD PUSH4 0xA9059CBB PUSH1 0xE0 SHL DUP2 MSTORE PUSH1 0x1 PUSH1 0x1 PUSH1 0xA0 SHL SUB SWAP3 DUP4 AND PUSH1 0x4 DUP3 ADD MSTORE PUSH1 0x24 DUP2 ADD SWAP2 SWAP1 SWAP2 MSTORE SWAP1 DUP4 AND SWAP1 PUSH4 0xA9059CBB SWAP1 PUSH1 0x44 ADD PUSH1 0x20 PUSH1 0x40 MLOAD DUP1 DUP4 SUB DUP2 PUSH1 0x0 DUP8 DUP1 EXTCODESIZE ISZERO DUP1 ISZERO PUSH2 0xF56 JUMPI PUSH1 0x0 DUP1 REVERT JUMPDEST POP GAS CALL ISZERO DUP1 ISZERO PUSH2 0xF6A JUMPI RETURNDATASIZE PUSH1 0x0 DUP1 RETURNDATACOPY RETURNDATASIZE PUSH1 0x0 REVERT JUMPDEST POP POP POP POP PUSH1 0x40 MLOAD RETURNDATASIZE PUSH1 0x1F NOT PUSH1 0x1F DUP3 ADD AND DUP3 ADD DUP1 PUSH1 0x40 MSTORE POP DUP2 ADD SWAP1 PUSH2 0xF8E SWAP2 SWAP1 PUSH2 0x1CCD JUMP JUMPDEST POP PUSH1 0x40 MLOAD PUSH4 0x70A08231 PUSH1 0xE0 SHL DUP2 MSTORE ADDRESS PUSH1 0x4 DUP3 ADD MSTORE PUSH1 0x1 PUSH1 0x1 PUSH1 0xA0 SHL SUB DUP4 AND SWAP1 PUSH4 0xA9059CBB SWAP1 CALLER SWAP1 DUP4 SWAP1 PUSH4 0x70A08231 SWAP1 PUSH1 0x24 ADD PUSH1 0x20 PUSH1 0x40 MLOAD DUP1 DUP4 SUB DUP2 DUP7 DUP1 EXTCODESIZE ISZERO DUP1 ISZERO PUSH2 0xFD8 JUMPI PUSH1 0x0 DUP1 REVERT JUMPDEST POP GAS STATICCALL ISZERO DUP1 ISZERO PUSH2 0xFEC JUMPI RETURNDATASIZE PUSH1 0x0 DUP1 RETURNDATACOPY RETURNDATASIZE PUSH1 0x0 REVERT JUMPDEST POP POP POP POP PUSH1 0x40 MLOAD RETURNDATASIZE PUSH1 0x1F NOT PUSH1 0x1F DUP3 ADD AND DUP3 ADD DUP1 PUSH1 0x40 MSTORE POP DUP2 ADD SWAP1 PUSH2 0x1010 SWAP2 SWAP1 PUSH2 0x1D1F JUMP JUMPDEST PUSH1 0x40 MLOAD PUSH1 0x1 PUSH1 0x1 PUSH1 0xE0 SHL SUB NOT PUSH1 0xE0 DUP6 SWAP1 SHL AND DUP2 MSTORE PUSH1 0x1 PUSH1 0x1 PUSH1 0xA0 SHL SUB SWAP1 SWAP3 AND PUSH1 0x4 DUP4 ADD MSTORE PUSH1 0x24 DUP3 ADD MSTORE PUSH1 0x44 ADD PUSH1 0x20 PUSH1 0x40 MLOAD DUP1 DUP4 SUB DUP2 PUSH1 0x0 DUP8 DUP1 EXTCODESIZE ISZERO DUP1 ISZERO PUSH2 0x1056 JUMPI PUSH1 0x0 DUP1 REVERT JUMPDEST POP GAS CALL ISZERO DUP1 ISZERO PUSH2 0x106A JUMPI RETURNDATASIZE PUSH1 0x0 DUP1 RETURNDATACOPY RETURNDATASIZE PUSH1 0x0 REVERT JUMPDEST POP POP POP POP PUSH1 0x40 MLOAD RETURNDATASIZE PUSH1 0x1F NOT PUSH1 0x1F DUP3 ADD AND DUP3 ADD DUP1 PUSH1 0x40 MSTORE POP DUP2 ADD SWAP1 PUSH2 0x108E SWAP2 SWAP1 PUSH2 0x1CCD JUMP JUMPDEST POP POP POP DUP1 DUP1 PUSH2 0x109C SWAP1 PUSH2 0x1CEF JUMP JUMPDEST SWAP2 POP POP PUSH2 0xA43 JUMP JUMPDEST PUSH1 0x0 DUP4 PUSH1 0x1 PUSH1 0x1 PUSH1 0xA0 SHL SUB AND PUSH4 0xFD9147AE PUSH1 0x40 MLOAD DUP2 PUSH4 0xFFFFFFFF AND PUSH1 0xE0 SHL DUP2 MSTORE PUSH1 0x4 ADD PUSH1 0x20 PUSH1 0x40 MLOAD DUP1 DUP4 SUB DUP2 DUP7 DUP1 EXTCODESIZE ISZERO DUP1 ISZERO PUSH2 0x10DF JUMPI PUSH1 0x0 DUP1 REVERT JUMPDEST POP GAS STATICCALL ISZERO DUP1 ISZERO PUSH2 0x10F3 JUMPI RETURNDATASIZE PUSH1 0x0 DUP1 RETURNDATACOPY RETURNDATASIZE PUSH1 0x0 REVERT JUMPDEST POP POP POP POP PUSH1 0x40 MLOAD RETURNDATASIZE PUSH1 0x1F NOT PUSH1 0x1F DUP3 ADD AND DUP3 ADD DUP1 PUSH1 0x40 MSTORE POP DUP2 ADD SWAP1 PUSH2 0x1117 SWAP2 SWAP1 PUSH2 0x1C00 JUMP JUMPDEST PUSH1 0x65 SLOAD SWAP1 SWAP2 POP PUSH1 0x1 PUSH1 0x1 PUSH1 0xA0 SHL SUB DUP1 DUP4 AND SWAP2 AND EQ PUSH2 0x116D JUMPI PUSH1 0x40 MLOAD PUSH3 0x461BCD PUSH1 0xE5 SHL DUP2 MSTORE PUSH1 0x20 PUSH1 0x4 DUP3 ADD MSTORE PUSH1 0x13 PUSH1 0x24 DUP3 ADD MSTORE PUSH19 0xDEDCD8F240EEDEE4D6E640CCDEE440AE8AA89 PUSH1 0x6B SHL PUSH1 0x44 DUP3 ADD MSTORE PUSH1 0x64 ADD PUSH2 0x263 JUMP JUMPDEST DUP1 PUSH1 0x1 PUSH1 0x1 PUSH1 0xA0 SHL SUB AND PUSH4 0xD0E30DB0 CALLVALUE PUSH1 0x40 MLOAD DUP3 PUSH4 0xFFFFFFFF AND PUSH1 0xE0 SHL DUP2 MSTORE PUSH1 0x4 ADD PUSH1 0x0 PUSH1 0x40 MLOAD DUP1 DUP4 SUB DUP2 DUP6 DUP9 DUP1 EXTCODESIZE ISZERO DUP1 ISZERO PUSH2 0x11A8 JUMPI PUSH1 0x0 DUP1 REVERT JUMPDEST POP GAS CALL ISZERO DUP1 ISZERO PUSH2 0x11BC JUMPI RETURNDATASIZE PUSH1 0x0 DUP1 RETURNDATACOPY RETURNDATASIZE PUSH1 0x0 REVERT JUMPDEST POP POP PUSH1 0x40 MLOAD PUSH4 0x95EA7B3 PUSH1 0xE0 SHL DUP2 MSTORE PUSH1 0x1 PUSH1 0x1 PUSH1 0xA0 SHL SUB DUP9 DUP2 AND PUSH1 0x4 DUP4 ADD MSTORE PUSH12 0x33B2E3C9FD0803CE7FFFFFF PUSH1 0x24 DUP4 ADD MSTORE DUP6 AND SWAP4 POP PUSH4 0x95EA7B3 SWAP3 POP PUSH1 0x44 ADD SWAP1 POP PUSH1 0x20 PUSH1 0x40 MLOAD DUP1 DUP4 SUB DUP2 PUSH1 0x0 DUP8 DUP1 EXTCODESIZE ISZERO DUP1 ISZERO PUSH2 0x1217 JUMPI PUSH1 0x0 DUP1 REVERT JUMPDEST POP GAS CALL ISZERO DUP1 ISZERO PUSH2 0x122B JUMPI RETURNDATASIZE PUSH1 0x0 DUP1 RETURNDATACOPY RETURNDATASIZE PUSH1 0x0 REVERT JUMPDEST POP POP POP POP PUSH1 0x40 MLOAD RETURNDATASIZE PUSH1 0x1F NOT PUSH1 0x1F DUP3 ADD AND DUP3 ADD DUP1 PUSH1 0x40 MSTORE POP DUP2 ADD SWAP1 PUSH2 0x124F SWAP2 SWAP1 PUSH2 0x1CCD JUMP JUMPDEST POP PUSH2 0x125C DUP5 DUP5 CALLVALUE DUP6 PUSH2 0x1689 JUMP JUMPDEST PUSH1 0x40 MLOAD PUSH4 0x70A08231 PUSH1 0xE0 SHL DUP2 MSTORE ADDRESS PUSH1 0x4 DUP3 ADD MSTORE PUSH1 0x1 PUSH1 0x1 PUSH1 0xA0 SHL SUB DUP3 AND SWAP1 PUSH4 0x2E1A7D4D SWAP1 DUP3 SWAP1 PUSH4 0x70A08231 SWAP1 PUSH1 0x24 ADD PUSH1 0x20 PUSH1 0x40 MLOAD DUP1 DUP4 SUB DUP2 DUP7 DUP1 EXTCODESIZE ISZERO DUP1 ISZERO PUSH2 0x12A3 JUMPI PUSH1 0x0 DUP1 REVERT JUMPDEST POP GAS STATICCALL ISZERO DUP1 ISZERO PUSH2 0x12B7 JUMPI RETURNDATASIZE PUSH1 0x0 DUP1 RETURNDATACOPY RETURNDATASIZE PUSH1 0x0 REVERT JUMPDEST POP POP POP POP PUSH1 0x40 MLOAD RETURNDATASIZE PUSH1 0x1F NOT PUSH1 0x1F DUP3 ADD AND DUP3 ADD DUP1 PUSH1 0x40 MSTORE POP DUP2 ADD SWAP1 PUSH2 0x12DB SWAP2 SWAP1 PUSH2 0x1D1F JUMP JUMPDEST PUSH1 0x40 MLOAD DUP3 PUSH4 0xFFFFFFFF AND PUSH1 0xE0 SHL DUP2 MSTORE PUSH1 0x4 ADD PUSH2 0x12F9 SWAP2 DUP2 MSTORE PUSH1 0x20 ADD SWAP1 JUMP JUMPDEST PUSH1 0x0 PUSH1 0x40 MLOAD DUP1 DUP4 SUB DUP2 PUSH1 0x0 DUP8 DUP1 EXTCODESIZE ISZERO DUP1 ISZERO PUSH2 0x1313 JUMPI PUSH1 0x0 DUP1 REVERT JUMPDEST POP GAS CALL ISZERO DUP1 ISZERO PUSH2 0x1327 JUMPI RETURNDATASIZE PUSH1 0x0 DUP1 RETURNDATACOPY RETURNDATASIZE PUSH1 0x0 REVERT JUMPDEST POP POP PUSH1 0x40 MLOAD PUSH4 0x95EA7B3 PUSH1 0xE0 SHL DUP2 MSTORE PUSH1 0x1 PUSH1 0x1 PUSH1 0xA0 SHL SUB DUP8 DUP2 AND PUSH1 0x4 DUP4 ADD MSTORE PUSH1 0x0 PUSH1 0x24 DUP4 ADD MSTORE DUP5 AND SWAP3 POP PUSH4 0x95EA7B3 SWAP2 POP PUSH1 0x44 ADD PUSH1 0x20 PUSH1 0x40 MLOAD DUP1 DUP4 SUB DUP2 PUSH1 0x0 DUP8 DUP1 EXTCODESIZE ISZERO DUP1 ISZERO PUSH2 0x1375 JUMPI PUSH1 0x0 DUP1 REVERT JUMPDEST POP GAS CALL ISZERO DUP1 ISZERO PUSH2 0x1389 JUMPI RETURNDATASIZE PUSH1 0x0 DUP1 RETURNDATACOPY RETURNDATASIZE PUSH1 0x0 REVERT JUMPDEST POP POP POP POP PUSH1 0x40 MLOAD RETURNDATASIZE PUSH1 0x1F NOT PUSH1 0x1F DUP3 ADD AND DUP3 ADD DUP1 PUSH1 0x40 MSTORE POP DUP2 ADD SWAP1 PUSH2 0x13AD SWAP2 SWAP1 PUSH2 0x1CCD JUMP JUMPDEST POP PUSH1 0x40 MLOAD PUSH1 0x0 SWAP1 CALLER SWAP1 SELFBALANCE SWAP1 DUP4 DUP2 DUP2 DUP2 DUP6 DUP8 GAS CALL SWAP3 POP POP POP RETURNDATASIZE DUP1 PUSH1 0x0 DUP2 EQ PUSH2 0x13F0 JUMPI PUSH1 0x40 MLOAD SWAP2 POP PUSH1 0x1F NOT PUSH1 0x3F RETURNDATASIZE ADD AND DUP3 ADD PUSH1 0x40 MSTORE RETURNDATASIZE DUP3 MSTORE RETURNDATASIZE PUSH1 0x0 PUSH1 0x20 DUP5 ADD RETURNDATACOPY PUSH2 0x13F5 JUMP JUMPDEST PUSH1 0x60 SWAP2 POP JUMPDEST POP POP SWAP1 POP DUP1 PUSH2 0x1416 JUMPI PUSH1 0x40 MLOAD PUSH3 0x461BCD PUSH1 0xE5 SHL DUP2 MSTORE PUSH1 0x4 ADD PUSH2 0x263 SWAP1 PUSH2 0x1BBF JUMP JUMPDEST POP POP POP POP POP JUMP JUMPDEST PUSH1 0x0 SLOAD PUSH2 0x100 SWAP1 DIV PUSH1 0xFF AND ISZERO DUP1 DUP1 ISZERO PUSH2 0x143D JUMPI POP PUSH1 0x0 SLOAD PUSH1 0x1 PUSH1 0xFF SWAP1 SWAP2 AND LT JUMPDEST DUP1 PUSH2 0x1457 JUMPI POP ADDRESS EXTCODESIZE ISZERO DUP1 ISZERO PUSH2 0x1457 JUMPI POP PUSH1 0x0 SLOAD PUSH1 0xFF AND PUSH1 0x1 EQ JUMPDEST PUSH2 0x14BA JUMPI PUSH1 0x40 MLOAD PUSH3 0x461BCD PUSH1 0xE5 SHL DUP2 MSTORE PUSH1 0x20 PUSH1 0x4 DUP3 ADD MSTORE PUSH1 0x2E PUSH1 0x24 DUP3 ADD MSTORE PUSH32 0x496E697469616C697A61626C653A20636F6E747261637420697320616C726561 PUSH1 0x44 DUP3 ADD MSTORE PUSH14 0x191E481A5B9A5D1A585B1A5E9959 PUSH1 0x92 SHL PUSH1 0x64 DUP3 ADD MSTORE PUSH1 0x84 ADD PUSH2 0x263 JUMP JUMPDEST PUSH1 0x0 DUP1 SLOAD PUSH1 0xFF NOT AND PUSH1 0x1 OR SWAP1 SSTORE DUP1 ISZERO PUSH2 0x14DD JUMPI PUSH1 0x0 DUP1 SLOAD PUSH2 0xFF00 NOT AND PUSH2 0x100 OR SWAP1 SSTORE JUMPDEST PUSH2 0x14E5 PUSH2 0x1712 JUMP JUMPDEST PUSH1 0x65 DUP1 SLOAD PUSH1 0x1 PUSH1 0x1 PUSH1 0xA0 SHL SUB DUP1 DUP7 AND PUSH1 0x1 PUSH1 0x1 PUSH1 0xA0 SHL SUB NOT SWAP3 DUP4 AND OR SWAP1 SWAP3 SSTORE PUSH1 0x66 DUP1 SLOAD SWAP3 DUP6 AND SWAP3 SWAP1 SWAP2 AND SWAP2 SWAP1 SWAP2 OR SWAP1 SSTORE PUSH1 0x0 PUSH1 0x67 SSTORE DUP1 ISZERO PUSH2 0xA3B JUMPI PUSH1 0x0 DUP1 SLOAD PUSH2 0xFF00 NOT AND SWAP1 SSTORE PUSH1 0x40 MLOAD PUSH1 0x1 DUP2 MSTORE PUSH32 0x7F26B83FF96E1F2B6A682F133852F6798A09C465DA95921460CEFB3847402498 SWAP1 PUSH1 0x20 ADD PUSH1 0x40 MLOAD DUP1 SWAP2 SUB SWAP1 LOG1 POP POP POP JUMP JUMPDEST PUSH2 0x156C PUSH2 0x15DD JUMP JUMPDEST PUSH1 0x1 PUSH1 0x1 PUSH1 0xA0 SHL SUB DUP2 AND PUSH2 0x15D1 JUMPI PUSH1 0x40 MLOAD PUSH3 0x461BCD PUSH1 0xE5 SHL DUP2 MSTORE PUSH1 0x20 PUSH1 0x4 DUP3 ADD MSTORE PUSH1 0x26 PUSH1 0x24 DUP3 ADD MSTORE PUSH32 0x4F776E61626C653A206E6577206F776E657220697320746865207A65726F2061 PUSH1 0x44 DUP3 ADD MSTORE PUSH6 0x646472657373 PUSH1 0xD0 SHL PUSH1 0x64 DUP3 ADD MSTORE PUSH1 0x84 ADD PUSH2 0x263 JUMP JUMPDEST PUSH2 0x15DA DUP2 PUSH2 0x1637 JUMP JUMPDEST POP JUMP JUMPDEST PUSH1 0x33 SLOAD PUSH1 0x1 PUSH1 0x1 PUSH1 0xA0 SHL SUB AND CALLER EQ PUSH2 0x990 JUMPI PUSH1 0x40 MLOAD PUSH3 0x461BCD PUSH1 0xE5 SHL DUP2 MSTORE PUSH1 0x20 PUSH1 0x4 DUP3 ADD DUP2 SWAP1 MSTORE PUSH1 0x24 DUP3 ADD MSTORE PUSH32 0x4F776E61626C653A2063616C6C6572206973206E6F7420746865206F776E6572 PUSH1 0x44 DUP3 ADD MSTORE PUSH1 0x64 ADD PUSH2 0x263 JUMP JUMPDEST PUSH1 0x33 DUP1 SLOAD PUSH1 0x1 PUSH1 0x1 PUSH1 0xA0 SHL SUB DUP4 DUP2 AND PUSH1 0x1 PUSH1 0x1 PUSH1 0xA0 SHL SUB NOT DUP4 AND DUP2 OR SWAP1 SWAP4 SSTORE PUSH1 0x40 MLOAD SWAP2 AND SWAP2 SWAP1 DUP3 SWAP1 PUSH32 0x8BE0079C531659141344CD1FD0A4F28419497F9722A3DAAFE3B4186F6B6457E0 SWAP1 PUSH1 0x0 SWAP1 LOG3 POP POP JUMP JUMPDEST PUSH1 0x40 MLOAD PUSH4 0xB1E8F8EF PUSH1 0xE0 SHL DUP2 MSTORE PUSH1 0x4 DUP2 ADD DUP5 SWAP1 MSTORE PUSH1 0x24 DUP2 ADD DUP4 SWAP1 MSTORE PUSH1 0x1 PUSH1 0x1 PUSH1 0xA0 SHL SUB DUP3 DUP2 AND PUSH1 0x44 DUP4 ADD MSTORE DUP6 AND SWAP1 PUSH4 0xB1E8F8EF SWAP1 PUSH1 0x64 ADD PUSH1 0x20 PUSH1 0x40 MLOAD DUP1 DUP4 SUB DUP2 PUSH1 0x0 DUP8 DUP1 EXTCODESIZE ISZERO DUP1 ISZERO PUSH2 0x16DA JUMPI PUSH1 0x0 DUP1 REVERT JUMPDEST POP GAS CALL ISZERO DUP1 ISZERO PUSH2 0x16EE JUMPI RETURNDATASIZE PUSH1 0x0 DUP1 RETURNDATACOPY RETURNDATASIZE PUSH1 0x0 REVERT JUMPDEST POP POP POP POP PUSH1 0x40 MLOAD RETURNDATASIZE PUSH1 0x1F NOT PUSH1 0x1F DUP3 ADD AND DUP3 ADD DUP1 PUSH1 0x40 MSTORE POP DUP2 ADD SWAP1 PUSH2 0x1416 SWAP2 SWAP1 PUSH2 0x1CCD JUMP JUMPDEST PUSH1 0x0 SLOAD PUSH2 0x100 SWAP1 DIV PUSH1 0xFF AND PUSH2 0x1739 JUMPI PUSH1 0x40 MLOAD PUSH3 0x461BCD PUSH1 0xE5 SHL DUP2 MSTORE PUSH1 0x4 ADD PUSH2 0x263 SWAP1 PUSH2 0x1D38 JUMP JUMPDEST PUSH2 0x990 PUSH1 0x0 SLOAD PUSH2 0x100 SWAP1 DIV PUSH1 0xFF AND PUSH2 0x1763 JUMPI PUSH1 0x40 MLOAD PUSH3 0x461BCD PUSH1 0xE5 SHL DUP2 MSTORE PUSH1 0x4 ADD PUSH2 0x263 SWAP1 PUSH2 0x1D38 JUMP JUMPDEST PUSH2 0x990 CALLER PUSH2 0x1637 JUMP JUMPDEST PUSH1 0x0 PUSH1 0x20 DUP3 DUP5 SUB SLT ISZERO PUSH2 0x177E JUMPI PUSH1 0x0 DUP1 REVERT JUMPDEST POP CALLDATALOAD SWAP2 SWAP1 POP JUMP JUMPDEST PUSH4 0x4E487B71 PUSH1 0xE0 SHL PUSH1 0x0 MSTORE PUSH1 0x41 PUSH1 0x4 MSTORE PUSH1 0x24 PUSH1 0x0 REVERT JUMPDEST PUSH1 0x40 MLOAD PUSH1 0x1F DUP3 ADD PUSH1 0x1F NOT AND DUP2 ADD PUSH8 0xFFFFFFFFFFFFFFFF DUP2 GT DUP3 DUP3 LT OR ISZERO PUSH2 0x17C4 JUMPI PUSH2 0x17C4 PUSH2 0x1785 JUMP JUMPDEST PUSH1 0x40 MSTORE SWAP2 SWAP1 POP JUMP JUMPDEST PUSH1 0x0 PUSH8 0xFFFFFFFFFFFFFFFF DUP3 GT ISZERO PUSH2 0x17E6 JUMPI PUSH2 0x17E6 PUSH2 0x1785 JUMP JUMPDEST POP PUSH1 0x5 SHL PUSH1 0x20 ADD SWAP1 JUMP JUMPDEST PUSH1 0x1 PUSH1 0x1 PUSH1 0xA0 SHL SUB DUP2 AND DUP2 EQ PUSH2 0x15DA JUMPI PUSH1 0x0 DUP1 REVERT JUMPDEST PUSH1 0x0 DUP3 PUSH1 0x1F DUP4 ADD SLT PUSH2 0x1816 JUMPI PUSH1 0x0 DUP1 REVERT JUMPDEST DUP2 CALLDATALOAD PUSH1 0x20 PUSH2 0x182B PUSH2 0x1826 DUP4 PUSH2 0x17CC JUMP JUMPDEST PUSH2 0x179B JUMP JUMPDEST DUP3 DUP2 MSTORE PUSH1 0x5 SWAP3 SWAP1 SWAP3 SHL DUP5 ADD DUP2 ADD SWAP2 DUP2 DUP2 ADD SWAP1 DUP7 DUP5 GT ISZERO PUSH2 0x184A JUMPI PUSH1 0x0 DUP1 REVERT JUMPDEST DUP3 DUP7 ADD JUMPDEST DUP5 DUP2 LT ISZERO PUSH2 0x186E JUMPI DUP1 CALLDATALOAD PUSH2 0x1861 DUP2 PUSH2 0x17F0 JUMP JUMPDEST DUP4 MSTORE SWAP2 DUP4 ADD SWAP2 DUP4 ADD PUSH2 0x184E JUMP JUMPDEST POP SWAP7 SWAP6 POP POP POP POP POP POP JUMP JUMPDEST PUSH1 0x0 DUP3 PUSH1 0x1F DUP4 ADD SLT PUSH2 0x188A JUMPI PUSH1 0x0 DUP1 REVERT JUMPDEST DUP2 CALLDATALOAD PUSH1 0x20 PUSH2 0x189A PUSH2 0x1826 DUP4 PUSH2 0x17CC JUMP JUMPDEST DUP3 DUP2 MSTORE PUSH1 0x5 SWAP3 SWAP1 SWAP3 SHL DUP5 ADD DUP2 ADD SWAP2 DUP2 DUP2 ADD SWAP1 DUP7 DUP5 GT ISZERO PUSH2 0x18B9 JUMPI PUSH1 0x0 DUP1 REVERT JUMPDEST DUP3 DUP7 ADD JUMPDEST DUP5 DUP2 LT ISZERO PUSH2 0x186E JUMPI DUP1 CALLDATALOAD DUP4 MSTORE SWAP2 DUP4 ADD SWAP2 DUP4 ADD PUSH2 0x18BD JUMP JUMPDEST PUSH1 0x0 PUSH1 0x1F DUP4 DUP2 DUP5 ADD SLT PUSH2 0x18E6 JUMPI PUSH1 0x0 DUP1 REVERT JUMPDEST DUP3 CALLDATALOAD PUSH1 0x20 PUSH2 0x18F6 PUSH2 0x1826 DUP4 PUSH2 0x17CC JUMP JUMPDEST DUP3 DUP2 MSTORE PUSH1 0x5 SWAP3 SWAP1 SWAP3 SHL DUP6 ADD DUP2 ADD SWAP2 DUP2 DUP2 ADD SWAP1 DUP8 DUP5 GT ISZERO PUSH2 0x1915 JUMPI PUSH1 0x0 DUP1 REVERT JUMPDEST DUP3 DUP8 ADD JUMPDEST DUP5 DUP2 LT ISZERO PUSH2 0x19AC JUMPI DUP1 CALLDATALOAD PUSH8 0xFFFFFFFFFFFFFFFF DUP1 DUP3 GT ISZERO PUSH2 0x193A JUMPI PUSH1 0x0 DUP1 DUP2 REVERT JUMPDEST DUP2 DUP11 ADD SWAP2 POP DUP11 PUSH1 0x3F DUP4 ADD SLT PUSH2 0x194F JUMPI PUSH1 0x0 DUP1 DUP2 REVERT JUMPDEST DUP6 DUP3 ADD CALLDATALOAD PUSH1 0x40 DUP3 DUP3 GT ISZERO PUSH2 0x1965 JUMPI PUSH2 0x1965 PUSH2 0x1785 JUMP JUMPDEST PUSH2 0x1976 DUP3 DUP12 ADD PUSH1 0x1F NOT AND DUP10 ADD PUSH2 0x179B JUMP JUMPDEST SWAP3 POP DUP2 DUP4 MSTORE DUP13 DUP2 DUP4 DUP7 ADD ADD GT ISZERO PUSH2 0x198D JUMPI PUSH1 0x0 DUP1 DUP2 REVERT JUMPDEST DUP2 DUP2 DUP6 ADD DUP10 DUP6 ADD CALLDATACOPY POP PUSH1 0x0 SWAP1 DUP3 ADD DUP8 ADD MSTORE DUP5 MSTORE POP SWAP2 DUP4 ADD SWAP2 DUP4 ADD PUSH2 0x1919 JUMP JUMPDEST POP SWAP8 SWAP7 POP POP POP POP POP POP POP JUMP JUMPDEST DUP1 CALLDATALOAD PUSH2 0x19C3 DUP2 PUSH2 0x17F0 JUMP JUMPDEST SWAP2 SWAP1 POP JUMP JUMPDEST PUSH1 0x0 DUP1 PUSH1 0x0 DUP1 PUSH1 0x0 DUP1 PUSH1 0x0 DUP1 PUSH2 0x100 DUP10 DUP12 SUB SLT ISZERO PUSH2 0x19E5 JUMPI PUSH1 0x0 DUP1 REVERT JUMPDEST DUP9 CALLDATALOAD PUSH8 0xFFFFFFFFFFFFFFFF DUP1 DUP3 GT ISZERO PUSH2 0x19FD JUMPI PUSH1 0x0 DUP1 REVERT JUMPDEST PUSH2 0x1A09 DUP13 DUP4 DUP14 ADD PUSH2 0x1805 JUMP JUMPDEST SWAP10 POP PUSH1 0x20 DUP12 ADD CALLDATALOAD SWAP2 POP DUP1 DUP3 GT ISZERO PUSH2 0x1A1F JUMPI PUSH1 0x0 DUP1 REVERT JUMPDEST PUSH2 0x1A2B DUP13 DUP4 DUP14 ADD PUSH2 0x1879 JUMP JUMPDEST SWAP9 POP PUSH1 0x40 DUP12 ADD CALLDATALOAD SWAP2 POP DUP1 DUP3 GT ISZERO PUSH2 0x1A41 JUMPI PUSH1 0x0 DUP1 REVERT JUMPDEST PUSH2 0x1A4D DUP13 DUP4 DUP14 ADD PUSH2 0x1879 JUMP JUMPDEST SWAP8 POP PUSH1 0x60 DUP12 ADD CALLDATALOAD SWAP2 POP DUP1 DUP3 GT ISZERO PUSH2 0x1A63 JUMPI PUSH1 0x0 DUP1 REVERT JUMPDEST PUSH2 0x1A6F DUP13 DUP4 DUP14 ADD PUSH2 0x1879 JUMP JUMPDEST SWAP7 POP PUSH1 0x80 DUP12 ADD CALLDATALOAD SWAP2 POP DUP1 DUP3 GT ISZERO PUSH2 0x1A85 JUMPI PUSH1 0x0 DUP1 REVERT JUMPDEST PUSH2 0x1A91 DUP13 DUP4 DUP14 ADD PUSH2 0x1879 JUMP JUMPDEST SWAP6 POP PUSH1 0xA0 DUP12 ADD CALLDATALOAD SWAP2 POP DUP1 DUP3 GT ISZERO PUSH2 0x1AA7 JUMPI PUSH1 0x0 DUP1 REVERT JUMPDEST PUSH2 0x1AB3 DUP13 DUP4 DUP14 ADD PUSH2 0x1879 JUMP JUMPDEST SWAP5 POP PUSH1 0xC0 DUP12 ADD CALLDATALOAD SWAP2 POP DUP1 DUP3 GT ISZERO PUSH2 0x1AC9 JUMPI PUSH1 0x0 DUP1 REVERT JUMPDEST POP PUSH2 0x1AD6 DUP12 DUP3 DUP13 ADD PUSH2 0x18D4 JUMP JUMPDEST SWAP3 POP POP PUSH2 0x1AE5 PUSH1 0xE0 DUP11 ADD PUSH2 0x19B8 JUMP JUMPDEST SWAP1 POP SWAP3 SWAP6 SWAP9 POP SWAP3 SWAP6 SWAP9 SWAP1 SWAP4 SWAP7 POP JUMP JUMPDEST PUSH1 0x0 DUP1 PUSH1 0x40 DUP4 DUP6 SUB SLT ISZERO PUSH2 0x1B07 JUMPI PUSH1 0x0 DUP1 REVERT JUMPDEST DUP3 CALLDATALOAD PUSH2 0x1B12 DUP2 PUSH2 0x17F0 JUMP JUMPDEST SWAP5 PUSH1 0x20 SWAP4 SWAP1 SWAP4 ADD CALLDATALOAD SWAP4 POP POP POP JUMP JUMPDEST PUSH1 0x0 DUP1 PUSH1 0x0 PUSH1 0x60 DUP5 DUP7 SUB SLT ISZERO PUSH2 0x1B35 JUMPI PUSH1 0x0 DUP1 REVERT JUMPDEST DUP4 CALLDATALOAD PUSH2 0x1B40 DUP2 PUSH2 0x17F0 JUMP JUMPDEST SWAP3 POP PUSH1 0x20 DUP5 ADD CALLDATALOAD SWAP2 POP PUSH1 0x40 DUP5 ADD CALLDATALOAD PUSH2 0x1B57 DUP2 PUSH2 0x17F0 JUMP JUMPDEST DUP1 SWAP2 POP POP SWAP3 POP SWAP3 POP SWAP3 JUMP JUMPDEST PUSH1 0x0 DUP1 PUSH1 0x40 DUP4 DUP6 SUB SLT ISZERO PUSH2 0x1B75 JUMPI PUSH1 0x0 DUP1 REVERT JUMPDEST DUP3 CALLDATALOAD PUSH2 0x1B80 DUP2 PUSH2 0x17F0 JUMP JUMPDEST SWAP2 POP PUSH1 0x20 DUP4 ADD CALLDATALOAD PUSH2 0x1B90 DUP2 PUSH2 0x17F0 JUMP JUMPDEST DUP1 SWAP2 POP POP SWAP3 POP SWAP3 SWAP1 POP JUMP JUMPDEST PUSH1 0x0 PUSH1 0x20 DUP3 DUP5 SUB SLT ISZERO PUSH2 0x1BAD JUMPI PUSH1 0x0 DUP1 REVERT JUMPDEST DUP2 CALLDATALOAD PUSH2 0x1BB8 DUP2 PUSH2 0x17F0 JUMP JUMPDEST SWAP4 SWAP3 POP POP POP JUMP JUMPDEST PUSH1 0x20 DUP1 DUP3 MSTORE PUSH1 0x11 SWAP1 DUP3 ADD MSTORE PUSH17 0x31B0B73737BA1039B2B7321032BA3432B9 PUSH1 0x79 SHL PUSH1 0x40 DUP3 ADD MSTORE PUSH1 0x60 ADD SWAP1 JUMP JUMPDEST PUSH4 0x4E487B71 PUSH1 0xE0 SHL PUSH1 0x0 MSTORE PUSH1 0x32 PUSH1 0x4 MSTORE PUSH1 0x24 PUSH1 0x0 REVERT JUMPDEST PUSH1 0x0 PUSH1 0x20 DUP3 DUP5 SUB SLT ISZERO PUSH2 0x1C12 JUMPI PUSH1 0x0 DUP1 REVERT JUMPDEST DUP2 MLOAD PUSH2 0x1BB8 DUP2 PUSH2 0x17F0 JUMP JUMPDEST PUSH1 0x0 PUSH2 0x100 DUP3 DUP8 DUP4 JUMPDEST PUSH1 0x5 DUP2 LT ISZERO PUSH2 0x1C45 JUMPI DUP2 MLOAD DUP4 MSTORE PUSH1 0x20 SWAP3 DUP4 ADD SWAP3 SWAP1 SWAP2 ADD SWAP1 PUSH1 0x1 ADD PUSH2 0x1C26 JUMP JUMPDEST POP POP POP DUP1 PUSH1 0xA0 DUP5 ADD MSTORE DUP6 MLOAD DUP1 DUP3 DUP6 ADD MSTORE PUSH1 0x0 SWAP2 POP JUMPDEST DUP1 DUP3 LT ISZERO PUSH2 0x1C7C JUMPI PUSH1 0x20 DUP3 DUP9 ADD ADD MLOAD PUSH2 0x120 DUP4 DUP7 ADD ADD MSTORE PUSH1 0x20 DUP3 ADD SWAP2 POP PUSH2 0x1C5A JUMP JUMPDEST DUP1 DUP3 GT ISZERO PUSH2 0x1C8F JUMPI PUSH1 0x0 PUSH2 0x120 DUP3 DUP7 ADD ADD MSTORE JUMPDEST PUSH1 0x1F ADD PUSH1 0x1F NOT AND DUP4 ADD PUSH2 0x120 ADD SWAP2 POP PUSH2 0x1CB5 SWAP1 POP PUSH1 0xC0 DUP4 ADD DUP6 PUSH1 0x1 PUSH1 0x1 PUSH1 0xA0 SHL SUB AND SWAP1 MSTORE JUMP JUMPDEST PUSH1 0x1 PUSH1 0x1 PUSH1 0xA0 SHL SUB DUP4 AND PUSH1 0xE0 DUP4 ADD MSTORE SWAP6 SWAP5 POP POP POP POP POP JUMP JUMPDEST PUSH1 0x0 PUSH1 0x20 DUP3 DUP5 SUB SLT ISZERO PUSH2 0x1CDF JUMPI PUSH1 0x0 DUP1 REVERT JUMPDEST DUP2 MLOAD DUP1 ISZERO ISZERO DUP2 EQ PUSH2 0x1BB8 JUMPI PUSH1 0x0 DUP1 REVERT JUMPDEST PUSH1 0x0 PUSH2 0xFFFF DUP1 DUP4 AND DUP2 DUP2 EQ ISZERO PUSH2 0x1D15 JUMPI PUSH4 0x4E487B71 PUSH1 0xE0 SHL PUSH1 0x0 MSTORE PUSH1 0x11 PUSH1 0x4 MSTORE PUSH1 0x24 PUSH1 0x0 REVERT JUMPDEST PUSH1 0x1 ADD SWAP4 SWAP3 POP POP POP JUMP JUMPDEST PUSH1 0x0 PUSH1 0x20 DUP3 DUP5 SUB SLT ISZERO PUSH2 0x1D31 JUMPI PUSH1 0x0 DUP1 REVERT JUMPDEST POP MLOAD SWAP2 SWAP1 POP JUMP JUMPDEST PUSH1 0x20 DUP1 DUP3 MSTORE PUSH1 0x2B SWAP1 DUP3 ADD MSTORE PUSH32 0x496E697469616C697A61626C653A20636F6E7472616374206973206E6F742069 PUSH1 0x40 DUP3 ADD MSTORE PUSH11 0x6E697469616C697A696E67 PUSH1 0xA8 SHL PUSH1 0x60 DUP3 ADD MSTORE PUSH1 0x80 ADD SWAP1 JUMP INVALID LOG2 PUSH5 0x6970667358 0x22 SLT KECCAK256 JUMPI SAR 0x4F CALLVALUE MOD DUP14 0x49 ISZERO 0xB4 0xD3 PUSH20 0x9D88AA34155DF286C900DE11FE7C43021B4C99D7 0x22 PUSH5 0x736F6C6343 STOP ADDMOD MULMOD STOP CALLER "
				},
				"gasEstimates": {
					"creation": {
						"codeDepositCost": "1521800",
						"executionCost": "31178",
						"totalCost": "1552978"
					},
					"external": {
						"batchBorrow(address[],uint256[],uint256[],uint256[],uint256[],uint256[],bytes[],address)": "infinite",
						"batchBorrowETH(address[],uint256[],uint256[],uint256[],uint256[],uint256[],bytes[],address)": "infinite",
						"init(address,address)": "infinite",
						"owner()": "2381",
						"renounceOwnership()": "infinite",
						"repayETH(address,uint256,address)": "infinite",
						"setFee(uint256)": "24511",
						"transferOwnership(address)": "infinite",
						"withdraw(uint256)": "infinite",
						"withdrawERC20(address,uint256)": "infinite"
					},
					"internal": {
						"_repay(address payable,uint256,uint256,address)": "infinite"
					}
				},
				"methodIdentifiers": {
					"batchBorrow(address[],uint256[],uint256[],uint256[],uint256[],uint256[],bytes[],address)": "a489de5b",
					"batchBorrowETH(address[],uint256[],uint256[],uint256[],uint256[],uint256[],bytes[],address)": "6f359b5a",
					"init(address,address)": "f09a4016",
					"owner()": "8da5cb5b",
					"renounceOwnership()": "715018a6",
					"repayETH(address,uint256,address)": "bcc3c255",
					"setFee(uint256)": "69fe0e2d",
					"transferOwnership(address)": "f2fde38b",
					"withdraw(uint256)": "2e1a7d4d",
					"withdrawERC20(address,uint256)": "a1db9782"
				}
			},
			"storageLayout": {
				"storage": [
					{
						"astId": 254,
						"contract": "src/router/Router.sol:Router01",
						"label": "_initialized",
						"offset": 0,
						"slot": "0",
						"type": "t_uint8"
					},
					{
						"astId": 257,
						"contract": "src/router/Router.sol:Router01",
						"label": "_initializing",
						"offset": 1,
						"slot": "0",
						"type": "t_bool"
					},
					{
						"astId": 741,
						"contract": "src/router/Router.sol:Router01",
						"label": "__gap",
						"offset": 0,
						"slot": "1",
						"type": "t_array(t_uint256)50_storage"
					},
					{
						"astId": 126,
						"contract": "src/router/Router.sol:Router01",
						"label": "_owner",
						"offset": 0,
						"slot": "51",
						"type": "t_address"
					},
					{
						"astId": 246,
						"contract": "src/router/Router.sol:Router01",
						"label": "__gap",
						"offset": 0,
						"slot": "52",
						"type": "t_array(t_uint256)49_storage"
					},
					{
						"astId": 1285,
						"contract": "src/router/Router.sol:Router01",
						"label": "WETHaddr",
						"offset": 0,
						"slot": "101",
						"type": "t_address"
					},
					{
						"astId": 1287,
						"contract": "src/router/Router.sol:Router01",
						"label": "controlPlane",
						"offset": 0,
						"slot": "102",
						"type": "t_address_payable"
					},
					{
						"astId": 1289,
						"contract": "src/router/Router.sol:Router01",
						"label": "fee",
						"offset": 0,
						"slot": "103",
						"type": "t_uint256"
					}
				],
				"types": {
					"t_address": {
						"encoding": "inplace",
						"label": "address",
						"numberOfBytes": "20"
					},
					"t_address_payable": {
						"encoding": "inplace",
						"label": "address payable",
						"numberOfBytes": "20"
					},
					"t_array(t_uint256)49_storage": {
						"base": "t_uint256",
						"encoding": "inplace",
						"label": "uint256[49]",
						"numberOfBytes": "1568"
					},
					"t_array(t_uint256)50_storage": {
						"base": "t_uint256",
						"encoding": "inplace",
						"label": "uint256[50]",
						"numberOfBytes": "1600"
					},
					"t_bool": {
						"encoding": "inplace",
						"label": "bool",
						"numberOfBytes": "1"
					},
					"t_uint256": {
						"encoding": "inplace",
						"label": "uint256",
						"numberOfBytes": "32"
					},
					"t_uint8": {
						"encoding": "inplace",
						"label": "uint8",
						"numberOfBytes": "1"
					}
				}
			},
			"userdoc": {
				"kind": "user",
				"methods": {},
				"version": 1
			}
		}
	}
}